:10000000B8540020DD030000450400005504000042
:1000100000000000000000000000000000000000E0
:10002000000000000000000000000000AD03000020
:1000300000000000000000008D03000039010000F6
:1000400039010000390100003901000039010000C8
:10005000790D00003901000039010000390100006C
:1000600039010000E90B00003901000039010000EE
:100070003901000039010000F30B000039010000D4
:10008000390100003901000041990000AD990000DC
:100090003901000039010000390100003901000078
:1000A0003901000039010000390100003901000068
:1000B00008B500F06FFA08BD70B50C1C061C00F006
:1000C000FFF8094B094A1D682919914202D8084ACC
:1000D000914204D20C23012533606D4200E0196087
:1000E00000F0F6F8281C70BD000000200080002001
:1000F000B854002008B5101C191C00F05DFA08BDAA
:1001000008B5101C191C00F06BFA08BD132303601E
:100110000120404270471323036001204042704792
:100120001323036001204042704700230222036032
:10013000181C8A425841704708B500F017FA08BDEC
:1001400070B500240E4B0F4E1C600F4B35681868BD
:1001500000F08AF80D4B8000C358201C0C3B9D42D8
:100160000DD0A54204D0AA88062A01D10132AA8066
:10017000062201209A80D988054A3360118070BD1B
:10018000A8000020340100207C010020380100205C
:100190003001002070B5041C0D1C8388052910D97E
:1001A000052B24D8211C0089124B800018180C3113
:1001B00000F062F8012321890F4A8B4011680B433C
:1001C00014E0052B13D9211C00890A4E80000C3144
:1001D000301800F067F821898B009B59002B06D15D
:1001E00001338B40044A116899430B1C1360A580AE
:1001F00070BDC046380100207C01002008B5094BC5
:100200001B681A899B88052B01D9824209D900F005
:1002100062F8002803D00122034B1A6001E000F0CD
:10022000ABF808BD34010020A800002038B5002438
:1002300000F046F8084B094A1B88094D1BB29B0089
:100240009C50084A28681368211C013B1360FFF783
:10025000A1FF2C6000F08CF830010020AC000020E1
:1002600034010020780100200023C20702D4400896
:100270000133FAE7181C70470368002B0ED00B609F
:1002800003685B684B6003685B68196003685960CA
:1002900002685368934204D1596002E0016009602A
:1002A000496070470B688B4207D04A6813600B683F
:1002B0005A600268914202D100E000230360704757
:1002C000EFF3108072B6704762B6EFF3108070479C
:1002D00080F310887047EFF30580C0B270470000CC
:1002E000D318032293431F4A10B51C1F22606207D4
:1002F00003D0083B1C1C1C4B23608022231F52048C
:100300001A601A4A043B1860043B1A600022043B3E
:100310001A60043B03321A60043B013A1A60043B42
:10032000013A1A60043B19600632043B1A60043B30
:10033000013A1A60043B013A1A60043B013A1A6020
:10034000043B07321A60043B013A1A60043B013A4D
:100350001A60043B013A1A60201C032344385B42B4
:10036000036010BD77777777888888882D02000032
:10037000FFF7AAFF01DFFEE78021034A4905536822
:100380000B4353607047C04600ED00E0EFF3098077
:10039000EC4685464046494652465B46FFB47046A9
:1003A00001B46846E5460B4909680860FFF7C8FED6
:1003B000EE46084800680068854601BC8446FFBCDC
:1003C0008046894692469B46684680F30988F546F2
:1003D00060470000340100207047704708B5FFF700
:1003E000FBFF6A46104B934202D2104902C3FAE760
:1003F00000220F4B0F49D3188B4204D20E49895863
:1004000004321960F5E70D4B0D4A934202D20022E7
:1004100004C3F9E7FFF7E1FF00F0F0F80AF014F881
:1004200000F012F908BDC046B8520020FEE7FEE712
:1004300000000020A800002068C70000A8000020DD
:10044000B452002008B50420014900F083F9C046E9
:10045000F0B700000E490F4A0F4B6846904203D890
:10046000984201D9002102E0091C8D460121042097
:100470007246024202D1EFF3088001E0EFF30980F7
:10048000F0B444464D4656465F46F0B46B4605E030
:10049000B85400200080002000080020F0B58BB088
:1004A000041C08920993002903D027480AF0A8F8F1
:1004B00046E0051C0368C769029343688669039395
:1004C000836824350493C3680593036906934369DD
:1004D0000793BB0500D4043D1C480AF091F8059B26
:1004E00002990093039A049B194809F0F3FF331C07
:1004F000079A06990097174809F0ECFF16480AF08A
:100500007FF80899154809F0E5FF15480AF078F8D2
:10051000311C144809F0DEFF099B1E1C201C826858
:10052000C36801698C4641698E46AD46311CF0C9ED
:10053000A046A946B246BB46F0C94168006801BE64
:100540000520094900F006F9FCB700002BB80000AF
:1005500046B8000083B80000C1B80000C6B800006B
:10056000D8B8000009B9000031B9000008B506206C
:10057000014900F0EFF8C04644B9000008B503484F
:1005800000F08EFC024800F0C5F808BD0400002011
:10059000C001002007B5064800F092F80023E121D1
:1005A0000093181C4902034A00F0FAFA07BDC0463E
:1005B000C00100207D05000038B5051C0C1C064854
:1005C000291C221C00F056FC002803D1034800F02F
:1005D00077F8F4E738BDC04604000020C0010020D1
:1005E00070B50D1C041C4618B44205D021780020BB
:1005F00000F052FA0134F7E7281C70BD08B500F08E
:10060000A1F980220421044B12039A609A615333AA
:100610001A788A431A7008BD0044004108B500F0FA
:10062000F9FC034809F056FF00F04EFC002008BD1D
:1006300052B9000008B5034B01201B6800F0F6F921
:10064000F9E7C046C80800201FB50024FFF738FEB0
:1006500080210D4B019400930C4B49001B680F2225
:1006600002930B480C2300F0D7F8C021094B0194EA
:100670000093094BC9001B680722029307480C230B
:1006800000F0CAF8FFF774FE3506000014000020E1
:10069000C80100201D06000018000020C80200202C
:1006A00010B5041C2168002907D1201C012200F08C
:1006B00031F90028F6D0012000E0002010BD000034
:1006C000F0B585B0041CFFF7EBFF00281ED1FFF743
:1006D000F7FD051C201CFFF7E3FF061E03D0281CB6
:1006E000FFF7F6FD12E00A4F02213868FFF752FDCE
:1006F0003B68201D1A8901A902920393019600F01C
:100700005AF8281CFFF7E4FDFFF736FE05B0F0BDF0
:100710003401002038B5051CFFF7D2FD2B68041CFE
:10072000002B05D0281D00F03FF8002804D12860D8
:10073000201CFFF7CDFD0BE085680721281CFFF783
:1007400029FD2D89201CFFF7C3FD281CFFF756FD4E
:1007500038BD00000F4B10B51A680C1C002A15D1CB
:1007600001321A60032803D171460B4809F0B2FE2A
:100770000A4809F045FF201C09F042FF00F01CFB6D
:10078000074809F03DFF074809F03AFFFFF798FDD9
:1007900000F0D2F8CC080020C3B90000C7B90000AF
:1007A000C0B80000DDB900000368002B01D01A6852
:1007B0000260181C70470368002B09D05A689446E1
:1007C0004A68944502D90B60016003E0181CF2E707
:1007D00001600B607047000008B5FFF771FD084B22
:1007E0001B689A88052A05D91B89064A9B009958D7
:1007F00009689950FFF76CFDFFF7BEFD08BDC046C4
:100800003401002038010020031C1A689A4201D1EB
:100810000433FAE7181A7047F0B587B0051C029147
:10082000059203930F2A68D803230340191E029BE5
:1008300004D00422531A029AC518D31A0322383B53
:1008400093430493EC18039B1B0705D52B1CA34271
:1008500003D21B600433FAE72D60FFF731FD01235B
:10086000071C9AB20192274A99005658002E29D1A6
:100870006B469B888C500C982A1CE3800D99049B36
:10088000FFF72EFD029BE56263630E9B012123634C
:100890006B469D8A01231C4A5B4263621368206099
:1008A00001331360039B2581A680E66026616661A3
:1008B000A661E6612662A6620B420BD0201CFFF700
:1008C00069FC15E00133212BCBD1381CFFF700FD6B
:1008D0000E4813E0201C0721FFF75CFC039B5B071D
:1008E00006D4381CFFF7F4FC281CFFF787FC02E055
:1008F000381CFFF7EDFC019800E0054800B207B096
:10090000F0BDC046AC0000207801002075FF00005B
:10091000EAFF000070B5041C0E1C151CFFF7D0FC8C
:100920002368B34203D0FFF7D3FC002003E0256027
:10093000FFF7CEFC012070BD08B500BE042000F01A
:1009400075F8FBE710B502242D4A1378A343137002
:1009500000F09AFB0E2210212A4B2B489A619A69CB
:100960000A439A614268224342609A698A439A61C3
:10097000264B274A196A0A4080211A621A6A8A435A
:100980001A621A6A40398A431A621A6A22431A6240
:10099000DA681207FCD501211E4A117050781D49F2
:1009A00040B20028FADB1C4888601C4848601C489C
:1009B0004880517849B20029FBDB2F2199640F3917
:1009C000D964184B1E391970174B1B789B07FBD045
:1009D00080235B00936084235B02536053785BB297
:1009E000002BFBDB0321E023DB000B439BB2538096
:1009F0005378DB09FCD101312329F4D110BDC04665
:100A00000010004000040040004000410008004089
:100A1000FFFCFFFF000C0040010800000106010080
:100A20000141000044080040500800400020704789
:100A300038B5164AC3B21B019C58237E5B0709D503
:100A40000C235843124A218D14188358C9B2A06848
:100A5000984714E00225237E2B420AD00C235843EA
:100A60000B4B1818436880689847002807D12575F4
:100A700005E0237E5BB2002B01DA80232376054B51
:100A80001B68002B01D0FFF7A7FE38BDECB90000B2
:100A9000D0080020A8000020044B0001C35801200A
:100AA0001A7E0242FBD089B219857047ECB900006A
:100AB00004220B4B0001C35810B5DB045B0F9C1ED6
:100AC000A24008481233016A0A4302628022D2011E
:100AD0001343054A538053785BB2002BFBDB10BDF8
:100AE000ECB9000000040040000C0040F7B50128FC
:100AF0004DD8284D0301071C27485C59019309F084
:100B0000C1F8061C381CFFF7D3FF0021019B0A1C0B
:100B1000ED186F68381C00F08EF82B7B381C191C00
:100B2000019300F06BF8AD6801210022281C00F051
:100B300082F8281C019900F061F801232360E36921
:100B4000DB07FCD4154B301C23600A2109F020F987
:100B5000072319404B03A189301CC904C90C194350
:100B6000A1810A2109F08EF8C004C30CA089400BB2
:100B700040031843C0239B02A08163600423E06903
:100B80001840FBD1022223681343236001E00120B7
:100B90004042FEBDECB9000080C3C90104201040F2
:100BA00070B5041C161C1D1CFFF7A0FF002814D1F3
:100BB0000C236343094A24019E50D318049A5D60B4
:100BC0009A600422064BE3589A75DB045B0F0733E7
:100BD000033A9A40131C034A136070BDD0080020EA
:100BE000ECB9000000E100E008B50020FFF720FFAD
:100BF00008BD08B50120FFF71BFF08BD70B5012235
:100C00001F23051C9D430340104080008140EC18C9
:100C1000403413412678EB1816430E328240081CEC
:100C2000267030331C7894431C701A781043C0B27D
:100C30001870002070BD1F2330B5041C18409C4361
:100C40001E3B8340012A0DD0002A11D0022A12D166
:100C500004252218403263611570012910D101204A
:100C6000404215E0042522184032A361157002E0CD
:100C7000251840352A70012902D1A360636106E07E
:100C80000222201863604030037813430370002071
:100C900030BD0000F8B5C405A40F012C49DC1F25A8
:100CA000640105406419254D665D74B2651C42D02F
:100CB000071C2348151C0A1CE1000B50069B411819
:100CC0004B60381C0021FFF7B6FF0021381CFFF7EE
:100CD00095FF40211B4A93690B4393611A4B1B4AB2
:100CE0005A805A78D209FCD107210F20314089005F
:100CF0008D408840E310164A9B009B189A69291C76
:100D000082439A611022986901439961114B1A60DC
:100D10000123A3401C1C0E4B1C615A6922435A61DB
:100D20000222DC601A705A7852B2002AFBDB0024DF
:100D300001E001246442201CF8BDC0460CBA00004A
:100D4000E808002000040040000C004005400000BE
:100D50000018004000E100E01F23021C9A430340FA
:100D600001209840906170471F23021C9A43034062
:100D7000012098405061704710B500240123A34022
:100D80000A4A1169194206D01361094BE200991809
:100D90004868D35898470134102CEFD1054B1B6895
:100DA000002B01D0FFF718FD10BDC0460018004011
:100DB000E8080020A8000020F0B500268DB02249E8
:100DC00002220BA809F075FB20482149214A09F0AD
:100DD00081FB214F07963C68002C24D0A388656BCB
:100DE0009A0008931D4BE06AD3580993079B5B193F
:100DF0000793FFF709FD089A2D1A0623E15E76197D
:100E00000123052A00DC00230BAAD31800932389B1
:100E100013480193636B03950293E36A0493226B77
:100E2000099B09F057FB0F4B04379F42D3D10E4B60
:100E3000079A009301920296191C0C4A0C4809F07B
:100E400049FB0DB0F0BDC0464CBA00004EBA0000E0
:100E500087BA00008CBA0000B00000201C000020FF
:100E600092BA000030010020E3BA0000E5BA0000A9
:100E7000C5BA000030B5141C002C0FD08568C368BB
:100E80009D420BD08568013C6B1C83604368013B2D
:100E90002B400568EB5C0B700131EDE7101B30BD9A
:100EA000C26830B543688468121B9A4208D0C26891
:100EB0000468013B551C1340C560E154002001E06B
:100EC0000120404230BD000010B5082488B00F4812
:100ED00009F096FB221C04A80D4909F0EAFA02A8C1
:100EE0000C49052209F0E5FA221C06A80A4909F076
:100EF000E0FAFA239B00009304A802A906AA0223A1
:100F000000F00CF8002008B010BDC0462ABB00005D
:100F100051BB000059BB00005EBB0000F0B58DB0B6
:100F200003900C1C08A803990492059305F056FF42
:100F3000002801D12E4807E0201C09F07FFA83B277
:100F4000051C002B03D12B4809F05AFB4DE007AAE2
:100F50001B0A5370002310700293029B059A934260
:100F600043D0049809F08EFB021C00200499031C56
:100F700003F0D8F9041E01D11F48E5E7022207A9B2
:100F800000920B1C05F082FE071E04D11B4809F0DD
:100F900037FB201C19E01023002100930A1C08AB2A
:100FA00000F01AFD061E04D1154809F029FB381C73
:100FB0000BE004201349144A331C02F08FFF002871
:100FC00006D1124809F01CFB301C03F0A5FA0CE016
:100FD000ABB2E168039A0E4809F07CFA129800213E
:100FE00006F004FC029B0133B6E70DB0F0BDC0462D
:100FF00066BB000091BB0000B9BB0000E5BB000070
:101000000ABC00000000FFFF0202000030BC00002C
:1010100053BC000008B506F0DFFC03F067F903F0ED
:1010200079FB03F09FFC00F0CDFA05F055FE00F0CF
:1010300003F801F04FFA08BD1FB50C4B0C4C0093A0
:101040000C4B201C01930C4B0021029302220B4BF2
:1010500006F068FE002807DB802100940848C900DC
:101060000322084B03F08AF81FBDC04680440041AC
:10107000680D0020144400418F4400419F4400410A
:1010800068090020D7BD0000134A144B116A30B51F
:101090000B408021C9030B4380211362D369C9052A
:1010A0001B021B0A0B430021D3618B080C4A9B00D7
:1010B0009B180322FF20C0240A40D2009040A400C5
:1010C0001D590131854340209040021C2A431A518A
:1010D0001C29EAD130BDC04600ED00E0FFFF00FF53
:1010E00000E100E010B5031C041E8C4204D14468EA
:1010F00008E08A4204D0131C5A68002AF9D101E0A2
:101100004A685A600023081C4B6003F005FA201C53
:1011100010BD38B5151C02F081FF041E0DD0082348
:10112000E05E291C02F012FF002802DC281C03F0FC
:10113000F3F9201C02F09AFFEFE738BD38B58B6851
:10114000051C58800C1C01F06FF8002803D10330F7
:101150001449FFF7FFFA00226368002B03D0D96817
:101160005B685218F9E7CD33FF33C35A9A4203D96B
:10117000201C03F0D1F913E0E5235B00C35A0120E2
:10118000034207D00849094A231C02F0A7FE0028A1
:1011900006D1EDE7281C211C02F0CCFE0028E7DD7B
:1011A00038BDC046B1B900000000FFFF02020000D8
:1011B000F8B5051C0F1C161C00238C68002A03D0F0
:1011C000D16852685B18F9E75BBA9BB223711B0ABE
:1011D0006371A379FF2B0AD1337C023BDBB2022B74
:1011E00003D8584AD35CFF2B00D13B23A371E3798A
:1011F000002B09D14033002D05D0281C01F014F834
:10120000E7235B00C35CE371627A207A1202024337
:10121000111CA27AE37A12040A431B061343627B71
:101220009C46207BA37B120202431B0413431A1C1F
:10123000E37B1B0613436246134368D1627C207C28
:1012400012020243111CA27CE37C12040A431B0617
:101250001343627D9C46207DA37D120202431B0442
:1012600013431A1CE37D1B061343624613434ED1FE
:10127000627E207E12020243111CA27EE37E1204D3
:101280000A431B061343627F9C46207FA37F120202
:1012900002431B0413431A1CE37F1B0613436246DD
:1012A000134340D1631CD87FA31CDA7FE31CDB7F90
:1012B000120202431B0413431A1C231DDB7FA11DD2
:1012C0001B061343C97F621DD27F09021143E21D31
:1012D000D27F1BBA12040A43111C221C0832D27F8F
:1012E00012060A4312BA012A1DD1002B1BD1237208
:1012F0006372A372E37223736373A373E373237440
:101300006374A374E37423756375A375E275301C6D
:10131000391C02F0B6FE031C0020834210DA9A1C2E
:101320000ED0181C0CE0211C281C183101F02FF8DD
:10133000011EECD0201C1022083009F0BAF8E6E7B4
:10134000F8BDC046E5BD00001023F0B589B000AF80
:101350007960C356041C01330AD183685D8803F0A9
:101360000BF9002800D117E14368041CFB6001E081
:101370000025F860F86803F0FFF8061E00D10BE1C5
:10138000FB68A34201D0606000E0041CB36872688F
:10139000197EFA60FF2935D1002D1DD110220823B6
:1013A000BA18D01802F01EFE002800D1F4E0002088
:1013B0000123011C08225B423D8B02F0B3FF002891
:1013C00000D1E9E0002283681A705A705A805A717D
:1013D0009A711A714460041C7B682DB2002B07D0EF
:1013E000281C311CFA68FFF7E3FE002800DAD3E07E
:1013F0004021A268281C13790B431371211CFFF7AD
:101400009DFED9E05A7E120211439A7E12041143C6
:10141000DA7E12060A43597F94461A7F0902114365
:101420009A7F12040A43111CDA7F12060A436146AE
:101430000A4327D15A1CD07F9A1CD27F1202024342
:10144000111CDA1CD27F12040A43191DC97F090638
:1014500011435A1DD27F081C94469A1DD17F6246C3
:1014600009020A43111CDA1DD27F120411431A1C0F
:101470000832D27F12060A4312BA01BA012A01D1F8
:1014800000290AD01833BB60002D36D11423B96867
:10149000F81800F045FF051E35D07B68002B06D0FC
:1014A00028B2311CFA68FFF783FE002874DB311C78
:1014B0000022CB684968D2180029FAD1081C0223FF
:1014C00002F030FFF860002866D0FB689D68281C99
:1014D000B168F26808F0EDFFF3687668ED18002E49
:1014E000F5D1201C03F018F8354BF9680020185E80
:1014F00002F02CFD00285FDC4EE028B2B96800F055
:10150000EFFE0028C9D16B4610213B6008237918F3
:10151000C818FB740B332AB2F918BB6804F002FE3A
:10152000051E3DD07B68002B05D0311CFA68FFF703
:101530003FFE002834DBFB7CFB601023E3560133C5
:1015400004D1201C211CFFF7CDFD041C0020012329
:10155000FA68011C08325B4202F0E4FE061E1FD04E
:1015600000228368397B1A7059705A805A719A71B7
:101570001A71FB68934219D08368F9685A788A42D5
:1015800014D118781022083018180823BA18D11866
:10159000FA6808F08EFF09E0201C02F0BDFF0BE0A6
:1015A000201C02F0B9FF3B689D4605E07460281CD2
:1015B000311CFFF7C3FDF6E7BD4609B0F0BDC046DC
:1015C000A40D00201FB50E4C0022A35E002B0CD1F1
:1015D00080210C4A01930C4B009202930B48C900E6
:1015E00004220823FFF718F920800948094B0360FB
:1015F0001423436007F0CCFC0023E05E04B010BD70
:10160000A40D0020CD180000E0BD0000A60D0020B4
:101610009C0D0020A811002070B502230C1C151E83
:10162000292D07D001333A2A04D0131C113B5A420A
:1016300053419B002374292D05D03A2D15D1211C2F
:1016400007F0F4FC11E0002323746168002907D03F
:101650001023CB56022B03D1201CFFF743FDF4E7E8
:101660000223201C237400F023F810200F49205679
:1016700002F0E6FC291C061C022002F0E1FC3018F6
:10168000002803D1201C02F047FF0EE0411E201C61
:1016900002F02EFF102005492056221CFFF739FDCD
:1016A0000220291C221CFFF734FD70BD0000FFFF43
:1016B000F8B5061C051E06D103208249FFF74AF83B
:1016C0006D68002D05D01023EB560133F8D1AB68BF
:1016D0005D887768002F0ED01023FB56022B0AD1AD
:1016E000FB68282B07D10F22BB681B789343602B24
:1016F00000D0BEE014E00F22B3681B789343602B48
:1017000000D0B6E0301C02F037FF041E00D1B0E07C
:101710002821022202F024FE261C071E00D1A8E088
:10172000BC68617923790902194349BAF36889B21F
:10173000994202D2301C02F089FE627E207E1202A3
:101740000243111CA27EE37E12040A431B061343CC
:10175000627F9C46207FA37F120202431B04134337
:101760001A1CE37F1B0613436246134326D1631CF6
:10177000D97FA31CDB7F1B020B431A1CE31CDB7FFE
:101780001B041343221DD27F12061A43631DD87F08
:10179000A31D9446DA7FE31DDB7F120202431B0484
:1017A00013431A1C231C0833DB7F1B0613436246BA
:1017B0001BBA12BA012B01D1002A5ED0211C1831AC
:1017C000002D06D1281C00F0ABFD051C68426841C5
:1017D00005E028B200F084FD031C58425841C0B215
:1017E00000284AD0637A217A1B020B431A1CA37A81
:1017F000207B1B041343E27A12061A43151C627BFA
:10180000A37B120202431B0413431A1CE37B1B0637
:1018100013432ABA002B02D12B4B9A4229D0237AA8
:10182000FF2B04D1627AF03B1340022B21D0637E60
:10183000217E1B020B431A1CA37E207F1B04134333
:10184000E27E12061A43151C627FA37F1202024336
:101850001B0413431A1CE37F1B0613432ABA002BF5
:1018600011D0237EFF2B12D1627EF03B1340022B5E
:101870000DD1301C02F050FE23E028B2A279311CB9
:10188000FFF7CAFE1DE0104B9A42EAD1F1E7E37977
:10189000013BDBB2E371002BEBD0301C02F06CFE9D
:1018A000051C381C02F068FE041EE2D0002DE0D0BA
:1018B000406802F031FE00216560201C6960FFF77E
:1018C00043FDF8BDB1B90000000080FE30B599B00D
:1018D000082108A807F052FA3B4B05A94B603B4B87
:1018E00002201B8803AD0B8102F088FB384B6B8014
:1018F00001AC201C07F03CFA6088364BC018232846
:10190000F6D808F0A1F912161B1BF5F5F5F5F5F55B
:10191000F5F5F5F5F523292EF5F558F532F5F5F53C
:10192000F5F5F5F5F5363A3E474B6068FFF7C0FE32
:10193000DEE760680121FFF707FDD9E78623201C59
:101940005B42291C6B6007F0EBF9D1E70821626864
:10195000537E8B435376CBE70020616800F0ACFCEC
:10196000C6E7606801F0EAFAC2E7606801F070FB60
:10197000BEE7606804F03CFBBAE7606804F078FBFF
:10198000B6E76368587C0F23184003F05FF8002324
:101990000374ADE7606804F0C3FEA9E73023616813
:1019A0004A7E1340202B01D0302BA1D11A23C85ED0
:1019B00000F0BCF99CE7002162681A23D05E0B1C82
:1019C00001F0C6FF94E7C0460000FFFF3001002091
:1019D00005020000FFFDFFFFF7B508AC2678151CD7
:1019E0001024A54301D0002063E0351CA543FAD1A3
:1019F000019300920F1C2822291C022302F092FC62
:101A0000051EF0D08468002F09D0009B002B06D063
:101A1000201C391C1A1C083008F04BFD10E0002374
:101A200023726372A372E37223736373A373E3730A
:101A300023746374A374E37423756375A375E375EA
:101A4000271C1022183730013818921B002108F08B
:101A500039FD019B002B07D0002E05D0381C191C26
:101A6000321C08F026FD1AE00023621C2376637600
:101A7000A376E37623776377A377E377D377A21C04
:101A8000D377E21CD377221DD377621DD377A21DB3
:101A9000D377E21DD377231C01220833DA77602243
:101AA0000023281C22709F326370A370E370A27120
:101AB000E371FEBD70B54378047886781B0223433A
:101AC0003604191C331CC2780B4312061A43161C29
:101AD0004179057983790902C27929431B040B43B3
:101AE0001206191C131C321C0B431A4300239A4282
:101AF0001AD1427A047A857A120222432D04111CEB
:101B00002A1CC37A0A431B061343427B1D1C047B19
:101B1000837B120222431B0413431A1CC37B1B0644
:101B200013432B4358424341181C70BDF0B589B094
:101B30001F1C0EAB1B7804900C1C029203930D1E0D
:101B400000D190E00025082F00D98CE0081CFFF799
:101B5000B1FFA84200D086E0637821781B020B43D6
:101B60001A1CA37821791B041343E278061C120681
:101B70001A43637906921B020B431A1CA379019046
:101B80001B041343E27912061A430792374BB42021
:101B90009C46019B0699584363461D182A686B684A
:101BA0008A4230D1079A93422DD1EB68227A05936D
:101BB000637A1B021343A27A191C1204131CE27AE3
:101BC0000B4312061A43637B217B1B021943A37B41
:101BD0001B040B43E17B09060B43A968914212D118
:101BE000059A9A420FD1029B002B3CD0002F3AD08D
:101BF0001030604402993A1C08F05BFC6B461B7B7A
:101C00002F766B762FE0281CFFF754FF002802D0B8
:101C1000002E00D12E1C019B01330193082BB5D15E
:101C2000351E20D06B461B8A301C7383211C10226A
:101C300008F03FFC029B002B08D0002F06D0301C80
:101C4000191C10303A1C08F034FC37766B461B7BAD
:101C5000039A737607231A40022A03D1331C032206
:101C6000B0331A70351C281C09B0F0BD28140020B0
:101C7000F8B50B1E56D0051C081C0C1CFFF71AFFEC
:101C8000002398424ED1B422111C4143264B5918CF
:101C9000498B002904D0002D02D009B28D423DD1DC
:101CA00042439B185A68267894466278A7781202B5
:101CB00032433F04111C3A1CE7780A433F0661791E
:101CC0001743227909021143A27912040A43111C15
:101CD000E27912060A431968B9421FD194451DD111
:101CE000DA68267A9446627AA77A120232433F046F
:101CF000111C3A1CE77A0A433F06617B1743227B9B
:101D000009021143A27B12040A43111CE27B120652
:101D10000A439968B94201D1944503D0013008289B
:101D2000B1D10023181CF8BD2814002010B5FFF70E
:101D30009FFF041E19D0703005F03CFD201C8C3034
:101D400005F038FD002323706370A370E3702371E6
:101D50006371A371E37123726372A372E3722373DD
:101D60006373A373E3736383637610BD38B50B4D60
:101D70002C1C002808D0B430041C05E0201CFFF700
:101D800099FE002807D0B434B423DB00EB189C4242
:101D9000F4D3002000E0201C38BDC04628140020E9
:101DA00008B5FFF7E3FF002802D0437E1B07F8D5F4
:101DB00008BDF0B54378021C04781B022343181CAD
:101DC000937814791B040343D0789779000618435D
:101DD00053793F041B0223438446181C3B1CD779CC
:101DE00003433F061F434B780C788E781B02234336
:101DF0003604181C331CCE780343360648791E433C
:101E00000D798B79000228431B040343181CCB79FE
:101E10001B060343B44536D19F4234D1537A157A19
:101E2000967A1B022B4336041C1C331C2343547B21
:101E3000107B977B240204433F04251C3C1CD67A6C
:101E40002C4336061E43D37B4A7A1B0623431F1CB2
:101E50000B7A12021A43141C8A7AC87A120422439B
:101E6000000610434A7B0D7B8B7B12022A431B0426
:101E700013431A1CCB7B70401B0613437B40184353
:101E80004342584100E00020F0BD70B5437804782B
:101E900086781B0223433604191C331CC2780B437B
:101EA00012061A43161C4179057983790902C27911
:101EB00029431B040B431206191C131C321C0B4331
:101EC0001A4300239A421AD1427A047A857A12027E
:101ED00022432D04111C2A1CC37A0A431B061343F8
:101EE000427B1D1C047B837B120222431B04134391
:101EF0001A1CC37B1B0613432B4358424341181C37
:101F000070BDF7B5061CC136FF36071C301C0191A9
:101F10000025FEF7D5FB38246C433C19201C0199A1
:101F2000FFF747FF002806D0002323606360A3600B
:101F3000E360237402E00135082DECD1301CFEF77C
:101F4000E9FBF7BDF0B589B00393031C061C0C1C1C
:101F5000071C0025C133FF3302920193381C211C5A
:101F6000FFF727FF002800D09EE0381CFFF78DFF09
:101F7000002802D0002D00D13D1C019B38379F4224
:101F8000ECD10195002D00D18FE0281C211C1022DE
:101F900008F08FFA6B461B7A6B746B461B7B2B74B5
:101FA0002B78FF2B1AD0E5235B00F35ADB0715D5FE
:101FB00001F004FB071E11D0331CC133FF33181C82
:101FC0000293FEF7A7FBE4235B00F05E291C3A1C9A
:101FD0003B1C01F0ADFB0298FEF772FB2378FF2B50
:101FE00004D101222B7C13432B745EE062782079AC
:101FF00012021343A27812041343E27812061A4322
:10200000171C6279A379120202431B0413431A1CA2
:10201000E3791B0613433ABA002B02D1244B9A42B0
:102020001BD0E52706237F00F25B1340062B19D156
:10203000351CC135FF35281CFEF76CFBF35BDB0755
:1020400007D5E42300215B00F05E0A1C0B1C01F0A5
:102050007FFC281CFEF734FB04E080222B7C5242DC
:1020600013432B74E5235B00F25AC83BFF3B13403C
:10207000012B1AD000230F4A211C049205938023C0
:102080005B040693FF230E2004AA1373637B0E31B7
:1020900053738018022208F00CFA301C04A9802225
:1020A0000023FFF74FFF00E00197019809B0F0BD52
:1020B000000080FEFF02000030B5021C002906D09F
:1020C0000378FF2B03D14078F03B184039E0537878
:1020D00010781B020343191C937814791B040B43DB
:1020E000D178090619430D1C5179937909022143CE
:1020F0001B040B43191CD3791B060B4329BA002B75
:1021000003D1104B022099421BD01178FF2904D132
:102110000F2350781840022813D0137852780A4CB5
:10212000100203433F205BBA9BB283433A38A34279
:1021300007D00E20FF2904D101301040052800D01F
:102140000E2030BD000080FEC0FE0000F7B5002567
:10215000071C0C1C2E1C01920093009B002B09D025
:1021600001231A1CAA400099097811421BD0227C35
:102170001A4218D1201CFFF788FE002813D1201C1A
:10218000019904F0E0FD009B002B06D1019B1B7818
:10219000FF2B02D0637C834205D8B04203D9061CD2
:1021A000002F00D03C6001353834082DD5D1301CCB
:1021B000FEBD0000E423F0B51A4C5B00E55A85B083
:1021C0002BB2071C83422BD0002D29D1291C1022B1
:1021D0006846261C08F076F96A46FF23C13613705C
:1021E000FF36FD3B5370301C013BD373FEF768FA9A
:1021F000E423A0225B00E752D2000433E2524022E3
:102200000233E254043BE552694692182B1C201C11
:10221000FFF798FE301CFEF77DFA201C00F026FF29
:1022200005B0F0BDC8190020E423044A5B00D15E6C
:102230000023814200D1131C181C7047C8190020CC
:10224000E5225200835A10B5DC0706D50224002986
:1022500001D0234300E0A343835210BD08B5E5231A
:102260005B00C35ADB0701D504F00CFA08BDF7B5D3
:102270000C1C171C0193FFF7D7FF051E1BD0201E57
:1022800019D0FFF702FE031C0020834213D1181C53
:10229000802F10DC2E1CC136FF36301CFEF710FAE2
:1022A000211C3A1C019B281CFFF74CFE041C301C0F
:1022B000FEF730FA201CFEBD10B50C1C002806D11C
:1022C000E42306485B00C35E002B05D001E0FFF766
:1022D000ABFF211CFFF715FE10BDC046C81900203A
:1022E000F8B50F1CFFF7A0FF051E16D0061CC1365F
:1022F000FF36301CFEF7E4F9281C391CFFF759FDA6
:10230000041E03D0301CFEF705FA06E03835AE4255
:10231000F2D1301CFEF7FEF9251C281CF8BD000088
:1023200070B5E424094D6400061C285F002E05D119
:10233000FFF7D6FF002805D1002004E0FFF7D0FF0B
:102340003060F7E7285B00B270BDC046C8190020B6
:10235000F7B500240F1C0194FFF766FF051C061C4F
:10236000C135FF35281CFEF7ABF9231C01A8311C31
:102370003A1CFFF7EBFE041C281C002C03D0FEF7D0
:10238000C9F9019802E0FEF7C5F9201CFEBDF0B5C1
:102390008BB00291FFF748FF031CC133FF3300905D
:1023A000181C0393FEF78CF906A80021012208F0FF
:1023B00089F8009F01233D1C00245B4201932B7888
:1023C000FF2B0CD0281CFFF760FD002807D101234C
:1023D000A34006AA12780194134306AA137001348D
:1023E0003835082CEBD1019B002601336CD0221C20
:1023F000311C08A808F066F802980121FFF75CFE7E
:10240000341C351C06AB1B78049005930123AB40AC
:10241000059A1A422FD00299381CFFF7CAFC3E1CBD
:10242000011E4AD1381CFFF747FE049B984208D191
:1024300008AAAB5C0433DBB2AB54A3420ED904242C
:102440000CE0049B984209D208AAAB5C0233DBB2D1
:10245000AB541A1CA34200D2221CD4B2BB69002B7D
:1024600009D008AAAB5C0133DBB2AB54221C9C42FE
:1024700000D21A1CD4B201353837082DC6D1022239
:1024800006A8002108F01EF806AB1A78002308A958
:10249000595CA14203D1012199400A43D2B20133D0
:1024A000082BF4D106AB1A70002307A807930099F4
:1024B000029A06ABFFF74AFE079E002E04D1019B4D
:1024C00038365E43009B9E190398FEF723F9301CB3
:1024D0000BB0F0BDF0B58FB007A801F083FD00236D
:1024E000059007AC0393039B059A934200D1B0E09B
:1024F0000023E05EFFF798FE051E00D1A4E0031C58
:102500000B27C133FF33181C0493FEF7D9F804AB33
:10251000FF1800260023E05E01233E700E21009389
:10252000321C3B1C01F01EFD86302CD00023FB56D4
:10253000012B28D10822032008AB1A800AAF093AE0
:102540003A800399039A490252015218CB32424908
:10255000FF328A181188014311800022A05E0222F6
:1025600005210092321C01F013FD0023E05E0223DE
:1025700009210093321C3B1C01F0F4FC0023E05EB7
:10258000398804F083FA0023E05E082308AE009344
:1025900007210022331C01F0E5FC002803DA04982F
:1025A000FEF7B8F850E033780AA90B7273782B4A1B
:1025B0004B72B378281C8B72F378CB7233790B7320
:1025C00073794B73B3798B73F3790E26CB73002336
:1025D0000A920B9300234022FFF7B4FC0023E05E35
:1025E00004ABF6180223092100930022331C01F0EA
:1025F000B9FC002806DB3388194A934202D9E62247
:102600005200AB520023E05E042318210093002205
:10261000331C01F0A7FCE5235B008021EA5A002867
:1026200001DD0A4300E08A43EA520498FEF772F89B
:10263000281C0121FFF704FEE5235B00EB5ADB07B2
:1026400002D5281C03F0AEFC039B02340133039334
:1026500049E70FB0F0BDC046C8190020FE80000059
:10266000FF040000F0B587B0071C0391161C1C1C6A
:10267000863352D0FFF7FCFA051E31D1381CFFF724
:10268000D3FDE52303215B00C25A23040A408A429A
:102690001ED1142204920F3200921B0C381C039995
:1026A000321C0595FFF742FA041E36D0051C8C3506
:1026B000281C05F07FF81A4B281C00229B5E8922FB
:1026C0009200009201940499059A05F053F824E0D1
:1026D00000911B0C381C0399321CFFF727FA1CE0F1
:1026E0000723427E1340012B0BD0071C027EA3B2AE
:1026F00010379A420AD02C76381C311C221C07F065
:10270000D8FE281C032101F079F806E0301C391CA2
:10271000221C07F0BFFE0028EDD107B0F0BDC04677
:10272000A40D0020F7B5041C0F1C04F05BFEEA2387
:102730005B00E7500A2107F02BFB481D78430A2174
:1027400007F0A0FAEC266D467600021C00216846D0
:1027500004F0C8FFA31906CD06C3A5196F68064982
:10276000381C07F08FFAA3590349C018A051381C30
:1027700007F00EFB6960F7BD40420F00F0B5D57958
:1027800095B0FF2D00D00DE15D78002D00D009E15E
:102790001A9C172C00D805E11D7AFF2D00D101E10C
:1027A000567A157A36022E43D57A371C2D062C1C04
:1027B000967A157B36043E433443567B36022E43CD
:1027C000957B2D0435432E1CD57B2D0635432543A3
:1027D00045D1567C157C36022E43D57C371C2D0600
:1027E0002C1C967C157D36043E433443567D3602C0
:1027F0002E43957D2D0435432E1CD57D2D06354366
:1028000025432CD1567E157E36022E43957E577F6A
:102810002D0435432E1CD57E3F022D063543167FF1
:102820002DBA3743967F36043743D67F36063E436C
:1028300015D15D4EB54212D1961C551CF67FED7F29
:1028400036022E43D51CED7F2D0435432E1C151D5D
:10285000ED7F2D0635432DBA012D00D19DE00B9162
:10286000191C08311F1C06920590FFF739FD0A90CC
:10287000002800D196E00026341C1A9B0996183BCC
:1028800008930796089B002B1EDD079D18357D19C0
:102890002B78012B03D0212B0CD12C1C0AE00CAB84
:1028A0003A780B98009306992B1C01F0B7F9061E95
:1028B00078DB09956B78079ADB00D21892B2079201
:1028C000089AD31A0893DDE70598FFF7ADFC0028B6
:1028D00003D103303549FDF73DFF069D099B0835BF
:1028E000002B41D0002C3FD0E5235B00C25AC83BEF
:1028F000FF3B1340032B37D10CAB3A780699019379
:1029000002962B1C0094059803F012FD221C0F2147
:1029100008320023071C03F0EDFC061C002F05D134
:1029200010A8291C102207F0C4FD29E00221227AF8
:102930000EAB4A401A70627A5A70A27A9A70E27AA2
:10294000DA70227B1A71627B5A71A27B9A71E27BE8
:10295000DA710F9B0E9A1BBA1293002312BA1392CC
:10296000134A109211930BE0331C0598291C0CAAF2
:10297000FFF778FE10A8291C102207F09AFD002608
:10298000069B05981B7E0A99FF3B5A4253410096CD
:10299000DBB210AA00F036FE04E0551DED7FFF2DDE
:1029A00000D05CE715B0F0BD000002FFB1B9000037
:1029B000FE800000F0B51F1C08338DB00E1C191CE2
:1029C000089305900992129CFFF752F9099BDB7955
:1029D000FF2B00D0BBE07D78002D00D0B7E0172C96
:1029E00000D8B4E03B7AFF2B00D1B0E0002800D142
:1029F000ADE0183C07940695079B002B2CDD069C48
:102A000018343C192378022B0CD0212B15D100232C
:102A10003A7805980193029300940999089B03F072
:102A200087FC0AE00AAB3A78301C00930999231C12
:102A300001F02CF9051E00DA89E06378069ADB00C4
:102A4000D21892B20692079AD31A0793D4E71023AA
:102A5000F356013303D07668002EF8D100E0B66853
:102A600005980899FFF704F9041E70D00723427EE9
:102A70001340022B16D1002E05D03378002B02D044
:102A80007378002B3AD16B46201C9B8A2576638392
:102A900010300AA92A1C07F00CFD3B79201C5B06AC
:102AA0001FD519E0002E05D03378002B02D07378A3
:102AB000002B3DD10026002D03D1267E701E8641BD
:102AC000F6B23B799B061CD4002E1AD0002D25D1DE
:102AD0003B795B0602D5201C072103E0002E03D0C2
:102AE000201C032100F08AFE3979637E08227F29A9
:102AF00001D9134300E09343637628E0002DC2D14F
:102B000025E0002DE4D06B46201C9B8A257663834C
:102B10000AA92A1C103007F0CCFCD9E70723627EF3
:102B20001340072B13D1201C032100F067FE0EE099
:102B30002E1EC6D0237E00269D42C2D0201C0AA98C
:102B400010302A1C07F0A6FC46424641B9E70DB0FA
:102B5000F0BD0000F0B58BB01F1C061C059104925F
:102B6000FFF762FBE5235B00C35A051C9B0760D59A
:102B7000049BDB79FF2B5CD17C78002C59D1109B16
:102B8000072B56D9083B0293231C029A002A19DD11
:102B9000221C0832BA1803921278012A09D106AB16
:102BA0003A78059800930499039B01F037F8031EC7
:102BB0003FDB039A02995278D200A4188A1AA4B271
:102BC0000292E2E7049C301C0834211C06AAFFF79D
:102BD00049FDE5235B00EB5A5A072AD5DB0701D5EF
:102BE000154F00E0154F04F0FDFB391C07F0D0F83D
:102BF00008A80A1C002104F075FD81239B00EF1832
:102C0000381C04F0D7FDE5235B00EB5ADB0710D539
:102C1000301C211CFFF72CF800280AD0084B08991B
:102C200000229B5E074A01900092381C099A04F02A
:102C3000A1FD0BB0F0BDC04680841E0020A107009E
:102C4000A40D002015020000F0B593B00B91049282
:102C50001F1C0690FFF7E8FA049B041C5A7A1D7AA1
:102C60009B7A12022A431B0413431A1C049BDB7A2F
:102C70001B061343049A1BBA517B167B927B0902F5
:102C8000314312040A43111C049AD27B12060A43F0
:102C900000D04AE1A64A934200D046E1FF2D00D180
:102CA00043E1049BDB79FF2B00D03EE17B78002BD6
:102CB00000D03AE1189B0F2B00D836E1049B069810
:102CC0000833191C0A93FEF7D3FF08220390031E52
:102CD00009D1009206980A991A1CFEF727FF039063
:102CE00000280FD121E1039B5B7E134206D0F979C6
:102CF000B8790902014301D1934301E0082213434B
:102D0000039A5376FB79BA791B021343002205928A
:102D1000934219D0039D5BBA1C359BB2281C0593C6
:102D200004F048FD10A80599002204F0DBFC842281
:102D3000804B92001B880092039A1BB20192281CC0
:102D40001099119A04F016FD3B79002B02D0E7226E
:102D50005200A354E5225200A35A9B04990CA1529D
:102D60007B799B099B030B43A3527B7A387AB97A10
:102D70001B02034309041A1C0B1CF97A13430906AE
:102D8000194308D0EA235B00E35809BA8B4202D00A
:102D9000201CFFF7C7FC7B7B387BBA7B1B020343FD
:102DA0001204191C131CFA7B0B4312061A4319D088
:102DB000F0260CAD12BA7600281C002104F092FC1B
:102DC000A31906CD06C3A5196B685B49181C0793A8
:102DD00006F058FFA3595849C018A051079806F0AB
:102DE000D7FF6960201CC130FF30FDF793FC189BB2
:102DF000103B0893002307930993089B002B64DD85
:102E0000079D10357D192B78052B1CD004D8012B7C
:102E10000DD0032B1FD04EE0222B35D0232B4AD1CF
:102E20000698391C189A2B1C03F0B8FC43E00EAB33
:102E30003A780B98009304992B1C00F0EFFE099050
:102E4000002838DA71E0397806982A1C00F04EFF25
:102E5000002830D169E0397806982A1C00F06EFF0E
:102E6000002862D06A792879AB79120202431B04E8
:102E700013431A1CEB791B0613431BBA002B1AD001
:102E8000059A9A4217D915E03878291C03F08EFB71
:102E900000284AD0EE79AB7936021E4376BAB6B234
:102EA000002E08D005983C2106F0ECFE864202D2A6
:102EB0003C23734305936B78079ADB00D21892B2D8
:102EC0000792089AD31A089397E7099B06980A99DC
:102ED0000EAAFFF7C7FBE52301255B00E35A2B424F
:102EE00023D0201CE930FF3004F064FC0323059A52
:102EF000291C5343042B00D99908D0230025FF3304
:102F0000E554039803F0CAF9039B039A1A20185E4C
:102F1000291C131C00F00CFCE5235B00E35A9B0703
:102F200003D5201C0121FFF799F913B0F0BDC0466D
:102F3000000080FE3001002040420F000723F0B562
:102F4000427E8BB01A40022A01D0052A75D1071C97
:102F5000B0373D78041C012D6AD906AE022A11D182
:102F6000802300215B0408933548FF2306900791D6
:102F7000211C26203373637B68440E31737307F082
:102F800098FA05E0031C321C03CB03C203CB03C237
:102F9000013D3D70658B002D23D12A4B03A804957C
:102FA000059301F01FF8071CBD4209D06A0003AB6E
:102FB000D05E0021221C331C00F0BAFB0135F3E780
:102FC000251C3835281C04F0F5FB1F4B281C00225B
:102FD0009B5E1E4A019400920499059A04F0CAFB74
:102FE0002BE028B2FFF720F9051C1A23E05E331C02
:102FF0002E1C271CC136221C0021FF3600F098FB36
:103000003837301CFDF75CFB381C04F0D3FB0E4B4B
:10301000381C00229B5E0D4A01940092323AA95856
:10302000AD186A6804F0A6FB301CFDF773FB04E0E2
:103030001A23C05E211CFEF779FE0BB0F0BDC0461E
:10304000FF02000040420F00A40D00201202000009
:1030500008B50723427E1340042B03D00321072B1E
:1030600001D002E0052100F0C9FB08BD031CF0B54A
:10307000041CF027C133FF3385B0181C124D009398
:1030800002AEFDF71DFB201C1049FFF74BFB7F0034
:103090002A1C301C002104F025FBE31906CE06C3D0
:1030A000E6197368291C181C019306F0EBFDE3591F
:1030B000291CC018E051019806F06AFE0098716062
:1030C000FDF728FB05B0F0BD40420F0080C3C901E9
:1030D000F8B502780023FF2A5AD01A1C041C1833B2
:1030E000081C872106F01CF80022031E93424FD0D3
:1030F00083681A715A719A71DA7162782678A178A8
:10310000120232430904151C0A1CE1782A430906FD
:10311000657927791143A2792D023D4312042A4390
:10312000151CE279197212062A430D0A5D720D0C04
:10313000090ED972110A1A735973110C120E997370
:103140009D72DA73627A257AA77A12022A433F04C3
:10315000111C3A1CE77A0A433F06617B267B174322
:10316000A27B0902314312040A43111CE27B1F7443
:1031700012060A43390A5974390C99743F0E110A20
:10318000DF741A755975110C120E9975DA75031CD6
:10319000181CF8BDF8B50C780023FF2C5CD00C1C73
:1031A000051C8821101C1A1C183305F0B9FF031EDA
:1031B00052D01F229543002283681D71DA719A71E3
:1031C0005A7162782678A178120232430904151CDC
:1031D0000A1CE1782A430906657927791143A27907
:1031E0002D023D4312042A43151CE279197212067E
:1031F0002A430D0A5D720D0C090ED972110A1A7359
:103200005973110C120E99739D72DA73627A257AD2
:10321000A77A12022A433F04111C3A1CE77A0A4398
:103220003F06617B267B1743A27B090231431204D0
:103230000A43111CE27B1F7412060A43390A5974AF
:10324000390C99743F0E110ADF741A755975110CF7
:10325000120E9975DA75031C181CF8BD08B5852186
:103260000022082305F05CFF002805D000228368B7
:103270001A715A719A71DA7108BDC9B2073110B565
:10328000F823041C101C0A1C00211A400B1C01F01E
:1032900049F8002804D082681470C368DB085370B2
:1032A00010BDF8B50F1C161C911C1A1CFFF7E5FF8A
:1032B000041E0CD0836800219D1CC368281C9A1E24
:1032C00007F000F9281C391C321C07F0F2F8201C0A
:1032D000F8BD38B5051C0C1C131C291C221C012030
:1032E000FFF7DFFF38BD38B5051C0C1C131C291C6B
:1032F000221C0220FFF7D5FF38BDF8B5071C0E1CB5
:10330000151C1C1C079886210022102305F008FFBD
:1033100000281AD03F22836824BA9643220A5A72A0
:10332000220C9A72069A6DBA12BA110AADB29D7148
:103330001C722D0A240E1A735973110C120E1F7170
:103340005E71DD71DC729973DA73F8BDF7B5071C35
:103350000E1C141C03202021099A0193FFF78DFFF6
:10336000051E2FD03F239E430023806824BA220AE3
:103370004271220C8271019A047112BA110A02720E
:103380004172240E110C120E8172C2728770C670C7
:10339000C471037343738373C3730374437483747B
:1033A000C374037543758375C3750376437683765B
:1033B000C376037743778377C377089910303A1C35
:1033C00003F0EAFC281CFEBD10B50A1C041C0821F1
:1033D0000520FFF752FF00280BD00023826893706E
:1033E000D37023BA190A13715171190C1B0E917104
:1033F000D37110BD70B54378047886781B022343DF
:103400003604191C331CC2780B4312061A43161CCF
:103410004179057983790902C27929431B040B4359
:103420001206191C131C321C0B431A4300239A4228
:103430001AD1427A047A857A120222432D04111C91
:103440002A1CC37A0A431B061343427B1D1C047BC0
:10345000837B120222431B0413431A1CC37B1B06EB
:1034600013432B4358424341181C70BD7FB50E24B3
:1034700002236C440E1C009305210022231C051C12
:1034800000F070FD002802DB2388062B0ED80823ED
:10349000281C009302210022331C00F063FD002849
:1034A00001DB20800DE0002323800AE00823281C94
:1034B000009303210022331C00F054FD0628E6DDB2
:1034C000EFE7208804B070BD73B5141C1022061CF1
:1034D0000092081C191C231CFEF77EFA051E1DD045
:1034E000FF230020AA68011CD371013B0822FF3B87
:1034F00000F018FF0022041E94420AD083681A705C
:103500005A705A719A711A715A8083685E80456048
:1035100003E06860281C00F0FFFF201C76BD00005F
:10352000F0B585B003924E7C071C0C1C802E03D98D
:1035300003202049FDF70EF9081CFFF75BFF002868
:1035400023D162782578A37812022A431B041343FF
:103550001A1CE37861791B0613432279090211438F
:10356000A2791BBA12040A43111CE27912060A431B
:1035700002D1114A93421AD02378FF2B07D16278E7
:10358000F03B1340022B02D111E000200FE0012597
:10359000217C29420BD13F239943039B0094019343
:1035A000301C6269A369FFF7D1FE3860281C05B0A2
:1035B000F0BDC046B1B90000000080FE002038B563
:1035C000FEF7EEFB041E0BD00723627E1340013B87
:1035D000012B03D900220A4B1A600EE0201CEFE7F2
:1035E000074D2868FEF7DCFB002804D1201CFEF7FD
:1035F000D7FB002801D0041C2860201C38BDC04621
:10360000E81B0020F0B5E52787B00393041C0E1CCF
:10361000151CFEF709FE7F00C35B9B0701D4002742
:1036200006E0201CFEF700FEC35B5B07F7D5802792
:10363000281CFFF7DFFE002815D001235B422B700A
:1036400000230222AB70EB702B716B71AB71EB71CD
:103650002B726B72AB72EB722B736B73AB730133A8
:103660006A70EB7301E040231F43039B002B0DD0D6
:10367000201C04A9FFF7FAFE002807D0C1B20C9A5B
:1036800004A8FFF730FE00280FD00C900C9B002BF5
:1036900004D0337CDB0701D420231F43381C311CAA
:1036A0000C9AFFF777FD071E01D10C9836E02A1C13
:1036B000201C391C0023FFF707FF051C381C002DB8
:1036C0002CD0337C174FDB0720D503F08BFE164937
:1036D00006F05EFB201C0391311CFEF7C9FA0023A3
:1036E0005430041C10490398049306F051FB201C2D
:1036F000059104F05FF80022BB5E0C4A0195009230
:10370000201C0499059A04F035F809E00023F85EBE
:10371000291C00F00FFC002802DC281C00F0FCFE35
:1037200007B0F0BDA40D002040420F0002020000CF
:10373000F0B589B0051C0F1C04920593FEF774FDCB
:103740000390002803D103202A49FDF703F8002F36
:1037500008D1281C0499FEF71AFE0026071C341C09
:10376000B0420ED0281C06A9FFF780FE0024061EDA
:10377000A64206D0C1B2221C06A8FFF7AAFD041E6D
:1037800033D0E523039A5B00D35ADB0715D5082E07
:103790000AD00823281C00930321002206AB00F066
:1037A000E1FB80B2082820D100200F2106AA231CAB
:1037B00002F0A0FD002818D0041C0498211CFFF77B
:1037C00087FC061E11D0281C311C059A3B1CFFF7F4
:1037D0007BFE041C301C002C08D0074B211C002051
:1037E000185E00F0A7FB002802DC201C00F094FE0D
:1037F00009B0F0BDB1B90000A40D0020F0B505235B
:103800000026072285B002AD02936E60437E041C41
:1038100093430B43437605291ED0914202D00429DD
:1038200045D108E01A23C05EFEF7FEFC2B1CD93000
:10383000FF3006C806C3261C3836301C03F0BAFF1A
:103840001C4B301C00229B5E1B4A01940092029983
:103850006A6803F08FFF2AE01A23C05EFEF7E4FCDB
:10386000051C231C311C03222E1C271CB0331A708C
:10387000C136221C1A23E05EFF36231CFFF758FFD7
:103880003837301CFCF71CFF381C03F093FF094B42
:10389000381C00229B5E094A01940092323AA958D2
:1038A000AD186A6803F066FF301CFCF733FF05B003
:1038B000F0BDC046A40D0020170200001202000057
:1038C000F0B589B004AC071C0D1C201C002110228F
:1038D00006F0F8FDFF232370FD3B6370E373002DBA
:1038E00000D1251C381C291CFEF751FD0190002831
:1038F0000ED0381C02A9FFF7B9FD0024A04208D061
:10390000C1B2221C02A8FFF7E4FC041E01D117E09B
:10391000019C201CFFF7A2FC061E11D0381C311C94
:103920002A1C019BFFF7D0FD041C301C002C08D082
:10393000064B211C0020185E00F0FCFA002802DC77
:10394000201C00F0E9FD09B0F0BDC046A40D002028
:10395000F0B595B010AC05900691079200211022A9
:10396000201C099306F0AEFDFF232370FD3B63701E
:103970000598013BE373FEF757FC079B0390002B70
:1039800000D10794039BC133FF33181C0493FCF749
:1039900097FEE523039A5B00D45ACA3BFF3B1C40C9
:1039A000151C002C2AD1039EAE4212D06A7C737C77
:1039B0009A4206D1281C311C03F0C5F96B7C834266
:1039C00002D93836F0E7341C049B3835AB42EAD1D3
:1039D0000DE00EA8311C221CFFF7A2FD0028F3D039
:1039E0000E9E002EEFD1201C00F096FD341C0D948D
:1039F000002C55D10498FCF78DFE07E102F080FE03
:103A0000041E4DD000278569002D34D06B68039AC1
:103A100093421DD1A669AE420FD0AB68B16808933E
:103A20005A7C4B7C9A4206D1089803F08CF9089B8B
:103A30005B7C83420CD93668EDE70DA8B1683A1C6F
:103A4000FFF76EFD002803D00D9B002B26D01F1C16
:103A50002D68D9E7E8B200F0F9FF031C007C597C1F
:103A60005A8A009702F0BEFF0D90002816D0071C5E
:103A70000135102D09D0EB08E318997D07230122A9
:103A80002B409A400A42F3D0E4E7A18A2069221C25
:103A90003B1C02F0CDFF041E0D9001D1381CB3E099
:103AA000E523039A5B00D35A1B0709D5E6235B0085
:103AB000D05A211CFFF788FC0D9000281FD0041C51
:103AC000069B002B0DD10498FCF724FE079905985E
:103AD000FEF75DFC06900498FCF7F2FD069B002BB8
:103AE00012D005980EA9FFF7C1FC00280CD0C1B276
:103AF000221C0EA8FFF7EDFB0D90002803D10498BF
:103B0000FCF708FE6BE0041CE523039A5B00D65A21
:103B100000230893F30603D5E7235B00D35C0893E7
:103B20000027B3061FD5EC23039A5B00D058391C3D
:103B3000374A002306F054FAEE253B1C0A900B91FD
:103B400003996D004A590A980B9980185941FA2235
:103B50000023920006F024FA071C002902D12D4B05
:103B6000984200D92B4F002573061DD5F023039AE8
:103B70005B00D058291C264A002306F031FAF226B1
:103B80002B1C0A900B91039976008A590A980B997D
:103B900080185941FA220023920006F001FA051C10
:103BA000002901D001256D420026099BB34203D1B3
:103BB000E823039A5B00D65A0498FCF7ABFDE52393
:103BC000039A5B00D15A0898890B009589010194EA
:103BD000321C3B1CFFF791FB051E0D9001D1201CF0
:103BE00012E0291C0598079A069BFFF76DFC011C43
:103BF0000D90281C002907D0074B0020185E00F00C
:103C000099F9002802DC0D9800F086FC15B0F0BD93
:103C100040420F0080EE3600A40D0020F7B51E1CB8
:103C200077780233041C151C0193002F25D008312E
:103C3000081CFFF7DFFB00281FD1002C1FD010232A
:103C4000E356013306D1A3687B35EDB21C78022D13
:103C500002D918E06468F0E7002C07D1FF08BC1E09
:103C600033195B78002B01D1013CF9E708980199E1
:103C7000221C06F01EFC201C07E0162004E07B3509
:103C8000EDB2022DEAD986204042FEBDF8B55D783E
:103C9000071C141C1E1C002D25D00831081CFFF722
:103CA000A9FB00281FD1B11C882C1ED1002F0AD0DF
:103CB0001023FB56013304D1BB681C78002C0CD1B7
:103CC00001E07F68F2E7ED08AC1EE4B20B19013B9E
:103CD0001B78002B01D1013CF7E70698221C06F067
:103CE000E8FB201C01E016204042F8BDF8B5171C87
:103CF0000D1CFEF799FA7B78061C0024012B1AD1C3
:103D00001C1C862D17D1051CC135FF35281CFCF75E
:103D1000D7FC7A793879BB79120202431B0413432A
:103D20001A1CFB79281C1B061343E6221BBA5200FF
:103D3000B352FCF7EFFC201CF8BD0000F0B553783F
:103D4000061C87B00020042B00D0BFE0862930D1AC
:103D5000537C107C1B020343191C937C157D1B04B0
:103D60000B43D17C09061943081C517D937D090240
:103D700029431B040B43191CD37D1B060B4301BABB
:103D8000002B02D1524B994213D0137CFF2B04D14C
:103D9000517CF03B0B40022B0BD0301C141CFEF767
:103DA00043FAE5235B00C35ADB0704D5E3787F2B96
:103DB00001D901208AE0271C1037301C391CFEF77E
:103DC0008FFA051E03D0427CA3789A422DD06279E7
:103DD0002079A379120202431B0413431A1CE379CE
:103DE0001B06134321D00823301C00930721002217
:103DF00004AB00F0B7F8002815DBA27802A8391C44
:103E000002F0CAFF3F21E378A2788B43301C02A95D
:103E1000FEF72DFA051E06D0301CFEF705FA01212B
:103E200002F030FC01E0002050E062792079A379B3
:103E3000120202431B0413431A1CE3791B061343AB
:103E400006D1002DB5D0301C291CFEF735FAB0E79D
:103E50001BBA6B61627A207AA37A120202431B04B6
:103E600013431A1C2E1CE37A1C361B0613431BBA81
:103E7000AB61301C03F09EFC6B6901331BD063798E
:103E80002079A1791B02034309041A1C0B1CE17958
:103E900013430906194309BA02A8002203F022FCC1
:103EA0000C4B0D4A1B88301C00921BB201950299E5
:103EB000039A03F05FFC40222B7C3F2193431A1CA2
:103EC0002B74E3788B4313432B7472E707B0F0BD78
:103ED000000080FE3001002011020000F0B585B026
:103EE000071C0E1C01921D1C00F0AAF8041E1ED017
:103EF000311C381C00F092F8611E061C281C00F0D2
:103F0000F7FA002E13D06A46318902AB928809B2C3
:103F1000181C5A80039504F0BBFE002802DC281C04
:103F200000F0FAFA301C00F0A1F8061CE9E7201CAA
:103F300005B0F0BD07B5031C6846034A0191191C82
:103F4000428004F0A5FE0EBD0202000007B5031C6E
:103F50006846034A0191191C428004F099FE0EBD87
:103F60000102000030B589B006930C9B05AC051C1E
:103F70002381812301A8217062809B0003A92A1C50
:103F80004380446004F0A4FE049809B030BD0000F2
:103F900030B5051C89B006930C9B05AC2381064BFC
:103FA00001A82170628003A92A1C4380446004F0A8
:103FB0008FFE049809B030BD03020000084B10B515
:103FC0001C8822B2824201D1002007E0002C03D1DC
:103FD0001880FEF7EFF8F7E70C20404210BDC0460E
:103FE000EC1B0020044B1A8800239A4201D0028067
:103FF0000133181C7047C046EC1B0020C3B2042BD1
:1040000006D8054B8000C2580A60C150002001E06C
:10401000162040427047C046F01B0020C2B2031C6D
:104020000020042A09D8054A9B009858002804D08B
:1040300043688B4201D00068F8E77047F01B00200E
:10404000C2B230B50023042A0CD8074A8000805839
:10405000002807D042680068521A55425541AC46C4
:104060006344F5E7181C30BDF01B0020031E07D089
:1040700005CB002804D04368934201D00068F8E7DC
:10408000704708B500290BD01023C356032B04D06A
:10409000042B07D102F0DCFD06E005F052F803E046
:1040A000162000E00220404208BD000030B5041C8C
:1040B00095B0082104A804F061FE204B188880B256
:1040C000208100B2FFF77AFF201C23681C495B683F
:1040D0009847684604F04CFE6B461A4A5B88934248
:1040E00016D009D8033AFF3A9342F2D12368201C34
:1040F0005B6901999847ECE7134A93420DD001326E
:104100009342E6D1019A206811781389C56809E0C5
:104110002368201C1B680199DAE7019A206811784E
:1041200013890569201C5268A84702A9074B4860FB
:1041300068464B8004F0F4FDCBE7C0463001002018
:1041400051410000020200000302000005020000CD
:1041500010B502280CD10C1C1020064A0856231C4E
:104160000549FFF7BBFE002802D1201C00F0D4F95E
:1041700010BDC046010200000000FFFF30B585B051
:10418000089C002C0DD02568002D0AD0074D029305
:10419000009501940823FCF73FFB002802DC04484B
:1041A00000E0044800B205B030BDC046AD4000009C
:1041B000EAFF0000EDFF000030B5134D08222B6828
:1041C000072803D9053A03309043021C0024002B32
:1041D00018D059688A4202D91C1C1B68F7E7891A53
:1041E000072906D81A68002C01D12A600AE022604B
:1041F00008E09818002C01D1286000E020601A68BF
:1042000041600260181C30BD041C002038B51F4CF2
:104210001F4B2268251C1F4CC31AA34234D800230D
:10422000002A04D0824202D2131C1268F8E702600E
:104230000824072903D90322033191430C1C44604D
:10424000002B01D1286011E05A6818609A18821A70
:10425000072A0BD8002803D103300F49FCF77AFA5C
:104260000268C01A2118181C1A6059600368002BD4
:104270000AD0426882189A1A072A05D81A6802607A
:104280001A1A5B68D318436038BDC046041C00206E
:10429000081C0020FF170000B1B90000F7B500901E
:1042A00014200F1C161C0193FFF786FF041E1CD060
:1042B000301CFFF781FF051E05D1201C1421FFF7DC
:1042C000A5FF281C11E0009BA06063606B461B7972
:1042D000E66023740123201C2360002F05D0281CD6
:1042E000391C321C06F0E5F8201CFEBD10B50A4C46
:1042F000201CFCF7E5F9094B094A1821136000223C
:1043000059711A705A709A70DA701A719A71DA715A
:10431000201CFCF7FFF910BD08340020081C002009
:10432000041C0020F7B50C4C551E061C0020A542AD
:1043300011D8141C0D1C094F0193381CFCF7C0F94F
:10434000221C291C019B301CFFF7A8FF041C381CF1
:10435000FCF7E0F9201CFEBDFF1700000834002028
:10436000F7B5041C0E1C01920827072902D9032364
:10437000CF1C9F43344D281CFCF7A2F9002E07D018
:10438000002C05D0E3689E4202D8A268002A04D11E
:104390002D48FCF7BFF9002054E09E4207D16B4640
:1043A0001B79281C2374FCF7B5F9201C4AE0142063
:1043B000FFF702FF051EEBD0BE4203D3E3689B1B51
:1043C000072B2AD8301CFFF7F7FE071E02D1281C46
:1043D00014210CE0E368981BFFF7EEFE0090002824
:1043E00008D1281C1421FFF711FF381C311CFFF7DE
:1043F0000DFFCDE7A168321C381C06F05AF8A368FF
:1044000000989919E3689A1B06F053F8A068E168D0
:10441000FFF7FCFEAF60009B03E0A3688360A36826
:104420009B19A360E36808489B1BE3606368EE6028
:104430006B606B461B792B7401232B606560FCF766
:1044400069F9281CFEBDC04608340020F8B5041CDC
:104450000D1C0827072903D90323C81C9843071CF0
:104460001F4E301CFCF72CF9002C07D0A068002848
:1044700004D01C4B1C4AC31A934203D903201B4986
:10448000FCF768F9002D04D11548FCF743F90C201E
:1044900025E0E1688D4201D1301C1DE08D4202D83B
:1044A000C91B072913D8281CFFF786FE061EEBD070
:1044B000E3682A1E9A4200D91A1CA168301C05F034
:1044C000F8FFA068E168FFF7A1FEA66002E0C0194E
:1044D000FFF79CFE0248E560FCF71CF90020F8BDE0
:1044E00008340020081C0020FF170000B1B90000AC
:1044F00070B5084D041C281C0E1CFCF7E1F8281CA4
:10450000002C04D023689B1923606468F8E7FCF74B
:1045100001F970BD0834002070B5134D041C281C2F
:10452000FCF7CEF8002C1BD0104B114AE31A934233
:1045300003D903200F49FCF70DF923686668012BA6
:104540000AD10023A068E1682360FFF75FFE201C0A
:104550001421FFF75BFE01E0013B2360341CE1E71F
:10456000281CFCF7D7F870BD08340020081C002078
:10457000FF170000B1B9000070B5144D041C281CD1
:10458000FCF79EF82E1C002C02D0E268002A04D111
:10459000301CFCF7BFF8002016E02368012B0FD970
:1045A00010236068E356A168FFF778FE051E02D06D
:1045B0002368013B2360301CFCF7ACF8281C03E0A7
:1045C000281CFCF7A7F8201C70BDC046083400204A
:1045D000F8B50025071C041C2E1C002C46D0311CED
:1045E0002748E26805F076FF10216156481C05282F
:1045F0002ED805F033FB06030F1820252148002193
:1046000027E001212048494205F064FFA06804F03A
:1046100041FE26E001211D4805F05CFFA068E1682D
:1046200002F03AFF1DE00221194805F053FFA0688F
:1046300002F05CFC15E00321164805F04BFF10E08A
:104640000421154805F046FFA06803F04FF808E084
:10465000124805F03FFFA068E1681022104B02F0FD
:10466000A1FCE3680136ED186468B6E7311C2A1C2A
:104670000C4805F02FFF381CFFF74EFFF8BDC04671
:10468000E8BD00000DBE000021BE000035BE0000E8
:104690004DBE000060BE000075BE000087BE000079
:1046A000104200009DBE000010B594B004A808217F
:1046B00004F064FB862302AC5B426360104B6380B2
:1046C000684604F055FB6B4658880E4BC01803280B
:1046D00011D805F0C3FA02040B0B0B4800E00B489D
:1046E00005F08EFF0198FFF773FFE9E76846211C8C
:1046F00004F016FBE4E7064805F082FFE0E7C04659
:1047000005020000FFFDFFFFCABE0000E2BE000080
:10471000F9BE00001FB50B4C0022A35E002B0CD18C
:10472000C021094A0193094B009202930848C9002D
:1047300006220823FCF770F820800023E05E04B016
:1047400010BDC046103A0020A946000020BF00005E
:104750001034002010B5031C041E8C4204D14468A0
:1047600008E08A4204D0131C5A68002AF9D101E0FB
:104770004A685A600023081C4B60FFF7CDFE201CDE
:1047800010BD0000F0B59BB008210AA804F0F6FAAD
:104790006E4B07A94B606E4B01201B880B81FFF706
:1047A0002DFC6C4B02AAD38103AC201C04F0E0FA70
:1047B0006088694BC0180328F6D805F04FFA021438
:1047C0006E6E6668301CFFF7D7FE041C051C301C9B
:1047D000002C00D1B7E01027EF57012F65D06D688E
:1047E000002DF8D1AEE06568002D1FD0EB68072BD7
:1047F0001CD96B68002B19D01B7C5BB2022B15D126
:10480000281CFFF7B9FE041E10D083680026019310
:104810000220185E02F04AF9071C6168002903D0E3
:10482000CB684968F618F9E7002F01D1281C8AE007
:104830003B79002B05D0201C01F00AF800280DD18F
:1048400080E00122081C131CFFF76CFD002879D0C2
:10485000412263684360606083681A700022636865
:10486000002B03D0D9685B685218F9E77B889A421D
:1048700008D8019B211C0220185EFFF75BFB002873
:1048800092DC5FE0354B9E425CD8019B211C0220EC
:10489000185E321C00F0F4F986E78623201C5B4288
:1048A00005A9069304F03CFA7EE7EB68002B49D09B
:1048B000AB681B78412B0FD1281CFFF75DFE051E4E
:1048C00040D0391C3A1CFFF74BFD011E3AD0201C8A
:1048D000FFF740FF041C27E02722191C9143C02941
:1048E00003D1201C00F0C0FA5EE71F229343602B27
:1048F00028D100200932011C5E3BFFF713FD061E84
:1049000020D00022211C131C00F0E0FC011E16D058
:10491000201C3A1CFFF724FD011E10D0201CFFF7BD
:1049200019FF6368736066600220084928740C4AA6
:10493000231CFFF7D3FA002800D035E702E0301C33
:10494000FFF7EAFD201CFFF7E7FD2DE70000FFFF62
:104950003001002005020000FFFDFFFFFF070000FF
:10496000010200001FB50B4C208803B2002B0DDCA8
:10497000094B8021009300230193084B08480293C0
:10498000C90003220823FBF747FF208000B204B0D0
:1049900010BDC046123E00208547000028BF000021
:1049A000123A002037B5142444430E4B1C1910341E
:1049B0006388002B0ED0051C684602F0BDFE0098EF
:1049C0003C2105F05FF9084BAD00EB58984206D347
:1049D00000236380102263789343637001E01B1A05
:1049E000638037BD143E0020543F0020F0B5002501
:1049F0002E1C144F85B00290381CFBF761FE124C40
:104A0000019510340397E8B2FFF7CCFF2378002B11
:104A10000DD0271C103F381C029902F094F923781E
:104A2000834204D8019B984201D93E1C0190013574
:104A30001434102DE7D10398FBF76CFE301C05B041
:104A4000F0BDC046943F0020143E002070B5002306
:104A50000F2816D8051C0C4E301CFBF731FE281C05
:104A6000FFF7A0FF14206843084B1D182C7C301C56
:104A7000002C03D0FBF74EFE2B1C02E0FBF74AFE96
:104A8000231C181C70BDC046943F0020143E00201B
:104A9000F0B585B001930AAB051C0C1C161C1F78E1
:104AA00000200F2D00D986E0101E00D183E043487E
:104AB000FBF706FE142369466B43414A8988D318E5
:104AC00059820199481E814149420F40802E02D9E6
:104AD0008021197400E01E742B1C002F01D01023BC
:104AE0002B4314266E4396197788737433883F04DA
:104AF000F0881F43B38800041843637821781B02B1
:104B00000B431A1CA37861791B041343E278090252
:104B10001206134322791143A27912041143E27958
:104B200012060A439F4233D1904231D177893289AC
:104B3000637A217A3F04F08917431B02B2890B4341
:104B4000000410431A1CA37A617B1B041343E27A0E
:104B5000090212061343227B1143A27B1204114364
:104B6000E27B12060A439F4212D1904210D102A862
:104B700002F0E2FD02983C2105F084F8019BAD00B3
:104B80001818104BE8500D48FBF7C4FD301C12E01C
:104B900014236B430A4A301CD3180022211C1A80AC
:104BA0005A809A80DA801A815A819A81DA811A7C35
:104BB00002F0F2F8DBE705B0F0BDC046943F0020FC
:104BC000143E0020543F0020031CF0B5077885B048
:104BD000083300933B1C0833C318039102920193DE
:104BE0004678051C01230020BA190832011C5B42DB
:104BF000FFF798FB0022041E94423FD0A3681F7069
:104C00005E705A805A719A711A71009B934209D052
:104C1000974207D0A0680278BA4203D10830191C25
:104C200005F047FC019B002B0CD0002E0AD0A36896
:104C30005A78B24206D11878019908301818321CF7
:104C400005F037FCA3686A885A802A791A716A7954
:104C50005A71AA799A71039A029B9A4200D91A1C36
:104C600000200123011CFFF75DFB051E04D1201C61
:104C7000FFF752FC281C01E0201C656005B0F0BD68
:104C8000F0B589B00091151C01F010FF009B029057
:104C90005C6800230193002C06D0E268019B9446D7
:104CA000634401936468F6E7029B002B03D10098EC
:104CB000FFF732FCD3E0019BF822EB1A06936B4618
:104CC000198B029B5B88043BCB1813405B1A9BB289
:104CD00005931A1D009B01999868FFF775FF071E41
:104CE000E5D043686DBA9B68261C0393039AABB268
:104CF00004931B0A5370FF23049A1340402252422C
:104D00001343039A1370574B1B885BBA9BB2937083
:104D10001B0AD370009B5D68002D13D0059AEB68C9
:104D2000941B9C4200D91C1C039B301D1818221C8C
:104D3000A96805F0BEFB3419059BA6B29E4201D2BC
:104D40006D68E9E7029B391C0020185EFFF7F2F856
:104D5000002802DC381CFFF7DFFB002EA7D0FBF792
:104D60003BFD019B9E4273D2F824029B5F88019B0E
:104D7000053F591D009B2740891B7A1D9868FFF746
:104D800023FF0390002892D0436804999A68531D2A
:104D90000793049B1B0A5370FF230B4020214942B9
:104DA0000B43002113702F4B1B885BBA9BB293708F
:104DB0001B0AD370069BF318DB081371009B5D6818
:104DC000002D1BD0B14217D0EC68A3B2C91889B22C
:104DD000B1420FD99B19591A89B2641ABC4200D941
:104DE0003C1CAB68221C5918079805F062FBA4B262
:104DF0006D6804E06D68E3E7002400E02C1CBC4211
:104E000014D2002D12D0EB683A1B05929A4200D9B9
:104E10000593079BA9681819059A05F04AFB059B9D
:104E2000E418A4B2BC4202D06D68EAE7271C029BDA
:104E300003990020185EFFF77DF8002802DC039834
:104E4000FFF76AFB002F00D131E7BF19BEB286E73A
:104E50000098FFF761FB034A13880133138009B000
:104E6000F0BDC0469C3F002010B5041C07214368DC
:104E7000A268986813788B43C02B06D0E02B0AD128
:104E80001379E268DB00053A02E0E3681A1F0023A9
:104E9000211C00F011F8201CFFF73EFB10BD036839
:104EA000002B06D0002219689A80DA801A6001600F
:104EB000F5E7436070470000F0B500268FB0019021
:104EC0000CA80891009202938F6802F035FCBC4C4C
:104ED0006068251C002820D0A2680C9B9B1A032B1D
:104EE00005D9FFF719FB201CFFF7D9FF04E0002EBE
:104EF00003D0B3689A4200D3351CB24B24349C4291
:104F000001D02E1CE4E7002D07D06868002804D0EB
:104F1000FFF702FB281CFFF7C2FF019B019A083331
:104F20000693019B04261B78002403930833D318AF
:104F3000079353783A7804937B780CA81B021343A9
:104F40005BBA5B055B0D0593FB78BA781B021343D4
:104F50006A465BBAD384D38C0A9302F0EDFB984D7A
:104F6000043504239B1B0B932B68002B00D123E1FA
:104F7000DB68059A934223D16B8B0A9A93421FD127
:104F80002B7E039A93421BD16B7E049A934217D1D6
:104F9000281C06990830039A05F07CFA00280FD1E6
:104FA000281C07991030049A05F074FA002807D1DC
:104FB00024240B9B6343824CE4180C9BA36032E0D7
:104FC000002C03D12B68002B00D12C1F013E24356F
:104FD000002EC6D1002C26D0301C311C059A01238E
:104FE000FFF7A0F96060002800D1F9E08368002194
:104FF000002018605960201C0C9B0699A360039A3E
:105000000C3005F056FA201C07991430049A05F06C
:1050100050FA6B461B7B268423776B461B7C637799
:105020006B46DB8CE383002C00D1D9E0029B256822
:10503000002B1ED13B79412B04D1009B7E1D013BEF
:10504000009317E01F223E1D9343029A602B12D15A
:1050500063680899181CDA68042300F037F90028FF
:1050600000D18EE0009A36182832131A00932822B5
:1050700001E07E1D0022636802990393009B5B1888
:105080000399C9688B4200D9A4E06B461989002DA9
:1050900017D0009F4B1EDB19AF889BB28F4203D203
:1050A000E888884200D395E0B94202D29F4200D8F6
:1050B00090E08F4203D1E988994200D18AE02D68BF
:1050C000E3E7009B4F1EFF18BFB23F48EB0084464A
:1050D0006344D888002815D1002B16D09980216808
:1050E000DF80196023600099238CCB1803992384F7
:1050F000029B8868D318C018009B311C9A1A05F0CF
:10510000D8F902E00135282DDFD16368228CDB68F5
:105110009A4265D100200123277F667F011CBA19BE
:1051200008325B42FFF7FEF8051E2AD00022836892
:105130001F705E705A805A719A711A71974208D026
:1051400080680278BA4204D1211C08300C3105F085
:10515000B0F9002E17D0AB685A78B24213D1211C97
:105160001878143108301818321C05F0A2F90AE03A
:105170005D6002201549164A6368FEF7AFFE0028FD
:105180002BD1606827E0019AAB6852885A80019A57
:1051900012791A71019A92799A71019A52795A7117
:1051A00000236B606368002B04D05A68002ADFD0AC
:1051B000131CFAE76560DCE7002C00D006E704E783
:1051C000A03F002030400020304000200000FFFFC2
:1051D000010200000398FFF79FF9201CFFF75FFE14
:1051E0000FB0F0BD002310B543700370042A16D031
:1051F000082A02D0022A25D117E002220B78534058
:1052000003704B7843708B788370CB78C3700B79C5
:1052100003714B7943718B798371CB7910E0022351
:105220000A785A4002704A784270FF240022C47003
:10523000013C827004714271CA5CCB1882715B7848
:10524000C37100E0181C10BD0F23027810B59A43FB
:105250000C09224302704278090113400B4343704A
:1052600010BD000073B5051C0E1C141C68461649C1
:10527000082205F01EF9281E24D06B7C0020DB06D6
:1052800020D42A7C0130802A1CD0402A01D800205A
:1052900018E00F23D208501CD11F301861189A1A39
:1052A00005F0F8F80028F2D12A7CD308E418083C6D
:1052B000F35C20785840072313406A46D35C1840BB
:1052C0004342584176BDC0462CBF0000F0B585B0C2
:1052D00002924A680191926889680092002803D17D
:1052E0000320D149FBF736FAC268272AF8D90026ED
:1052F0007F22351C84686020CF187B7803219A4276
:1053000075412378703A1A4002432270182284466D
:1053100038784D1B0240082A24D014D8B2424DD10F
:10532000795D201CFFF790FF0F2279194B7813400D
:105330006278134363708978A278EB1C0A43A270E9
:10534000FA5C043529E0102A2BD0182A36D1201C0B
:10535000311CFFF779FF0F226378A67093436370C7
:10536000E6702BE066460B401E43331C7A1910781A
:105370008009800003438B430F210F202370637843
:1053800019406170137803400B4363705178A27821
:10539000AB1C0A43A270FA5C0335E3781343E37055
:1053A0000CE06B1C795D201C0393FFF74DFF0F226F
:1053B0006378039D93436370A670E6703B785B0748
:1053C00002D47B5D0135A37103233A781340022B8D
:1053D00007D0032B07D0012B06D07B5D0135E3718D
:1053E00003E0402300E0FF23E37140267B781E406A
:1053F0000ED000205AB2824201DAB8780009302279
:105400000026134204D0FFF721FB061E00D11BE249
:1054100070237A781340302B68D00ED8102B37D0F9
:10542000202B48D0002B00D09AE0201C791908309E
:10543000102205F03EF8103592E0502B6BD014D8B6
:10544000402B00D08CE0002323726372A372E372BE
:1054500023736373A373E37323746374A374E37498
:1054600023756375A375E3757AE0602B61D0702BAB
:1054700076D1009B201C191C1A7808311030FFF7D8
:10548000B1FE201C327C0830311C01F085FC67E045
:1054900002220023201C524222727E3A6272A372C0
:1054A000E37223736373A373E37379198832103043
:1054B00004F0FFFF3BE0802102220023201C494230
:1054C000524261727F312272E1742275A372E372DB
:1054D00023736373A373E37323746374A374637597
:1054E00079190432163004F0E4FF38E0009B201CE8
:1054F000191C1A7810300831FFF774FE02220023BD
:10550000524222727E3A6272A372E3722373637311
:10551000A373E37324E0201C79190822103004F0EF
:10552000C8FF201C327C0830311C01F035FC0835E6
:1055300016E001220023201C5242E27492182275C8
:105540007919043223746374A3746375163004F0FC
:10555000B0FF201C327C0830311C01F01DFC0235EC
:105560007A7853070DD5002053B2834202DA0F2315
:10557000B8781840930704D0FFF768FA061E00D1E8
:1055800062E10F23787818400C2800D95CE104F020
:105590006FFB0D00150028004D005B0163007100DA
:1055A0008F000D009F00CC00F2001101201C791922
:1055B0001830102204F07DFF103535E1022200235F
:1055C000201C524222767E3A6276A376E3762377D7
:1055D0006377A377E37779198832203004F069FF85
:1055E00046E0802202210023012052426276494295
:1055F000621C2176A376E37623776377A377E3773C
:10560000D377A21CD377E21CD3774042221DD077F8
:10561000201C621DD177A21DD37779190222263072
:1056200004F047FF42E0C046B1B90000201C009BD7
:10563000203019785A7808315918FFF7D3FD022223
:105640000023524222767E3A6276A376E37623776F
:105650006377A377E377E7E0201C791908222030ED
:1056600004F027FF201C327C1830311C01F094FB21
:105670000835D9E000230121201C621CD377A21C2D
:10568000D377E21CD3774942221DD177621D491896
:10569000D177A21DD37779190222263004F009FFB1
:1056A000201C327C1830311C01F076FB0235BBE047
:1056B000201C009B203019785A7808315918FFF7C0
:1056C00091FD201C327C1830311C01F065FBABE0F1
:1056D0000023621C6376A376E37623776377A37750
:1056E000E377D377A21CD377E21CD377E21D9446ED
:1056F000261D601DA11DF3770132C377CB77937709
:10570000D377FF3323767B5D009263767B195A78DB
:10571000F27762469E78C677D878C8771B79691D7C
:10572000D3777B5C0635009A23E00023621C637606
:10573000A376E37623776377A377E377D377A21C07
:10574000D377E21CD377221DD377621DD377A61DB2
:10575000E11D0332F377CB77D377FF3323767B5D7D
:10576000781963764378F3778078EB1CC877FB5C15
:105770000435D37758E00023621CA376E3762377C1
:105780006377A377E377D377A21CD377E21CD37731
:10579000221DD377621DD377A21DD377E21DD37765
:1057A0000132D377FF332376FD3B63767B5D013592
:1057B000D37739E0337C621C009300232376637631
:1057C000A376E37623776377A377E377D377A21C77
:1057D000D377E21CD377221DD377621DD377A21D26
:1057E000D377E21DD3770132D377337C402B01D9B5
:1057F00040233374FF23201C23767B5D583063766F
:105800007B195B78311CA376337CE376327C01F024
:10581000C3FA201C291D79182430042204F049FE03
:105820006B461B7806353374029B002B03D1019B1A
:10583000DB685B1B01E0029B283B5BBA9BB22371D8
:105840001B0A6371281C00E0002005B0F0BDC046B3
:10585000F0B583688DB004900393436800209C6882
:10586000DA68011C0123FEF75DFD0590002800D1D8
:1058700047E3602385682B7000236B70627A207A7F
:10588000231C12020243111C0833A27A0693E37A06
:1058900012040A431B061343627B1E1C207BA37B5E
:1058A000120202431B0413431A1CE37B1B0613431F
:1058B000334300D0FBE0637C217C1B02E77C0B437D
:1058C0001A1C3F063E1CA37C207D1B041343627DF3
:1058D0001E43A37D1202E77D02431B0413433F06D0
:1058E0001A1C3B1C13431E43371E00D0DFE0237EEF
:1058F000FF2B00D1E0E0201C1830FFF777F8029072
:10590000002F04D07B7C1A0701D0DB0609D4029A51
:105910000223002A0DD0527C0223110709D0D2069F
:1059200007D580226B78524213436B700023AB7013
:10593000033362782078A1781602090406430E43E7
:10594000E17812090906314309BA090315D10001AA
:10595000024352B22978002A03D118321143297028
:1059600053E01022114329702278591C10016278EB
:1059700012090243EA548BB247E0D1B2032202403B
:1059800012010A4317D108212A780A432A7066783F
:105990002078A2783602064312041643E278000704
:1059A0001206324312BA1203800F591C120F8001E3
:1059B00089B2024314E002010A43EA546078227873
:1059C00000021043A278991C12040243101CE278D2
:1059D00001331206024312BA120389B29BB2120FAC
:1059E000EA5462782678A378120232431B041343E8
:1059F0001A1CE3781B06134300221BBA1B0A6B54C4
:105A00008B1C013189B29BB26A54A2795E1CEA54A4
:105A1000E279B6B2402A07D0FF2A08D0012A0BD17A
:105A20002B781A432A700AE02B78022201E0032225
:105A30002B7813432B7002E00233AA559EB2637A8F
:105A4000217A1B020B431A1CA37A207B1B041343ED
:105A5000E27A12061A439446627BA37B1202024347
:105A60001B0413431A1CE37B1B06134362461A43B1
:105A70002AD1627C207C12020243111CA27CE37CAE
:105A800012040A431B061343627D9C46207DA37DBE
:105A9000120202431B0413431A1CE37D1B0613432B
:105AA0006246134300D028E26B7840221BE206983E
:105AB000FEF79CFF071C1AE7002302939F4200D0C9
:105AC00020E70297023334E7002F0ED07B7CDB0601
:105AD0001AD540226B7813436B707B7C1A0713D066
