:10000000D84C0020A50400000D0500001D050000CF
:1000100000000000000000000000000000000000E0
:100020000000000000000000000000007504000057
:100030000000000000000000550400005101000015
:100040005101000051010000510100005101000068
:10005000B9140000510100005101000051010000DD
:10006000510100002913000051010000510100005E
:100070005101000051010000331300005101000044
:100080005101000051010000C910000035110000AD
:100090005101000051010000510100005101000018
:1000A0005101000051010000510100005101000008
:1000B00008B500F051FB08BD10B5041C0348211C15
:1000C0000AF014FC201C00F071F8FEE7E2B6000014
:1000D00070B50C1C061C00F033F9094B094A1D6869
:1000E0002919914202D8084A914204D20C230125D1
:1000F00033606D4200E0196000F02AF9281C70BDE1
:100100000000002000800020D84C002008B5101C02
:10011000191C00F02DFB08BD08B5101C191C00F0BF
:100120003BFB08BD132303600120404270471323AB
:1001300003600120404270471323036001204042C6
:100140007047002302220360181C8A4258417047FE
:1001500008B500F08DFA08BD0F4B10B51A680C1CDD
:10016000002A15D101321A60032803D171460B48C9
:100170000AF0BCFB0A480AF04FFC201C0AF04CFCB9
:1001800000F080FA07480AF047FC07480AF044FCF0
:1001900000F0D6F800F0E3F8A80000200BB700004C
:1001A0000FB7000034B8000025B7000008B50028DC
:1001B00002D100F0DBF801E00120404208BD000060
:1001C00070B500240E4B0F4E1C600F4B356818683D
:1001D00000F08AF80D4B8000C358201C0C3B9D4258
:1001E0000DD0A54204D0AA88062A01D10132AA80E6
:1001F000062201209A80D988054A3360118070BD9B
:10020000AC00002038010020800100203C010020CB
:100210003401002070B5041C0D1C8388052910D9F9
:10022000052B24D8211C0089124B800018180C3192
:1002300000F062F8012321890F4A8B4011680B43BB
:1002400014E0052B13D9211C00890A4E80000C31C3
:10025000301800F067F821898B009B59002B06D1DC
:1002600001338B40044A116899430B1C1360A5802D
:1002700070BDC0463C0100208001002008B5094B3C
:100280001B681A899B88052B01D9824209D900F085
:1002900062F8002803D00122034B1A6001E000F04D
:1002A000CFF808BD38010020AC00002038B500248C
:1002B00000F046F8084B094A1B88094D1BB29B0009
:1002C0009C50084A28681368211C013B1360FFF703
:1002D000A1FF2C6000F0B0F834010020B000002035
:1002E000380100207C0100200023C20702D440080E
:1002F0000133FAE7181C70470368002B0ED00B601F
:1003000003685B684B6003685B6819600368596049
:1003100002685368934204D1596002E001600960A9
:10032000496070470B688B4207D04A6813600B68BE
:100330005A600268914202D100E0002303607047D6
:10034000EFF3108072B6704762B6EFF3108070471B
:1003500080F310887047EFF30580C0B2704708B58E
:1003600000BE042000F08CF9FBE7000007B5011C7B
:1003700009480AF0BBFA094B0193019B5A1E0192EE
:10038000002BFAD1BFF34F8F054A064BDA60BFF35B
:100390004F8FC046FDE7C04632B70000A08601007F
:1003A0000400FA0500ED00E0D318032293431F4A2E
:1003B00010B51C1F2260620703D0083B1C1C1C4B9D
:1003C00023608022231F52041A601A4A043B1860DB
:1003D000043B1A600022043B1A60043B03321A609B
:1003E000043B013A1A60043B013A1A60043B19606D
:1003F0000632043B1A60043B013A1A60043B013A9E
:100400001A60043B013A1A60043B07321A60043B4D
:10041000013A1A60043B013A1A60043B013A1A603F
:10042000201C032344385B42036010BD7777777745
:1004300088888888AD020000FFF786FF01DFFEE7AD
:100440008021034A490553680B4353607047C046F7
:1004500000ED00E0EFF30980EC4685464046494652
:1004600052465B46FFB4704601B46846E5460B4908
:1004700009680860FFF7A4FEEE46084800680068B7
:10048000854601BC8446FFBC8046894692469B4611
:10049000684680F30988F54660470000380100206F
:1004A0007047704708B5FFF7FBFF6A46104B934251
:1004B00002D2104902C3FAE700220F4B0F49D318AA
:1004C0008B4204D20E49895804321960F5E70D4B6E
:1004D0000D4A934202D2002204C3F9E7FFF7E1FF7D
:1004E00000F022FB0AF01EF900F044FB08BDC046F4
:1004F000D84A0020FEE7FEE700000020A800002008
:100500004CD10000A8000020D84A002008B50420E3
:100510000149FFF721FEC0464EB700000E490F4AC1
:100520000F4B6846904203D8984201D9002102E05F
:10053000091C8D46012104207246024202D1EFF3CC
:10054000088001E0EFF30980F0B443464C4655467D
:100550005E4678B46B4605E0D84C00200080002051
:1005600060050020F0B58BB00993334B08921A68F0
:10057000324B041C0D1C9A4202D031480AF04CFA4E
:10058000002D03D02F480AF047FA50E0251C2368BD
:10059000E76902936368A6690393A368243504930B
:1005A000E36805932369069363690793BB0500D449
:1005B000043D25480AF030FA059B02990093039AFE
:1005C000049B22480AF092F9079A331C0699009777
:1005D0001F480AF08BF91F480AF01EFA08991E48B6
:1005E0000AF084F91D480AF017FA311C1C480AF079
:1005F0007DF96946104BC91A1A4BC91803D54942EF
:1006000019480AF073F9099B1E1C201C8268C368F4
:1006100001698C4641698E46AD46311CF0C9A04641
:10062000A946B246BB46F0C94168006801BE052034
:100630000E49FFF791FDC046D84A0020FEE7FEE7CD
:100640005AB7000070B700009FB70000BAB70000AB
:10065000F7B7000035B800003AB800004CB8000009
:100660007DB80000A8FEFFFFA5B80000D2B80000CA
:1006700008B506200149FFF76FFDC046E5B8000048
:1006800000207047F0B500268DB0224902220BA849
:100690000AF07DF820482149214A0AF027F9214F24
:1006A00007963C68002C24D0A388656B9A000893B9
:1006B0001D4BE06AD3580993079B5B19079300F021
:1006C0000DFB089A2D1A0623E15E76190123052AEF
:1006D00000DC00230BAAD31800932389134801934D
:1006E000636B03950293E36A0493226B099B0AF000
:1006F000FDF80F4B04379F42D3D10E4B079A00935E
:1007000001920296191C0C4A0C480AF0EFF80DB041
:10071000F0BDC046F3B80000F5B800002EB90000E7
:1007200033B90000B40000200400002039B90000F3
:10073000340100208AB900008CB900006CB90000B7
:1007400008B5034800F0F0FE024800F079FA08BD51
:1007500024000020C40100200020E12108B5490246
:10076000024A031C00F070FD08BDC04641070000AE
:1007700038B5051C0C1C0648291C221C00F0BEFEC6
:10078000002803D1034800F031FAF4E738BDC04631
:1007900024000020C401002010B5031C0C1C002004
:1007A000191C221C00F020FD201C10BD08B50120E2
:1007B00000F0E0FB08BD000008B5064B021C1B68FA
:1007C000002B06D1002800D101320120002100F0C9
:1007D00091FB08BDD00100200020F0B51F4E204D38
:1007E0003368B446013333601E4B1F4C1A681860DF
:1007F0002B682260191C002904D0664637688E6871
:10080000BE4203D92960002803D125E0081C0968ED
:10081000F1E7002101608A421DD0111C002B04D099
:1008200050685D68A84200D9191C081C12681B6832
:10083000002A01D103600CE0002B01D1026008E026
:1008400056685F68151CBE4200D91D1C0560281C37
:10085000ECE7216000E02360F0BDC046D401002039
:10086000DC010020CC010020D8010020F8B50123D4
:100870002C4F2D4C3B602368002B06D1FFF7ACFFBB
:10088000FFF794FF431CFBD031E0FFF78FFF051CFF
:1008900010E0864205D923685E68FFF787FFA8420B
:1008A000F7D223681A681869226000225A609A6099
:1008B000DA6890472368002B04D1FFF777FF854261
:1008C0000BD912E05E68FFF771FFA842E3D38642BE
:1008D000E1D9361A132EF0D8DDE72368002B08D1B2
:1008E000FFF764FF061EAE420BD2FFF775FF00252F
:1008F000E0E75E68FFF75AFF143E14308642D9D312
:1009000009E0031C143304D3FFF750FFB042FBD2BD
:10091000EBE7012676420023301C3B60FFF74CFFDB
:10092000F8BDC046D0010020D8010020012008B544
:10093000011C044A00F05CFB01204042FFF73CFF31
:1009400008BDC0466D080000F8B5041C0D1CFFF77B
:100950002DFF0023071C2360854210D32B1C1E3B58
:1009600083420CD21E35FFF721FFA842FBD8FFF7C8
:100970001DFFA842FBD3E368206998472FE0194B7D
:1009800065601B68BD4200D20133A360FFF7D8FC4D
:10099000061CAF4202D2144B191C11E0134A136813
:1009A000002B05D059686068814201D81A1CF6E70F
:1009B0002360146010E050686768B84203D8131CC5
:1009C0001A68002AF7D122601C600B68A34203D189
:1009D000281C1438FFF7F0FE301CFFF7B9FC00208C
:1009E000F8BDC046D4010020D8010020CC01002071
:1009F000436870B5002B02D18468002C16D0051C0A
:100A0000FFF79EFC1B4B061C1A68AA4216D12A68E7
:100A10001A60002A0CD050681438FFF7CDFE00246D
:100A20000023301C6B60AB60FFF792FC201C70BD94
:100A300001204042F1E7AA4211D0131C1A68002A93
:100A4000F9D10D4A1368002B07D0AB4203D12B68B4
:100A500013600124E4E71A1CF4E7084B05E02A6858
:100A60001A60F6E7AC42FAD0231C1C68002CF9D1BE
:100A7000D6E7C046D8010020CC010020DC010020D0
:100A8000C36870B5002B17D00C1C051CFFF7B0FF16
:100A90001D2C0BD8FFF78AFE061CFFF787FE801B74
:100AA000A042FAD3EB682869984705E0FFF77EFE7D
:100AB0000119281CFFF748FF70BD0000F7B5041CA2
:100AC0000D1C161E02D1FFF7DBFF28E0FFF790FF99
:100AD000FFF76CFE124B01901F68FFF767FE019B4A
:100AE0008342F5D84019A7606060F619A84200D289
:100AF0000136A660FFF724FC0A4A1368002B0AD0CF
:100B00009968A568A94206D859686568A94202D8BB
:100B10001A1C1B68F2E723601460FFF719FCF7BD8D
:100B2000D4010020DC01002008B500F06FF980221C
:100B30000421044B12039A609A6153331A788A4352
:100B40001A7008BD0044004108B500F0B5FE034826
:100B500009F0CCFE00F05EFE002008BDD1B9000017
:100B600008B5034B01201B68FFF78AFDF9E7C04673
:100B7000E00800201FB50024FFF7E2FB80210D4BA9
:100B8000019400930C4B49001B680F2202930B4801
:100B90000C2300F0ABF8C021094B01940093094BE2
:100BA000C9001B680722029307480C2300F09EF837
:100BB000FFF742FC610B000034000020E001002040
:100BC000490B000038000020E002002010B5041C92
:100BD0002168002907D1201C012200F005F9002816
:100BE000F6D0012000E0002010BD0000F0B585B077
:100BF000041CFFF7EBFF00281ED1FFF7A1FB051C2B
:100C0000201CFFF7E3FF061E03D0281CFFF7A0FB04
:100C100012E00A4F02213868FFF7FCFA3B68201DFA
:100C20001A8901A902920393019600F02FF8281C5B
:100C3000FFF78EFBFFF704FC05B0F0BD3801002084
:100C400038B5051CFFF77CFB2B68041C002B05D076
:100C5000281D00F014F8002804D12860201CFFF79C
:100C600077FB0BE085680721281CFFF7D3FA2D8955
:100C7000201CFFF76DFB281CFFF700FB38BD036845
:100C8000002B01D01A680260181C70470368002B03
:100C900009D05A6894464A68944502D90B600160AD
:100CA00003E0181CF2E701600B60704708B5FFF71E
:100CB00047FB084B1B689A88052A05D91B89064AF9
:100CC0009B00995809689950FFF742FBFFF7B8FB62
:100CD00008BDC046380100203C010020031C1A68F2
:100CE0009A4201D10433FAE7181A7047F0B587B079
:100CF000051C0291059203930F2A68D80323034031
:100D0000191E029B04D00422531A029AC518D31A42
:100D10000322383B93430493EC18039B1B0705D530
:100D20002B1CA34203D21B600433FAE72D60FFF7AC
:100D300007FB0123071C9AB20192274A99005658D3
:100D4000002E29D16B469B888C500C982A1CE3807E
:100D50000D99049BFFF728FB029BE56263630E9BE2
:100D6000012123636B469D8A01231C4A5B42636217
:100D70001368206001331360039B2581A680E66021
:100D800026616661A661E6612662A6620B420BD00F
:100D9000201CFFF73FFA15E00133212BCBD1381C83
:100DA000FFF7D6FA0E4813E0201C0721FFF732FAAE
:100DB000039B5B0706D4381CFFF7CAFA281CFFF711
:100DC0005DFA02E0381CFFF7C3FA019800E005481D
:100DD00000B207B0F0BDC046B00000207C0100208A
:100DE00075FF0000EAFF000070B5041C0E1C151C06
:100DF000FFF7A6FA2368B34203D0FFF7A9FA002051
:100E000003E02560FFF7A4FA012070BD10B50224AD
:100E10002D4A1378A343137000F04EFF0E221021C9
:100E20002A4B2B489A619A690A439A614268224385
:100E300042609A698A439A61264B274A196A0A4096
:100E400080211A621A6A8A431A621A6A40398A43EE
:100E50001A621A6A22431A62DA681207FCD5012163
:100E60001E4A117050781D4940B20028FADB1C4818
:100E700088601C4848601C484880517849B2002965
:100E8000FBDB2F2199640F39D964184B1E39197077
:100E9000174B1B789B07FBD080235B009360842358
:100EA0005B02536053785BB2002BFBDB0321E02332
:100EB000DB000B439BB253805378DB09FCD101313B
:100EC0002329F4D110BDC0460010004000040040AA
:100ED0000040004100080040FFFCFFFF000C004004
:100EE0000108000001060100014100004408004023
:100EF0005008004010B5002802D0012818D031E079
:100F0000002909D001292DD12024184B92B2987BB9
:100F1000204398735A8320E01020144B92B2997B9F
:100F2000014399731A835A7B02435A730F381BE0AB
:100F3000002908D0012915D120240D4B987B20438E
:100F40009873DA6109E01024094B997B2143997366
:100F50009A615A7B22435A7306E05A7B081C22434B
:100F60005A7301E00120404210BDC046002C0042EF
:100F700000300042002805D0012813D10A4B0B4A4B
:100F80005A8009E00A4B094A5A80DA7BD209FCD11F
:100F9000074B188A80B206E0DA7BD209FCD1024BFB
:100FA000186900E000207047003000421080FFFF09
:100FB000002C0042002803D0012806D1034A00E09B
:100FC000034A022113880B4313807047003000420C
:100FD000002C0042002804D0012806D180221203F0
:100FE00001E08022D202014B1A60704700E100E06C
:100FF00038B5012954D12C492C4B4B804B78DB0957
:10100000FCD12B4C284B5C804B78DB09FCD10028B1
:1010100002D0012817D043E02649031C0C88A407FE
:1010200040D48025244C2D01236A2B4323620124C4
:101030000B8823430B800C881E4BE407FBD40C2445
:101040001988A14318E01D4C218849080140C9B204
:10105000002927D1802518496D010B6A2B430B62AB
:101060002388034323802188144BC907FBD40C2415
:101070001988A143043C214319801C881049214050
:10108000602419801988A143041C19800D4B81002C
:10109000CA50FFF79FFF201CFFF78CFF002301E0E1
:1010A00001235B42181C38BD000C00401B410000AE
:1010B0001C410000002C00420004004000300042AF
:1010C000FFF8FFFFE408002010B5174B9A7B191CAE
:1010D000D2060FD501205A7B120902420AD0134AC8
:1010E0001168002919D09A7B0F3002439A73187344
:1010F000002011E08A7B0C4B012092060DD55A7B13
:101100005209024209D0094A1168002905D0202459
:101110009A7B22439A731C738847054B1B68002BEC
:1011200001D0FFF7C3FD10BD002C0042E4080020F1
:10113000AC00002010B5174B9A7B191CD2060FD5B6
:1011400001205A7B120902420AD0134A5168002931
:1011500019D09A7B0F3002439A731873002011E064
:101160008A7B0C4B012092060DD55A7B5209024214
:1011700009D0094A5168002905D020249A7B2243CE
:101180009A731C738847054B1B68002B01D0FFF72F
:101190008DFD10BD00300042E4080020AC000020AE
:1011A00008B50E4B0201D3581A7E520708D5198D87
:1011B0000B4BC0001A18C9B2C3585068984705E0D5
:1011C0001A7E52B2002A01DA80221A76054B1B6879
:1011D000002B01D0FFF76AFD08BDC04638BA0000F9
:1011E000EC080020AC00002010B58A18914209D00C
:1011F000054B0401E3581C7EE407FCD50C78013153
:101200001C85F3E710BDC04638BA000004220B4B22
:101210000001C35810B5DB045B0F9C1EA2400848B8
:101220001233016A0A4302628022D2011343054A43
:10123000538053785BB2002BFBDB10BD38BA000043
:1012400000040040000C0040F0B585B001285DD8D6
:101250000501071C2F480393029208F0F9FE2E4E59
:101260000090381CAC59FFF7D1FF002175196B684D
:101270000A1C181C019300F07EF82E7B0198311C8B
:1012800000F05CF8AD6801210022281C00F073F822
:10129000281C311C00F052F801232360E369DB07AE
:1012A000FCD41E4B009823600A2108F057FF072347
:1012B00019404B03A189C904C90C1943A1810098A5
:1012C0000A2108F0C5FEC004C30CA089400B4003EE
:1012D0001843C0239B02A08163600422E069104090
:1012E000FBD102212368029D0B430D492360FB00C3
:1012F0005D50CB180399A27559600123E404640F73
:101300000734A3401C1C074B1C6001E00120404235
:1013100005B0F0BD80C3C90138BA000004201040F8
:10132000EC08002000E100E008B50020FFF738FFDE
:1013300008BD08B50120FFF733FF08BD70B50122D5
:101340001F23051C9D430340104080008140EC1882
:10135000403413412678EB1816430E328240081CA5
:10136000267030331C7894431C701A781043C0B236
:101370001870002070BD1F2330B5041C18409C431A
:101380001E3B8340012A0DD0002A11D0022A12D11F
:1013900004252218403263611570012910D1012003
:1013A000404215E0042522184032A361157002E086
:1013B000251840352A70012902D1A360636106E037
:1013C000022220186360403003781343037000202A
:1013D00030BD0000F8B5C405A40F012C49DC1F2561
:1013E000640105406419254D665D74B2651C42D0E8
:1013F000071C2348151C0A1CE1000B50069B4118D2
:101400004B60381C0021FFF7B6FF0021381CFFF7A6
:1014100095FF40211B4A93690B4393611A4B1B4A6A
:101420005A805A78D209FCD107210F203140890017
:101430008D408840E310164A9B009B189A69291C2E
:1014400082439A611022986901439961114B1A6095
:101450000123A3401C1C0E4B1C615A6922435A6194
:101460000222DC601A705A7852B2002AFBDB002498
:1014700001E001246442201CF8BDC04658BA0000B7
:10148000FC08002000040040000C00400540000063
:101490000018004000E100E01F23021C9A430340B3
:1014A00001209840906170471F23021C9A4303401B
:1014B000012098405061704710B500240123A340DB
:1014C0000B4A1169194209D01361D2681A4205D03A
:1014D000084BE20099184868D35898470134102CFB
:1014E000ECD1054B1B68002B01D0FFF7DFFB10BDD3
:1014F00000180040FC080020AC00002030B5141C8F
:10150000002C0FD08568C3689D420BD08568013CD4
:101510006B1C83604368013B2B400568EB5C0B70E0
:101520000131EDE7101B30BDC26830B543688468F7
:10153000121B9A4208D0C2680468013B551C134034
:10154000C560E154002001E00120404230BD0000B0
:10155000F0B5071C95B0081C0E1C09F003FB032412
:101560000390002107A8102204940C9409F018F9A4
:101570000FA8391C0CAD05F03BF8002805D1144824
:10158000391C09F0B3F9012020E0124B04AA938022
:10159000201C01211122AB8005F02AFA041E03DA77
:1015A0000D4809F039FAEEE7202300950193201C3D
:1015B000311C039A002305F053FB002802DA074888
:1015C00009F02AFA201C05F051F9002015B0F0BDF1
:1015D000C5BA0000190E000098BA0000B2BA0000A7
:1015E00008B5032804D0054809F016FA012003E0E5
:1015F00048688968FFF7ACFF08BDC046F3BA000031
:1016000008B5044809F008FA03480449FFF7A0FFA9
:1016100008BDC0460DBB000026BB0000EABB0000B1
:10162000F0B508219FB0474800F034FB012111229A
:10163000032005F0DDF90323061C002107A8102272
:10164000049309F0ADF8404B04ACA3803F48002E52
:1016500007DB301C211C202205F03EFA002805DAA9
:101660003B4809F0D9F900201FB0F0BD394C0021EA
:10167000201C402209F094F83748384909F036F91F
:10168000374809F0C9F9202303930CAB009303AB4F
:101690000193301C211C4022002305F067FA051E2F
:1016A00004DA304809F0B8F9002345E02E48002D4F
:1016B000F8D014A80FA9282205F022F8002803D199
:1016C00008F05AFE1C230360201C284909F038FA50
:1016D000274F002805D1274814A909F007F9264803
:1016E0000FE0201C391C09F02BFA002801D12348F7
:1016F00016E0201C224909F023FA224F002808D1C5
:10170000214814A909F0F2F814A8391CFFF720FFAA
:10171000CAE7201C391C09F013FA002802D11B4823
:1017200014A906E014A91A482A1C09F0DFF8211CA4
:10173000184809F0DBF8B7E7AB42A1DA0022E2541F
:101740000133F9E77C0D0020190E000098BA000063
:101750002EBB0000BC0D002043BB00000E19000092
:101760006CBB000075BB000086BB0000EABB00003C
:1017700011BC000099BB0000B5BB0000CBBB000052
:10178000E7BB00000EBC0000EFBB000016BC000071
:1017900035BC00005FBC0000F0B51A230E2485B0F4
:1017A00003AD02AE2B806C440933301C238002F061
:1017B000DFFB002801D113480BE0022700210023A2
:1017C000F05E0A1C00972B1C02F0A8FB002805DA2B
:1017D0000D4809F021F90120404211E00023F05E9C
:1017E000062100970022231C02F098FB002801DA52
:1017F0000648EEE729882288054809F077F8002096
:1018000005B0F0BD75BC0000AABC0000E0BC000043
:1018100015BD000010B51B48A4B009F0FDF81A4C26
:10182000201C09F0F9F81949194809F05FF819491D
:10183000194809F05BF8201C09F0EEF8FFF7ACFF3F
:10184000002806DA154809F0E7F80120404208F0C0
:1018500099FD134B8021009300230193114BC90084
:101860000722029310480823FFF740FA0F4809F0B7
:101870003DF80F4809F0D0F80E4804A9802205F081
:1018800025FBC04641BD000065BD00009EBD0000B7
:1018900076BD0000CCBD0000AABD0000D3BD000095
:1018A00021160000F8BD00007C09002001BE0000E8
:1018B0001ABE000058BE000008B5FFF737F802F066
:1018C00003FD02F07BFF00F057FB04F00FFE00F079
:1018D00003F801F037F908BD1FB50C4B0C4C009311
:1018E0000C4B201C01930C4B0021029303220B4B49
:1018F00006F0C0FD002807DB802100940848C900DD
:101900000322084B02F028FC1FBDC0468044004162
:10191000FC110020144400418F4400419F440041C9
:10192000FC0D00207CBE000010B5026AC469436A49
:10193000141B9C4201DD002009E0541C046213408A
:10194000F9D4826ADB00D31805C905C3012010BD94
:10195000F0B51E1C284B8900CC58284B87B01B883B
:101960000190171C0380002C05D10125301CFEF7C7
:10197000EFFC6D423CE0A388032B2BD0201C019987
:10198000FFF7D2FF051E0BD0301CFEF7E1FC1C4B0D
:1019900001251B689B88052B2AD1FEF751FD27E006
:1019A000002F03D1301CFEF7D3FC21E0144F03A914
:1019B0003B681A890390201C183004920593FFF7A6
:1019C00065F93868019B4361818805394A424A417B
:1019D000111D05E06369019A03CA03C3201C072196
:1019E000FEF718FC301CFEF7B3FC0125FEF728FDBE
:1019F000281C07B0F0BDC046B00000203401002014
:101A000038010020F7B5041C0E1CFEF799FC374B7B
:101A1000374A1B88071C1BB29B009D58AA6A002AE4
:101A20001AD0EB69296A994216D0591CE961696A92
:101A30000B400193002E07D1591C05D10124381CFD
:101A4000FEF786FC64424FE0002B0ADBDB00D31874
:101A5000221C03CB03C205E0002EEFD001235B4222
:101A600001936C61281C1830FFF709F9002811D187
:101A7000019B002B09DA281C0321FEF7CBFB381C45
:101A8000FEF766FCFEF7DCFC02E0381CFEF760FCAB
:101A9000012429E0019B8668002B0EDB2C6AEA6991
:101AA0006B6AA96AA21A9A4203DC621C2A621C4071
:101AB00001E001246442E4000C1973690F2506CB90
:101AC00006C4B388052B06D00023301C73610721A0
:101AD000FEF7A0FB3589381CFEF73AFC01240E2DD9
:101AE00002D8281CFEF7CAFB201CFEBD34010020D2
:101AF000B000002038B5041CFEF722FC074B051C83
:101B00001B88211C2380064B1868FFF70DFF041C5F
:101B1000281CFEF71DFC201C38BDC04634010020E7
:101B2000380100200E4A8900031C885810B500288F
:101B300012D0191C21230B808388032B09D1436900
:101B400014C914C30721FEF765FB0120054B18607B
:101B500004E0FFF7E9FE01E00120404210BDC0466D
:101B6000B0000020AC00002038B5051C0C1CFEF7AE
:101B7000F2FB002804D0281C211CFFF7D3FF10E043
:101B8000084B1B881BB2A34203D1281CFFF7B2FFEE
:101B900007E0FEF7D5FB211C031C0122281CFFF7E0
:101BA000D7FE38BD3401002070B5051C0C1CFEF7B3
:101BB000D2FB061E04D0281C211CFFF7B3FF10E047
:101BC000084B1B881BB2A34203D1281CFFF792FFCE
:101BD00007E0FEF7B5FB211C031C321C281CFFF795
:101BE000B7FE70BD34010020F7B5104D061C2B88E0
:101BF0000F1C1BB2141C934203D103200C49FEF7A7
:101C0000ABFAFEF79DFB2B880A4A1BB29B009D583E
:101C100001900521281CFEF7FDFA6F61301C211C84
:101C20000122019BFFF794FEFEBDC0463401002057
:101C3000F9B60000B000002070B5041C0D1CFEF7C2
:101C40007FFB0022A35E0F4A9B009C58061C002CC1
:101C500015D0A388052B02D0FEF77AFB0FE063694D
:101C6000201C06CD06C30721FEF7D4FA2489301CB8
:101C7000FEF76EFB201CFEF701FB012001E00120B6
:101C8000404270BDB000002008B50121FFF7BAFE48
:101C900008BD0000002909D04A1E114006D1054B9D
:101CA0001B689862D96119625A6201E001214942B8
:101CB000081C704738010020134A144B116A30B5D4
:101CC0000B408021C9030B4380211362D369C905EE
:101CD0001B021B0A0B430021D3618B080C4A9B009B
:101CE0009B180322FF20C0240A40D2009040A40089
:101CF0001D590131854340209040021C2A431A514E
:101D00001C29EAD130BDC04600ED00E0FFFF00FF16
:101D100000E100E010B5031C041E8C4204D14468AD
:101D200008E08A4204D0131C5A68002AF9D101E065
:101D30004A685A600023081C4B6002F0DBFB201C41
:101D400010BD38B5151C02F057F9041E0DD008233C
:101D5000E05E291C02F0C0F8002802DC281C02F01A
:101D6000C9FB201C02F070F9EFE738BD38B58B686D
:101D7000051C58800C1C00F0C3FD002803D1033063
:101D80001449FEF7E9F900226368002B03D0D968F3
:101D90005B685218F9E75D33FF33C35A9A4203D99F
:101DA000201C02F0A7FB13E0AD235B00C35A012007
:101DB000034207D00849094A231C02F055F80028BD
:101DC00006D1EDE7281C211C02F07AF80028E7DD97
:101DD00038BDC046F9B600000000FFFF0202000057
:101DE000F8B5051C0F1C161C00238C68002A03D0B4
:101DF000D16852685B18F9E75BBA9BB223711B0A82
:101E00006371A379FF2B0AD1337C023BDBB2022B37
:101E100003D8584AD35CFF2B00D13B23A371E3794D
:101E2000002B09D14033002D05D0281C00F068FD9F
:101E3000AF235B00C35CE371627A207A1202024333
:101E4000111CA27AE37A12040A431B061343627B35
:101E50009C46207BA37B120202431B0413431A1CE3
:101E6000E37B1B0613436246134368D1627C207CEC
:101E700012020243111CA27CE37C12040A431B06DB
:101E80001343627D9C46207DA37D120202431B0406
:101E900013431A1CE37D1B061343624613434ED1C2
:101EA000627E207E12020243111CA27EE37E120497
:101EB0000A431B061343627F9C46207FA37F1202C6
:101EC00002431B0413431A1CE37F1B0613436246A1
:101ED000134340D1631CD87FA31CDA7FE31CDB7F54
:101EE000120202431B0413431A1C231DDB7FA11D96
:101EF0001B061343C97F621DD27F09021143E21DF5
:101F0000D27F1BBA12040A43111C221C0832D27F52
:101F100012060A4312BA012A1DD1002B1BD12372CB
:101F20006372A372E37223736373A373E373237403
:101F30006374A374E37423756375A375E275301C31
:101F4000391C02F08CF8031C0020834210DA9A1C22
:101F50000ED0181C0CE0211C281C183100F04EFD7E
:101F6000011EECD0201C1022083008F010FCE6E71F
:101F7000F8BDC0468ABE00001FB50B4C0022A35E10
:101F8000002B0CD18021094A0193094B0092029346
:101F90000848C90004220823FEF7A8FE2080002379
:101FA000E05E04B010BDC046301200209521000054
:101FB00085BE00003212002070B502230C1C151ED5
:101FC000292D07D001333A2A04D0131C113B5A4261
:101FD00053419B002374292D05D03A2D15D1211C86
:101FE00007F070FA11E0002323746168002907D01C
:101FF0001023CB56022B03D1201CFFF78BFEF4E7F6
:102000000223201C237400F023F810200F492056CF
:1020100002F004F8291C061C022001F0FFFF301812
:10202000002803D1201C02F065FA0EE0411E201C9E
:1020300002F04CFA102005492056221CFFF781FEC1
:102040000220291C221CFFF77CFE70BD0000FFFF50
:10205000F8B5061C051E06D103204D49FEF77CF895
:102060006D68002D05D01023EB560133F8D1AB6815
:102070005D88706800280DD01023C356022B09D14B
:10208000C368282B06D10F2283681B789343602BEB
:1020900073D111E00F22B3681B789343602B6CD18E
:1020A000301C02F057FA041E67D02821022202F0E9
:1020B00045F9261C002860D08468617923790902DB
:1020C000194349BAF36889B2994202D2301C02F02E
:1020D000ABF9627E207EA77E120202433F04111CF0
:1020E0003A1CE37E0A431B061343627F1F1C207FBA
:1020F000A37F120202431B0413431A1CE37F1B0637
:1021000013433B4325D1631CD97FA31CDB7F1B02F8
:102110000B431A1CE31CDB7F1B041343221DD27FDD
:1021200012061A43631DD87FA31D171CDA7FE31D17
:10213000DB7F120202431B0413431A1C231C0833C7
:10214000DB7F1B0613431BBA3ABA012B01D1002ACD
:1021500017D0211C1831002D06D1281C00F036FCA8
:10216000051C6842684105E028B200F00FFC031C22
:1021700058425841C0B2002803D0301C02F0BAF9CE
:1021800004E028B2A279311CFFF716FFF8BDC04663
:10219000F9B6000010223023F0B5A1B000AFBA1894
:1021A000D0180821FFF776FD10222423BA18D11881
:1021B000C64B02204B60C64B1B880B8101F0E4FE2E
:1021C00010211423C34A7918CB185A8010220C23EB
:1021D000BA18D418201CFFF757FD6088BE4BC018F2
:1021E0002128F3D807F020FF220026004B014B01E5
:1021F000F2FFF2FFF2FFF2FFF2FFF2FFF2FFF2FF57
:10220000F2FFF2FFF2FF56015C016101F2FFF2FF03
:10221000F2FFF2FF6501F2FFF2FFF2FFF2FFF2FFC1
:10222000F2FFF2FFF2FF69016D017C016068FFF7C8
:102230000FFFCBE76368FB601B7C5BB201330CD103
:10224000FB68F8689B68BB605D8802F083F9041E38
:1022500000D1C5E04368FB6001E00025FC68F86838
:1022600002F078F9061E03D1201C02F043F9ADE715
:10227000FB68A34201D0606000E0041CB368726890
:10228000197EFA60FF292FD1002D1BD110221C23AB
:10229000BA18D01801F06CFE0028E5D00020012308
:1022A000011C08225B42BD8D02F02AF80028DBD019
:1022B000002283681A705A705A805A719A711A7182
:1022C0004460041C2DB2281C311CFA68FFF788FDFD
:1022D0000028C9DB4021A268281C13790B43137125
:1022E000211CFFF743FD71E75A7E120211439A7ECB
:1022F00012041143DA7E12060A43597F94461A7F6C
:10230000090211439A7F12040A43111CDA7F120654
:102310000A4361460A4327D15A1CD07F9A1CD27FB8
:1023200012020243111CDA1CD27F12040A43191D47
:10233000C97F090611435A1DD27F081C94469A1D75
:10234000D17F624609020A43111CDA1DD27F1204B2
:1023500011431A1C0832D27F12060A4312BA01BA7C
:10236000012A01D100290CD01833BB60002D39D1CE
:1023700010220823BA18D018B96800F027FB051EF0
:1023800036D028B2311CFA68FFF72AFD002800DA9F
:102390006AE7311C0022CB684968D2180029FAD1BB
:1023A000081C022301F0ACFFF860002800D15BE7B5
:1023B000FB689D68281CB168F26808F0E8F9F368CA
:1023C0007668ED18002EF5D1201C02F093F8434BEF
:1023D000F9680020185E01F07FFD002800DDF5E6B9
:1023E000F86842E728B2B96800F0D0FA0028C8D1EE
:1023F0006B4610217B6008237918FB751433C818CD
:10240000053B2AB2F918BB6803F0A4FD051E70D085
:10241000311CFA68FFF7E4FC00286ADBFB7DFB60F7
:102420001023E356013304D1201C211CFFF772FC5A
:10243000041C00200123FA68011C08325B4201F0F1
:102440005FFF061E55D000228368397B1A705970D1
:102450005A805A719A711A71FB6893424FD08368FF
:10246000F9685A788A424AD1187810220830181828
:102470001C23BA18D118FA6808F089F93FE08623BE
:1024800010225B42BB62BA189A33201CD118FFF7A6
:10249000D3FB9BE608216268537E8B43537695E617
:1024A0000020616800F05EFA90E6606800F012FFBC
:1024B0008CE6606800F09CFF88E6606803F098FC9A
:1024C00084E6606803F0ECFC80E6C0460000FFFF95
:1024D0003401002005020000FFFDFFFF3012002044
:1024E0006368587C0F23184002F0DEF90023037460
:1024F0006CE6201C01F0FEFF7B689D4666E674607A
:10250000281C311CFFF732FCF6E7C046F0B54378D3
:10251000021C04781B022343181C937814791B04B3
:102520000343D07897790006184353793F041B0280
:1025300023438446181C3B1CD77903433F061F43A3
:102540004B780C788E781B0223433604181C331CFE
:10255000CE780343360648791E430D798B79000205
:1025600028431B040343181CCB791B060343B445C3
:1025700036D19F4234D1537A157A967A1B022B4377
:1025800036041C1C331C2343547B107B977B240292
:1025900004433F04251C3C1CD67A2C4336061E43BC
:1025A000D37B4A7A1B0623431F1C0B7A12021A4361
:1025B000141C8A7AC87A12042243000610434A7B0C
:1025C0000D7B8B7B12022A431B0413431A1CCB7B0B
:1025D00070401B0613437B4018434342584100E0C0
:1025E0000020F0BD70B54378047886781B02234341
:1025F0003604191C331CC2780B4312061A43161CEE
:102600004179057983790902C27929431B040B4377
:102610001206191C131C321C0B431A4300239A4246
:102620001AD1427A047A857A120222432D04111CAF
:102630002A1CC37A0A431B061343427B1D1C047BDE
:10264000837B120222431B0413431A1CC37B1B0609
:1026500013432B4358424341181C70BDF7B5061C69
:102660005136FF36071C301C01910025FEF7BEFADB
:1026700038246C433C19201C0199FFF747FF0028C0
:1026800006D0002323606360A360E360237402E04C
:102690000135062DECD1301CFEF7D2FAF7BD000053
:1026A000F0B5071C0D1C061C002485B051370090A6
:1026B00002920393FF37301C291CFFF727FF0028E5
:1026C0005ED1301CFFF78EFF002802D0002C00D115
:1026D000341C3836BE42EED10194002C51D0201C5F
:1026E000291C102208F053F86B461B7A63746B4662
:1026F0001B7B23742378FF2B18D0AD23009A5B003B
:10270000D35ADB0712D501F00FF8071E0ED0301C8C
:10271000FEF796FAAC23009A5B00D05E211C3A1CAF
:102720003B1C01F0EFF8301CFEF760FA2B78FF2B12
:1027300002D1237C01221DE06A782879120213431A
:10274000AA7812041343EA7812061A43161C6A790F
:10275000AB79120202431B0413431A1CEB791B06CC
:10276000134332BA002B07D1074B9A4204D180227F
:10277000237C524213432374044B6463638600E05A
:102780000196019805B0F0BD000080FE1102000026
:1027900030B5021C002906D00378FF2B03D1407806
:1027A000F03B184039E0537810781B020343191CA2
:1027B000937814791B040B43D178090619430D1C37
:1027C00051799379090221431B040B43191CD379D6
:1027D0001B060B4329BA002B03D1104B0220994250
:1027E0001BD01178FF2904D10F23507818400228FC
:1027F00013D0137852780A4C100203433F205BBA7F
:102800009BB283433A38A34207D00E20FF2904D15C
:1028100001301040052800D00E2030BD000080FEA1
:10282000C0FE0000F7B50025071C0C1C2E1C0192F1
:102830000093009B002B09D001231A1CAA40009989
:10284000097811421BD0227C1A4218D1201CFFF7B4
:10285000C9FE002813D1201C019903F07EFE009BC5
:10286000002B06D1019B1B78FF2B02D0637C834297
:1028700005D8B04203D9061C002F00D03C600135BA
:102880003834062DD5D1301CFEBD0000AC23F0B588
:102890001A4C5B00E55A85B02BB2071C83422BD043
:1028A000002D29D1291C10226846261C07F078FF2C
:1028B0006A46FF2351361370FF36FD3B5370301CC0
:1028C000013BD373FEF792F9AC23A0225B00E752E1
:1028D000D2000433E25240220233E254043BE55278
:1028E000694692182B1C201CFFF7DAFE301CFEF7FD
:1028F000A7F9201C00F08AFD05B0F0BD34160020B9
:10290000AC23044A5B00D15E0023814200D1131C3A
:10291000181C704734160020F7B50C1C171C0193C7
:10292000FFF7EEFF051E1BD0201E19D0FFF75AFE41
:10293000031C0020834213D1181C802F10DC2E1C96
:102940005136FF36301CFEF751F9211C3A1C019B11
:10295000281CFFF7A5FE041C301CFEF771F9201C93
:10296000FEBD000010B50C1C002806D1AC230648A3
:102970005B00C35E002B05D001E0FFF7C1FF211C07
:10298000FFF76CFE10BDC04634160020F8B50F1CD2
:10299000FFF7B6FF051E16D0061C5136FF36301C59
:1029A000FEF724F9281C391CFFF7B0FD041E03D0E4
:1029B000301CFEF745F906E03835AE42F2D1301C46
:1029C000FEF73EF9251C281CF8BD000070B5AC24AC
:1029D000094D6400061C285F002E05D1FFF7D6FFC5
:1029E000002805D1002004E0FFF7D0FF3060F7E7B2
:1029F000285B00B270BDC04634160020F0B58BB025
:102A00000291FFF77DFF031C5133FF330090181C28
:102A10000393FEF7EBF806A80021012207F0C0FEA1
:102A2000009F01233D1C00245B4201932B78FF2B68
:102A30000CD0281CFFF7D6FD002807D10123A340A6
:102A400006AA12780194134306AA1370013438358C
:102A5000062CEBD1019B002601336CD0221C311CCB
:102A600008A807F09DFE02980121FFF791FE341C93
:102A7000351C06AB1B78049005930123AB40059AE7
:102A80001A422FD00299381CFFF740FD3E1C011E50
:102A90004AD1381CFFF77CFE049B984208D108AA53
:102AA000AB5C0433DBB2AB54A3420ED904240CE07C
:102AB000049B984209D208AAAB5C0233DBB2AB5448
:102AC0001A1CA34200D2221CD4B2BB69002B09D02D
:102AD00008AAAB5C0133DBB2AB54221C9C4200D28F
:102AE0001A1CD4B201353837062DC6D1012206A8EA
:102AF000002107F055FE06AB1A78002308A9595C9F
:102B0000A14203D1012199400A43D2B20133062BDD
:102B1000F4D106AB1A70002307A807930099029A14
:102B200006ABFFF77FFE079E002E04D1019B3836CF
:102B30005E43009B9E190398FEF782F8301C0BB091
:102B4000F0BD0000F0B58DB005A801F011FA002726
:102B5000039005AC039B9F4200D1A1E00023E05EFF
:102B6000FFF7CEFE051E00D197E0031C0B26513364
:102B7000FF33181C0293FEF739F802ABF618002356
:102B800033700023E05E01230E2100930022331CEA
:102B900001F0AEF9863029D000217156012925D1E6
:102BA000082206AB1A8008AE093A32808A32FF3218
:102BB0007A433C485B32FF3282181088014311800F
:102BC0000022A05E022205210092002201F0A6F957
:102BD0000023E05E0223092100930022331C01F050
:102BE00087F90023E05E318803F05AFB0023E05EA2
:102BF000082306AE009307210022331C01F078F968
:102C0000002819DB337808A90B727378264A4B72B7
:102C1000B378281C8B72F378CB7233790B7373798A
:102C20004B73B3798B73F379CB73002308920993B9
:102C300040220023FFF734FD0E260023E05E02ABA6
:102C4000F6180223092100930022331C01F050F9E9
:102C5000002806DB3388154A934202D9AE2252007F
:102C6000AB520023E05E0423002200931821331CA2
:102C7000AD2601F03DF976008022AB5B002801DD36
:102C8000134300E09343AB530298FDF7D9FFAB5BCE
:102C9000DB0702D5281C03F06FF80137023459E72F
:102CA0000DB0F0BD34160020FE800000FF040000CF
:102CB000F0B585B0071C0391161C1C1C863324D06C
:102CC00006F0E4FD051E08D10322A3B20092381CD1
:102CD0000399321C06F032FD17E0071C027EA3B2F6
:102CE00010379A420AD0311C2C76381C221C07F06F
:102CF0004EFD281C032100F06BFE06E0301C391C41
:102D0000221C07F035FD0028EDD105B0F0BD000014
:102D1000F0B5D4798DB0FF2C00D0B4E05C78002CF5
:102D200000D0B0E0129C172C00D8ACE01C7AFF2C2D
:102D300000D1A8E0557A147A2D0225432F1C957AEC
:102D4000D47A2D043D4324062C43557B261C147B4A
:102D50002D022543947B24042C43251CD47B24067C
:102D60002C43344346D1557C147C2D0225432F1C23
:102D7000957CD47C2D043D4324062C43557D261C94
:102D8000147D2D022543947D24042C43251CD47DE1
:102D900024062C4334432DD1547E157E24022C432B
:102DA000957E271C2D042C1CD57E3C432D06577F79
:102DB0002543147F3F022743947F2DBA24042743E1
:102DC000D47F24063C4315D1304CA54212D1541C6B
:102DD000E57F941CE77F3F023C1C2C43D51CED7F14
:102DE0002D0425432F1C141DE57F2D063D432DBAD0
:102DF000012D44D00591191C08311C1C0392051C9F
:102E0000FFF7C4FD049000283DD0129B183B0293AD
:102E100000231E1C029A002A17DD371C1837E719F9
:102E20003A78012A09D106AB2278059800930399D4
:102E30003B1C00F075FE031E25DB7A780299D20058
:102E4000B6188A1AB6B20292E4E7039C281C08342A
:102E5000211C06AAFFF72CFF211C102208A807F04E
:102E600096FC039B281C1B7E0499FF3B5A4253414E
:102E70000022DBB2009208AA00F07AFC03E0541DA5
:102E8000E47FFF2CB6D10DB0F0BDC046000002FFBC
:102E9000F0B51F1C08338DB00E1C191C089305904B
:102EA0000992129C06F0F2FC099BDB79FF2B00D003
:102EB000BBE07D78002D00D0B7E0172C00D8B4E03F
:102EC0003B7AFF2B00D1B0E0002800D1ADE0183CE8
:102ED00007940695079B002B2CDD069C18343C19A3
:102EE0002378022B0CD0212B15D100233A7805989A
:102EF0000193029300940999089B03F029F90AE0D1
:102F00000AAB3A78301C00930999231C00F067FE45
:102F1000051E00DA89E06378069ADB00D21892B2C7
:102F20000692079AD31A0793D4E71023F356013376
:102F300003D07668002EF8D100E0B66805980899AD
:102F400006F0A4FC041E70D00723427E1340022B1F
:102F500016D1002E05D03378002B02D07378002BC9
:102F60003AD16B46201C9B8A2576638310300AA9D0
:102F70002A1C07F00CFC3B79201C5B061FD519E0CE
:102F8000002E05D03378002B02D07378002B3DD172
:102F90000026002D03D1267E701E8641F6B23B79B5
:102FA0009B061CD4002E1AD0002D25D13B795B0640
:102FB00002D5201C072103E0002E03D0201C032192
:102FC00000F006FD3979637E08227F2901D9134379
:102FD00000E09343637628E0002DC2D125E0002D68
:102FE000E4D06B46201C9B8A257663830AA92A1CA1
:102FF000103007F0CCFBD9E70723627E1340072B84
:1030000013D1201C032100F0E3FC0EE02E1EC6D0DD
:10301000237E00269D42C2D0201C0AA910302A1C03
:1030200007F0A6FB46424641B9E70DB0F0BD0000EF
:10303000F0B58FB00B9103921C1C0690FFF760FC5B
:10304000039B04905A7A1D7A9B7A12022A431B042E
:1030500013431A1C039BDB7A1B061343039A1BBA08
:10306000517B177B927B0902394312040A43111CDE
:10307000039AD27B12060A4300D022E1924A93427D
:1030800000D01EE1FF2D00D11BE1039BDB79FF2B5C
:1030900000D016E16378002B00D012E1149B0F2BB7
:1030A00000D80EE1039B06980833191C099306F01B
:1030B000EDFB0822061E09D10092331C321C069833
:1030C000099906F03BFB061E0DD1FAE0437E134240
:1030D00006D0E179A0790902014301D1934301E0CF
:1030E000082213437376E379A2791B02134300226B
:1030F000059293420ED05BBA9BB20593059A734931
:10310000301C5143321C724B1C301B8830321BB2B6
:1031100005F01EF92379002B03D0AF220499520049
:103120008B54AD22049B52009B5A9B04990C049B28
:10313000995263799B099B030B4304998B52637AE1
:10314000217AA57A1B020B432D041A1C2B1CE57A4D
:1031500013432D061D4311D0049F2DBAFC377B6EFF
:10316000AB420BD003F026FE7D660A2106F0F6FF87
:10317000481D68430A2106F06BFFB866627B207B1E
:10318000A37B120202431B0413431A1CE37B1B069E
:10319000134303D0049A1BBAFC32D3660027049869
:1031A0005130FF30FDF74CFD149B0897103B0793FF
:1031B000079B002B5EDD3D1C103565192B78032B1A
:1031C0001CD002D8012B05D04CE0052B0ED0222BB1
:1031D0002ED047E00CAB22780B98009303992B1C60
:1031E00000F09EFC089000283CDA6AE021780698FE
:1031F0002A1C00F052FD002834D162E021780698A4
:103200002A1C00F071FD00285BD06A792879AB791F
:10321000120202431B0413431A1CEB791B061343CF
:103220001BBA002B1ED0059A9A421BD9059319E0B0
:103230002078291C03F014F8002842D0EA79AB79F1
:10324000120213435BBA9BB20A93002B0AD0059873
:103250003C2106F0FDFE0A9B834203D23C230A9ADE
:103260005A4305926B78DB00FA1897B2079AD31A83
:1032700007939DE709990CAA089B0698FFF718FD8C
:1032800004986D30FF30FDF7B3FBAD230121049AA4
:103290005B00D35A0B4214D00323059A5343042BEB
:1032A00000D9990860230024049AFF33D454301CB9
:1032B00002F002FF1A23F05E211C321C331C00F0C6
:1032C00021FB0FB0F0BDC046000080FE40420F0061
:1032D000340100200723F0B5427E89B01A40022A4B
:1032E00001D0052A79D1071C70373D78041C012DC7
:1032F0006ED904AE022A12D1802300215B0406930A
:10330000FF233748337304900591211C1620637BFB
:103310000E31737302ABC01807F039FA05E0031CD5
:10332000321C03CB03C203CB03C2013D3D70658B4E
:10333000002D23D103AF381C00F01AFE0190019B31
:103340009D4208D06B00F85E0021221C331C00F067
:10335000D9FA0135F3E7261C224B3836301C1D887C
:10336000FDF746FB231C204A4E331A80221C2BB249
:103370004C32301C1D4904F0EBFF2EE028B2FFF761
:10338000BFFA051C1A23E05E331C2E1C271C513685
:10339000221C0021FF3600F0B5FAFC35301CFDF789
:1033A00025FCEB6E383701930E4B381C1D88FDF75A
:1033B0001FFB231C0C4A4E331A80221C381C4C3233
:1033C0002BB2019904F0C4FF301CFDF739FC04E076
:1033D0001A23C05E211C06F0B7FA09B0F0BDC04642
:1033E000FF020000301200201202000040420F00D5
:1033F00008B50723427E1340042B03D00321072B7B
:1034000001D002E0052100F0E3FA08BD70B5061C0A
:10341000041C5136FF360B4D301CFC34FDF7E6FB27
:1034200003F0C8FC65660A2106F098FE481D684353
:103430000A2106F00DFE044BA066E366301CFDF782
:10344000FFFB70BD80C3C90140420F00F8B5027890
:103450000023FF2A5AD01A1C041C1833081C872189
:1034600006F094F80022031E93424FD083681A712D
:103470005A719A71DA7162782678A1781202324311
:103480000904151C0A1CE1782A4309066579277985
:103490001143A2792D023D4312042A43151CE279FF
:1034A000197212062A430D0A5D720D0C090ED972AB
:1034B000110A1A735973110C120E99739D72DA73F3
:1034C000627A257AA77A12022A433F04111C3A1C19
:1034D000E77A0A433F06617B267B1743A27B0902FA
:1034E000314312040A43111CE27B1F7412060A4383
:1034F000390A5974390C99743F0E110ADF741A7520
:103500005975110C120E9975DA75031C181CF8BD4B
:10351000F8B50C780023FF2C5CD00C1C051C88210E
:10352000101C1A1C183306F031F8031E52D01F224B
:103530009543002283681D71DA719A715A7162781D
:103540002678A178120232430904151C0A1CE1787E
:103550002A430906657927791143A2792D023D4353
:1035600012042A43151CE279197212062A430D0A25
:103570005D720D0C090ED972110A1A735973110C70
:10358000120E99739D72DA73627A257AA77A120203
:103590002A433F04111C3A1CE77A0A433F06617B29
:1035A000267B1743A27B0902314312040A43111CF4
:1035B000E27B1F7412060A43390A5974390C997454
:1035C0003F0E110ADF741A755975110C120E997598
:1035D000DA75031C181CF8BD08B5852100220823E4
:1035E00005F0D4FF002805D0002283681A715A71B3
:1035F0009A71DA7108BDC9B2073110B5F823041CFD
:10360000101C0A1C00211A400B1C00F079FE002837
:1036100004D082681470C368DB08537010BDF8B51D
:103620000F1C161C911C1A1CFFF7E5FF041E0CD082
:10363000836800219D1CC368281C9A1E07F0B0F8FF
:10364000281C391C321C07F0A2F8201CF8BD38B524
:10365000051C0C1C131C291C221C0120FFF7DFFF7A
:1036600038BD38B5051C0C1C131C291C221C02205B
:10367000FFF7D5FF38BD7FB50E2402236C440E1C26
:10368000009305210022231C051C00F031FC0028BA
:1036900002DB2388062B0ED80823281C0093022166
:1036A0000022331C00F024FC002801DB20800DE008
:1036B000002323800AE00823281C00930321002212
:1036C000331C00F015FC0628E6DDEFE7208804B087
:1036D00070BD73B5141C1022061C0092081C191C26
:1036E000231C05F081FF051E1DD0FF230020AA68C2
:1036F000011CD371013B0822FF3B00F001FE0022B8
:10370000041E94420AD083681A705A705A719A71D2
:103710001A715A8083685E80456003E06860281CE7
:1037200000F0E8FE201C76BD002038B506F040F918
:10373000041E0BD00723627E1340013B012B03D9EB
:1037400000220A4B1A600EE0201CEFE7074D2868A4
:1037500006F02EF9002804D1201C06F029F90028D3
:1037600001D0041C2860201C38BDC046BC170020B6
:10377000F0B5AD2685B01F1C051C0191141CFFF788
:10378000BFF87600835B9B0701D4002606E0281C67
:10379000FFF7B6F8835B5B07F7D580266278207861
:1037A00012020243111CA278E37812040A431B069A
:1037B000134362799C462079A379120202431B04C9
:1037C00013431A1CE3791B0613436246134300D0CC
:1037D0008AE0627A207A12020243111CA27AE37A0A
:1037E00012040A431B061343627B9C46207BA37B87
:1037F000120202431B0413431A1CE37B1B061343F0
:103800006246134370D10122A370E3702371637188
:10381000A371E37123726372A372E3722373637300
:10382000A37301235242227003326270E373002FAC
:103830000DD0281C02A9FFF71EFF002807D0C1B237
:103840000A9A02A8FFF70DFF002810D00A900A9BE1
:10385000002B05D0019B1B7CDB0701D420231E43DA
:10386000301C01990A9AFFF753FE071E01D10A98EE
:1038700037E0281C391C221C0023FFF72AFF061CF6
:10388000381C002E2DD0019B1A4F1B7CDB0720D546
:1038900003F090FA184906F061FC281C0191211CE4
:1038A00005F0F4FF041E03D103201449FCF754FC77
:1038B000051C5435281CFDF79BF8221C104B683260
:1038C0005380281C00217B5EE666019904F040FDD0
:1038D0000DE00023F85E311C00F0F2FA002806DC4F
:1038E000301C00F007FE02E040231E439FE705B0B6
:1038F000F0BDC0463012002040420F00F9B6000073
:1039000002020000F0B589B0051C0F1C049205935B
:10391000FEF7F6FF0390002803D103202A49FCF7A5
:103920001BFC002F08D1281C0499FFF767F800261C
:10393000071C341CB0420ED0281C06A9FFF79BFEC2
:103940000024061EA64206D0C1B2221C06A8FFF71C
:103950007EFE041E33D0AD23039A5B00D35ADB07EF
:1039600015D5082E0AD00823281C00930321002215
:1039700006AB00F0BDFA80B2082820D100200F214C
:1039800006AA231C02F0C6FB002818D0041C0498C9
:10399000211CFFF75BFD061E11D0281C311C059A67
:1039A0003B1CFFF796FE041C301C002C08D0074B74
:1039B000211C0020185E00F083FA002802DC201C85
:1039C00000F098FD09B0F0BDF9B6000030120020FB
:1039D000F7B50722437E041C93430B434376052926
:1039E0001ED0914203D0042948D1254E05E01A2368
:1039F000C05EFEF785FFFC30866E271C214B3837F2
:103A0000381C1D88FCF7F4FF231C1F4A4E331A8014
:103A1000221C2BB24C32381C311C04F099FC2DE0D6
:103A20001A23C05EFEF76CFF051C231C03222E1C0C
:103A3000271C70331A7051360021221C1A23E05EB5
:103A4000FF36231CFFF75EFFFC35301CFDF7CEF878
:103A5000EB6E383701930B4B381C1D88FCF7C8FF01
:103A6000231C0A4A4E331A80221C381C4C322BB2BB
:103A7000019904F06DFC301CFDF7E2F8F7BDC0467B
:103A8000404B4C00301200201702000012020000D0
:103A9000F0B589B004AC071C0D1C201C00211022BD
:103AA00006F07EFEFF232370FD3B6370E373002D61
:103AB00000D1251C381C291CFEF7A0FF019000280E
:103AC0000ED0381C02A9FFF7D6FD0024A04208D072
:103AD000C1B2221C02A8FFF7BAFD041E01D117E0F3
:103AE000019C201CFFF778FD061E11D0381C311CEC
:103AF0002A1C019BFFF7EDFD041C301C002C08D094
:103B0000064B211C0020185E00F0DAF9002802DCC8
:103B1000201C00F0EFFC09B0F0BDC04630120020C0
:103B2000F7B55D789C1C0194002D4FD04F7A0C7A2C
:103B30003F023C438F7A3F042743CC7A24063C4320
:103B4000A4464F7B0C7B3F0227438C7B24042743F6
:103B5000CC7B24063C4367463C431DD14C7C0F7C08
:103B6000240227438C7C24043C43CF7C3F0627431C
:103B70000C7DA44666464C7D240234438E7DC97D6F
:103B80003604344309062143394305D11EE0102190
:103B90004156013103D040680028F8D118E081680F
:103BA0007B32D2B20C78022A16D8002C07D1ED0055
:103BB000AC1E1A195278002A01D1013CF9E7089885
:103BC0000199221C06F0E3FD201C07E0162004E00A
:103BD0007B32D2B2022AEAD986204042FEBDF8B535
:103BE000141C5A78002A33D04E7A0D7A36022E43AE
:103BF000371C8E7ACD7A36043E432D0635434E7BF4
:103C0000AC460D7B36022E438D7B2D0435432E1C96
:103C1000CD7B2D063543664635431CD14E7C0D7C4D
:103C200036022E43371C8E7CCD7C36043E432D0657
:103C30003543AC464E7D0D7D36022E438D7D2D04E1
:103C400035432E1CCD7D61462D0635430D4302D1F3
:103C50001620404220E0991C882C1CD100280AD054
:103C60001023C356013304D183681C78002C0CD177
:103C700001E04068F2E7D208941EE4B20A19013A62
:103C80001378002B01D1013CF7E70698221C06F0BF
:103C90007EFD201C00E00020F8BDF8B5171C0D1CAF
:103CA000FEF72EFE7B78061C0024012B1AD11C1C6B
:103CB000862D17D1051C5135FF35281CFCF796FFC2
:103CC0007A793879BB79120202431B0413431A1C18
:103CD000FB79281C1B061343AE221BBA5200B352B9
:103CE000FCF7AEFF201CF8BDF0B55378061C87B07A
:103CF0000020042B00D0AEE0862930D1537C107C0C
:103D00001B020343191C937C157D1B040B43D17CC0
:103D100009061943081C517D937D090229431B04A0
:103D20000B43191CD37D1B060B4301BA002B02D198
:103D30004A4B994213D0137CFF2B04D1517CF03BAA
:103D40000B40022B0BD0301C141CFEF7D9FDAD2309
:103D50005B00C35ADB0704D5E3787F2B01D9012030
:103D600079E0271C1037301C391CFEF70FFE051EAA
:103D700003D0427CA3789A4226D062792079A37935
:103D8000120202431B0413431A1CE3791B0613435C
:103D90001AD00823301C00930721002204AB00F046
:103DA000A7F800280EDBA27802A8391C02F0FEFB5F
:103DB0003F21E378A2788B43301C02A9FEF7ACFDCB
:103DC000051E01D1002046E062792079A379120214
:103DD00002431B0413431A1CE3791B06134306D149
:103DE000002DBCD0301C291CFEF7BCFDB7E71BBA68
:103DF0006B61617A267AA27A0902314312040A437E
:103E0000111CE27A12060A4312BAAA61013317D0D2
:103E100063792679A2791B0233431204181C131C00
:103E2000E279034312061A430D4912BA5143281C82
:103E30002A1C0C4B1C301B8830321BB204F088FA51
:103E400040222B7C3F2193431A1C2B74E3788B4335
:103E500013432B7483E707B0F0BDC046000080FE1B
:103E600040420F0034010020F0B585B0071C0E1C45
:103E700001921D1C00F0D2F8041E1ED0311C381C0B
:103E800000F0BAF8611E061C281C00F01FFB002E73
:103E900013D06A46318902AB928809B2181C5A8045
:103EA0000395FDF781FE002802DC281C00F022FBB0
:103EB000301C00F0C9F8061CE9E7201C05B0F0BD75
:103EC00007B5031C6846034A0191191C4280FDF79F
:103ED0006BFE0EBD0202000007B5031C6846034AD4
:103EE0000191191C4280FDF75FFE0EBD010200002A
:103EF00030B589B006930C9B05AC051C238181234A
:103F000001A8217062809B0003A92A1C43804460A1
:103F1000FDF76AFE049809B030BD000030B5051CFD
:103F200089B006930C9B05AC2381064B01A8217038
:103F3000628003A92A1C43804460FDF755FE049863
:103F400009B030BD03020000084B10B51C8822B236
:103F5000824201D1002007E0002C03D11880FEF737
:103F600095FCF7E70C20404210BDC046C01700206A
:103F7000044B1A8800239A4201D002800133181C96
:103F80007047C046C017002008B508228B5E0B4A58
:103F90009B009B589B6A002B03D103200849FCF728
:103FA000DBF8C3B2042B06D8064B8000C2580A6067
:103FB000C150002001E01620404208BDB0000020A2
:103FC000F9B60000C4170020C3B2042B10D8094A68
:103FD000800083588B4205D11B68835008E08A42D9
:103FE00004D0131C1A68002AF9D101E00A681A608B
:103FF0007047C046C4170020C2B2031C0020042A28
:1040000009D8054A9B009858002804D043688B4281
:1040100001D00068F8E77047C4170020C2B230B57D
:104020000023042A0CD8074A80008058002807D0B3
:1040300042680068521A55425541AC466344F5E760
:10404000181C30BDC4170020031E07D005CB002864
:1040500004D04368934201D00068F8E7704708B580
:1040600000290BD01023C356032B04D0042B07D1F7
:1040700002F0F8F906E005F09AFA03E0162000E0F5
:104080000220404208BD000030B5041C95B0082154
:1040900004A8FDF7FFFD204B188880B2208100B2F4
:1040A000FFF752FF201C23681C495B68984768464D
:1040B000FDF7EAFD6B461A4A5B88934216D009D891
:1040C000033AFF3A9342F2D12368201C5B690199BD
:1040D0009847ECE7134A93420DD001329342E6D160
:1040E000019A206811781389C56809E02368201CAB
:1040F0001B680199DAE7019A20681178138905692C
:10410000201C5268A84702A9074B486068464B80AC
:10411000FDF792FDCBE7C046340100202D410000A1
:1041200002020000030200000502000010B5022890
:104130000CD10C1C1020064A0856231C0549FFF719
:1041400093FE002802D1201C00F0D4F910BDC04617
:10415000010200000000FFFF30B585B0089C002C74
:104160000DD02568002D0AD0074D029300950194CB
:104170000823FCF7BBFD002802DC044800E00448EB
:1041800000B205B030BDC04689400000EAFF000023
:10419000EDFF000030B5134D08222B68072803D926
:1041A000053A03309043021C0024002B18D05968B4
:1041B0008A4202D91C1C1B68F7E7891A072906D80E
:1041C0001A68002C01D12A600AE0226008E09818E1
:1041D000002C01D1286000E020601A684160026074
:1041E000181C30BDD817002038B51F4C1F4B226853
:1041F000251C1F4CC31AA34234D80023002A04D024
:10420000824202D2131C1268F8E7026008240729D0
:1042100003D90322033191430C1C4460002B01D1CC
:10422000286011E05A6818609A18821A072A0BD879
:10423000002803D103300F49FBF78EFF0268C01A34
:104240002118181C1A6059600368002B0AD04268B4
:1042500082189A1A072A05D81A6802601A1A5B6827
:10426000D318436038BDC046D8170020DC170020A3
:10427000FF170000F9B60000F7B5009014200F1CDE
:10428000161C0193FFF786FF041E1CD0301CFFF79D
:1042900081FF051E05D1201C1421FFF7A5FF281C56
:1042A00011E0009BA06063606B461B79E66023749D
:1042B0000123201C2360002F05D0281C391C321C30
:1042C00006F065FA201CFEBD10B50A4C201CFCF758
:1042D0008DFC094B094A18211360002259711A708C
:1042E0005A709A70DA701A719A71DA71201CFCF7A0
:1042F000A7FC10BDDC2F0020DC170020D817002001
:10430000F7B50C4C551E061C0020A54211D8141CF4
:104310000D1C094F0193381CFCF768FC221C291C5A
:10432000019B301CFFF7A8FF041C381CFCF788FC1D
:10433000201CFEBDFF170000DC2F0020F7B5041C79
:104340000E1C01920827072902D90323CF1C9F4383
:10435000344D281CFCF74AFC002E07D0002C05D059
:10436000E3689E4202D8A268002A04D12D48FCF7D7
:1043700067FC002054E09E4207D16B461B79281C45
:104380002374FCF75DFC201C4AE01420FFF702FFB9
:10439000051EEBD0BE4203D3E3689B1B072B2AD834
:1043A000301CFFF7F7FE071E02D1281C14210CE079
:1043B000E368981BFFF7EEFE0090002808D1281C48
:1043C0001421FFF711FF381C311CFFF70DFFCDE75B
:1043D000A168321C381C06F0DAF9A3680098991914
:1043E000E3689A1B06F0D3F9A068E168FFF7FCFECA
:1043F000AF60009B03E0A3688360A3689B19A36080
:10440000E36808489B1BE3606368EE606B606B4683
:104410001B792B7401232B606560FCF711FC281CB1
:10442000FEBDC046DC2F0020F8B5041C0D1C08277B
:10443000072903D90323C81C9843071C1F4E301CAF
:10444000FCF7D4FB002C07D0A068002804D01C4B3C
:104450001C4AC31A934203D903201B49FBF77CFE75
:10446000002D04D11548FCF7EBFB0C2025E0E1689A
:104470008D4201D1301C1DE08D4202D8C91B072995
:1044800013D8281CFFF786FE061EEBD0E3682A1E11
:104490009A4200D91A1CA168301C06F078F9A0686D
:1044A000E168FFF7A1FEA66002E0C019FFF79CFEDD
:1044B0000248E560FCF7C4FB0020F8BDDC2F0020BB
:1044C000DC170020FF170000F9B6000070B5084D9A
:1044D000041C281C0E1CFCF789FB281C002C04D093
:1044E00023689B1923606468F8E7FCF7A9FB70BD9B
:1044F000DC2F002070B5134D041C281CFCF776FB44
:10450000002C1BD0104B114AE31A934203D903200D
:104510000F49FBF721FE23686668012B0AD10023AF
:10452000A068E1682360FFF75FFE201C1421FFF7FD
:104530005BFE01E0013B2360341CE1E7281CFCF733
:104540007FFB70BDDC2F0020DC170020FF17000070
:10455000F9B6000070B5144D041C281CFCF746FB8E
:104560002E1C002C02D0E268002A04D1301CFCF77B
:1045700067FB002016E02368012B0FD91023606829
:10458000E356A168FFF778FE051E02D02368013BC1
:104590002360301CFCF754FB281C03E0281CFCF7AC
:1045A0004FFB201C70BDC046DC2F002010B5031C43
:1045B000041E8C4204D1446808E08A4204D0131CD3
:1045C0005A68002AF9D101E04A685A600023081CA1
:1045D0004B60FFF78FFF201C10BD0000F0B59BB0B3
:1045E00008210AA8FDF756FB6E4B07A94B606E4BDE
:1045F00001201B880B81FFF7C7FC6C4B02AAD381FB
:1046000003AC201CFDF740FB6088694BC0180328F1
:10461000F6D805F0FFFC02146E6E6668301CFFF7DA
:1046200099FF041C051C301C002C00D1B7E010279A
:10463000EF57012F65D06D68002DF8D1AEE06568A9
:10464000002D1FD0EB68072B1CD96B68002B19D0ED
:104650001B7C5BB2022B15D1281CFFF77BFF041ECD
:1046600010D08368002601930220185E01F028FE16
:10467000071C6168002903D0CB684968F618F9E780
:10468000002F01D1281C8AE03B79002B05D0201C8B
:1046900001F014F800280DD180E00122081C131C41
:1046A000FFF72EFE002879D04122636843606060E6
:1046B00083681A7000226368002B03D0D9685B6896
:1046C0005218F9E77B889A4208D8019B211C0220E6
:1046D000185EFFF7F5FB002892DC5FE0354B9E4249
:1046E0005CD8019B211C0220185E321C00F0F4F9FA
:1046F00086E78623201C5B4205A90693FDF79CFAFA
:104700007EE7EB68002B49D0AB681B78412B0FD1BB
:10471000281CFFF71FFF051E40D0391C3A1CFFF76D
:104720000DFE011E3AD0201CFFF740FF041C27E0BD
:104730002722191C9143C02903D1201C00F0C0FA84
:104740005EE71F229343602B28D100200932011C11
:104750005E3BFFF7D5FD061E20D00022211C131C56
:1047600000F0EAFC011E16D0201C3A1CFFF7E6FD03
:10477000011E10D0201CFFF719FF6368736066608C
:104780000220084928740C4A231CFFF76DFB0028FF
:1047900000D035E702E0301CFFF7ACFE201CFFF72D
:1047A000A9FE2DE70000FFFF3401002005020000F4
:1047B000FFFDFFFFFF070000010200001FB50B4CCB
:1047C000208803B2002B0DDC094B802100930023CD
:1047D0000193084B08480293C90003220823FCF701
:1047E00085FA208000B204B010BDC046E43300203A
:1047F000DD4500008DBE0000E42F002038B51424F4
:1048000044430E4B1C1910346388002B0DD0051C3B
:104810000120FCF7AFFB0A4905F01AFC094BAD007B
:10482000EB58984206D300236380102263789343A9
:10483000637001E01B1A638038BDC046E633002078
:104840000087930328350020F0B500252E1C144F57
:1048500085B00290381CFCF7C9F9124C0195103450
:104860000397E8B2FFF7CAFF2378002B0DD0271C6F
:10487000103F381C029901F070FE2378834204D85F
:10488000019B984201D93E1C019001351434102D32
:10489000E7D10398FCF7D4F9301C05B0F0BDC04651
:1048A00068350020E633002070B500230F2816D8A5
:1048B000051C0C4E301CFCF799F9281CFFF79EFFD5
:1048C00014206843084B1D182C7C301C002C03D08E
:1048D000FCF7B6F92B1C02E0FCF7B2F9231C181CFC
:1048E00070BDC04668350020E6330020F7B501935F
:1048F00008AB051C0C1C161C1F7800200F2D00D9BE
:1049000085E0101E00D182E04148FCF76FF91423C6
:1049100069466B433F4A8988D31859820199481EDA
:10492000814149420F40802E02D98021197400E054
:104930001E742B1C002F01D010232B4314266E4312
:1049400096197788737433883F04F0881F43B388BF
:1049500000041843637821781B020B431A1CA378C8
:1049600061791B041343E27809021206134322798A
:104970001143A27912041143E27912060A439F42BD
:1049800032D1904230D177893289637A217A3F04DB
:10499000F08917431B02B2890B43000410431A1C11
:1049A000A37A617B1B041343E27A090212061343C4
:1049B000227B1143A27B12041143E27B12060A43BD
:1049C0009F4211D190420FD10120FCF7D3FA124936
:1049D00005F03EFB019BAD00C018104BE8500C48A1
:1049E000FCF72EF9301C12E014236B43094A301CEB
:1049F000D3180022211C1A805A809A80DA801A81EA
:104A00005A819A81DA811A7C01F0D0FDDCE7FEBD83
:104A100068350020E6330020008793032835002006
:104A2000031CF0B5077885B0083300933B1C0833AE
:104A3000C3180391029201934678051C01230020BC
:104A4000BA190832011C5B42FFF75AFC0022041E0F
:104A500094423FD0A3681F705E705A805A719A7159
:104A60001A71009B934209D0974207D0A068027840
:104A7000BA4203D10830191C05F089FE019B002BB6
:104A80000CD0002E0AD0A3685A78B24206D118780A
:104A9000019908301818321C05F079FEA3686A885D
:104AA0005A802A791A716A795A71AA799A71039A85
:104AB000029B9A4200D91A1C00200123011CFFF717
:104AC0001FFC051E04D1201CFFF714FD281C01E06B
:104AD000201C656005B0F0BDF0B589B00091151CD3
:104AE00001F0EEFB009B02905C6800230193002C18
:104AF00006D0E268019B9446634401936468F6E73C
:104B0000029B002B03D10098FFF7F4FCD3E0019B3C
:104B1000F822EB1A06936B46198B029B5B88043BC9
:104B2000CB1813405B1A9BB205931A1D009B019989
:104B30009868FFF775FF071EE5D043686DBA9B685C
:104B4000261C0393039AABB204931B0A5370FF23F2
:104B5000049A1340402252421343039A1370574B56
:104B60001B885BBA9BB293701B0AD370009B5D6875
:104B7000002D13D0059AEB68941B9C4200D91C1C95
:104B8000039B301D1818221CA96805F000FE34197B
:104B9000059BA6B29E4201D26D68E9E7029B391CD3
:104BA0000020185EFFF78CF9002802DC381CFFF7A4
:104BB000A1FC002EA7D0FCF779F8019B9E4273D28E
:104BC000F824029B5F88019B053F591D009B2740ED
:104BD000891B7A1D9868FFF723FF0390002892D065
:104BE000436804999A68531D0793049B1B0A5370EA
:104BF000FF230B40202149420B43002113702F4B10
:104C00001B885BBA9BB293701B0AD370069BF31888
:104C1000DB081371009B5D68002D1BD0B14217D0DB
:104C2000EC68A3B2C91889B2B1420FD99B19591ABD
:104C300089B2641ABC4200D93C1CAB68221C5918CA
:104C4000079805F0A4FDA4B26D6804E06D68E3E781
:104C5000002400E02C1CBC4214D2002D12D0EB68C2
:104C60003A1B05929A4200D90593079BA968181927
:104C7000059A05F08CFD059BE418A4B2BC4202D055
:104C80006D68EAE7271C029B03990020185EFFF776
:104C900017F9002802DC0398FFF72CFC002F00D145
:104CA00031E7BF19BEB286E70098FFF723FC034A3D
:104CB00013880133138009B0F0BDC0467035002061
:104CC00010B5041C07214368A268986813788B43C9
:104CD000C02B06D0E02B0AD11379E268DB00053A3D
:104CE00002E0E3681A1F0023211C00F011F8201CC9
:104CF000FFF700FC10BD0368002B06D000221968E6
:104D00009A80DA801A600160F5E74360704700001E
:104D1000F0B58FB0029001200A91019203938F6841
:104D2000FCF728F9C04905F093F90026BF4C049020
:104D30006068251C002820D0A368049AD21A032A90
:104D400005D9FFF7D7FB201CFFF7D5FF04E0002EA5
:104D500003D0B268934200D3351CB54B24349C4237
:104D600001D02E1CE4E7002D07D06868002804D08D
:104D7000FFF7C0FB281CFFF7BEFF029B029A083317
:104D80000793029B01201B78042604930833D31851
:104D9000089353783A7805937B7800241B021343D9
:104DA0005BBA5B055B0D0693FB78BA781B02134375
:104DB0006A465BBAD385D38D0C93FCF7DBF89A492E
:104DC00005F046F9994D0990043504239B1B0D937A
:104DD0002B68002B00D122E1DB68069A934223D195
:104DE0006B8B0C9A93421FD12B7E049A93421BD15A
:104DF0006B7E059A934217D1281C07990830049AB4
:104E000005F0B6FC00280FD1281C08991030059A2F
:104E100005F0AEFC002807D124240D9B6343834C8E
:104E2000E418099BA36032E0002C03D12B68002B0F
:104E300000D12C1F013E2435002EC6D1002C26D0D7
:104E4000301C311C069A0123FFF75AFA60600028D3
:104E500000D1FBE083680021002018605960201C0D
:104E6000099B0799A360049A0C3005F090FC201C64
:104E700008991430059A05F08AFC6B461B7C268441
:104E800023776B461B7D63776B46DB8DE383002CBA
:104E900000D1DBE0039B2568002B1ED13B79412B21
:104EA00004D1019B7E1D013B019317E01F223E1D93
:104EB0009343039A602B12D163680A99181CDA682D
:104EC000042300F039F9002800D1A6E0019A361831
:104ED0002832131A0193282201E07E1D0022636804
:104EE00003990493019B5B180499C9688B4200D90C
:104EF000A6E06B469989002D17D0019F4B1EDB1948
:104F0000AF889BB28F4203D2E888884200D397E0F3
:104F1000B94202D29F4200D892E08F4203D1E98881
:104F2000994200D18CE02D68E3E7019B4F1EFF18EA
:104F3000BFB24048EB0084466344D888002815D1AE
:104F4000002B16D099802168DF80196023600199B9
:104F5000238CCB1804992384039B8868D318C0182A
:104F6000019B311C9A1A05F012FC02E00135282D34
:104F7000DFD16368228CDB689A4267D1002001236D
:104F8000277F667F011CBA1908325B42FFF7B8F928
:104F9000051E42D0002283681F705E705A805A71CD
:104FA0009A711A71974208D080680278BA4204D187
:104FB000211C08300C3105F0EAFB002E0BD0AB6849
:104FC0005A78B24207D1211C1878143108301818C9
:104FD000321C05F0DCFB029AAB6852885A80029AB8
:104FE00012791A71029A92799A71029A52795A71C7
:104FF00000236B606368002B06D05A68002A01D03A
:10500000131CFAE75D6000E0656002200A490B4A64
:105010006368FEF729FF002815D1606811E0002CB5
:1050200000D007E705E7C04640420F007435002076
:1050300004360020043600200000FFFF01020000BB
:105040000498FFF757FA201CFFF755FE0FB0F0BD8C
:10505000002310B543700370042A16D0082A02D02A
:10506000022A25D117E002220B78534003704B78B7
:1050700043708B788370CB78C3700B7903714B7955
:1050800043718B798371CB7910E002230A785A40FF
:1050900002704A784270FF240022C470013C827082
:1050A00004714271CA5CCB1882715B78C37100E0F5
:1050B000181C10BD0F23027810B59A430C09224327
:1050C00002704278090113400B43437010BD000089
:1050D00073B5051C0E1C141C68461649082205F001
:1050E00056FB281E24D06B7C0020DB0620D42A7CB3
:1050F0000130802A1CD0402A01D8002018E00F235C
:10510000D208501CD11F301861189A1A05F030FBD4
:105110000028F2D12A7CD308E418083CF35C2078FC
:105120005840072313406A46D35C18404342584115
:1051300076BDC04691BE0000F0B585B002924A68C7
:105140000191926889680092002803D10320C54923
:10515000FBF702F8C268272AF8D900277F223D1CF6
:1051600084686020CE18737803219A427D412378A9
:10517000703A1A40024322701822844630784D1B40
:105180000240082A24D014D8BA424DD1715D201CA7
:10519000FFF790FF0F2271194B7813406278134389
:1051A00063708978A278EB1C0A43A270F25C043524
:1051B00029E0102A2BD0182A36D1201C391CFFF7E1
:1051C00079FF0F226378A77093436370E7702BE039
:1051D00067460B401F433B1C721910788009800002
:1051E00003438B430F210F202370637819406170B4
:1051F000137803400B4363705178A278AB1C0A43C9
:10520000A270F25C0335E3781343E3700CE06B1C8F
:10521000715D201C0393FFF74DFF0F226378039D00
:1052200093436370A770E77033785B0702D4735DB4
:105230000135A371032332781340022B07D0032BCF
:1052400007D0012B06D0735D0135E37103E04023E5
:1052500000E0FF23E371402773781F400ED0002049
:105260005AB2824201DAB078000930220027134294
:1052700004D0FFF719FB071E00D11CE270237278DF
:105280001340302B5AD00ED8102B29D0202B3AD0D7
:10529000002B00D0A4E0201C71190830102205F06A
:1052A00076FA10359CE0502B5DD014D8402B00D0FE
:1052B00096E0002323726372A372E3722373637315
:1052C000A373E37323746374A374E3742375637526
:1052D000A375E37584E0602B56D0702B6FD07FE010
:1052E00002220023201C524222727E3A6272A37272
:1052F000E37223736373A373E373711988321030FD
:1053000005F045FA3EE0802102220023201C49429C
:10531000524261727F312272E1742275A372E3728C
:1053200023736373A373E37323746374A374637548
:1053300071190432163005F02AFA3EE0009B201C59
:10534000191C1A7810300831FFF782FE0222002360
:10535000524222727E3A6272A372E37223736373C3
:10536000A373E3733CE0002F00D1EFE6201C71191A
:105370000822103005F00BFA201C3A7C0830391C4A
:1053800001F014F908352BE0002F00D1DEE60122F0
:105390000023201C5242E2749218227571190432C3
:1053A00023746374A3746375163005F0F0F9201C40
:1053B0003A7C0830391C01F0F9F8023510E0002F72
:1053C00000D1C3E6009B201C191C1A78083110304C
:1053D000FFF73EFE201C3A7C0830391C01F0E6F84D
:1053E000727853070DD5002053B2834202DA0F239F
:1053F000B0781840930704D0FFF756FA071E00D183
:1054000059E10F23707818400C2800D953E104F0BB
:1054100015FE0D0015002B004D00520163007100B8
:105420008F000D009F00C400E9000801201C7119C5
:105430001830102205F0ABF910352CE102220023C0
:10544000201C524222767E3A6276A376E376237758
:105450006377A377E37771198832203005F097F9E5
:1054600046E0C046F9B60000802202210023012058
:10547000524262764942621C2176A376E376237714
:105480006377A377E377D377A21CD377E21CD37734
:105490004042221DD077201C621DD177A21DD377F8
:1054A00071190222263005F072F93FE0201C009BA2
:1054B000203019785A7808315918FFF7C9FD0222AF
:1054C0000023524222767E3A6276A376E3762377F1
:1054D0006377A377E377DEE0201C71190822203080
:1054E00005F055F9201C3A7C1830391C01F05EF8A3
:1054F0000835D0E000230121201C621CD377A21CB8
:10550000D377E21CD3774942221DD177621D491817
:10551000D177A21DD37771190222263005F037F911
:10552000201C3A7C1830391C01F040F80235B2E0FA
:10553000201C009B203019785A7808315918FFF741
:1055400087FD201C3A7C1830391C01F02FF8A2E0AE
:105550000023201C621C6376A376E37623776377AF
:10556000A377E377D377A21CD377E21CD377221DEE
:10557000D377621DD377A21DD377E21DD377013293
:10558000D377FF332376735D691C637671182330FC
:10559000052205F0FCF806357DE00023201C621C86
:1055A0006376A376E37623776377A377E377D3777E
:1055B000A21CD377E21CD377221DD377621DD37749
:1055C000A21DD377E21DD3770132D377FF33237641
:1055D000735D691C637671182530032205F0D7F8D6
:1055E000043558E00023621CA376E37623776377C3
:1055F000A377E377D377A21CD377E21CD377221D5E
:10560000D377621DD377A21DD377E21DD377013202
:10561000D377FF332376FD3B6376735D0135D37714
:1056200039E03B7C621C0093002323766376A376EB
:10563000E37623776377A377E377D377A21CD377D7
:10564000E21CD377221DD377621DD377A21DD377B7
:10565000E21DD3770132D3773B7C402B01D9402325
:105660003B74FF23201C2376735D583063767319D7
:105670005B78391CA3763B7CE3763A7C00F096FF9E
:10568000201C291D71182430042205F080F86B4677
:105690001B7806353B74029B002B03D1019BDB6812
:1056A0005B1B01E0029B283B5BBA9BB223711B0A88
:1056B0006371281C00E0002005B0F0BDF0B58368E0
:1056C0008DB004900393436800209C68DA68011C45
:1056D0000123FEF715FE0590002800D147E3602363
:1056E00085682B7000236B70627A207A231C12026B
:1056F0000243111C0833A27A0693E37A12040A4388
:105700001B061343627B1E1C207BA37B12020243F9
:105710001B0413431A1CE37B1B061343334300D0C3
:10572000FBE0637C217C1B02E77C0B431A1C3F06D9
:105730003E1CA37C207D1B041343627D1E43A37D7E
:105740001202E77D02431B0413433F061A1C3B1C55
:1057500013431E43371E00D0DFE0237EFF2B00D112
:10576000E0E0201C1830FFF76FF80290002F04D003
:105770007B7C1A0701D0DB0609D4029A0223002A97
:105780000DD0527C0223110709D0D20607D5802202
:105790006B78524213436B700023AB700333627813
:1057A0002078A1781602090406430E43E178120915
:1057B0000906314309BA090315D10001024352B267
:1057C0002978002A03D118321143297053E010229E
:1057D000114329702278591C100162781209024382
:1057E000EA548BB247E0D1B20322024012010A43CD
:1057F00017D108212A780A432A7066782078A2787F
:105800003602064312041643E278000712063243BA
:1058100012BA1203800F591C120F800189B2024381
:1058200014E002010A43EA5460782278000210432F
:10583000A278991C12040243101CE278013312066C
:10584000024312BA120389B29BB2120FEA54627871
:105850002678A378120232431B0413431A1CE37800
:105860001B06134300221BBA1B0A6B548B1C01310D
:1058700089B29BB26A54A2795E1CEA54E279B6B24C
:10588000402A07D0FF2A08D0012A0BD12B781A43CF
:105890002A700AE02B78022201E003222B781343BE
:1058A0002B7002E00233AA559EB2637A217A1B0262
:1058B0000B431A1CA37A207B1B041343E27A1206C3
:1058C0001A439446627BA37B120202431B041343D8
:1058D0001A1CE37B1B06134362461A432AD1627CDF
:1058E000207C12020243111CA27CE37C12040A43B6
:1058F0001B061343627D9C46207DA37D120202435A
:105900001B0413431A1CE37D1B0613436246134317
:1059100000D028E26B7840221BE20698FEF794FF45
:10592000071C1AE7002302939F4200D020E702974A
:10593000023334E7002F0ED07B7CDB061AD54022E1
:105940006B7813436B707B7C1A0713D0AA781B010A
:105950001343AB700EE0624611BA002B00D1F3E1A5
:10596000237AFF2B00D0F7E1627AF03B1340022B41
:1059700000D0F1E10022002308920993039B1A78DA
:10598000FD23911E194201D0082A05D1039908A8C8
:105990000831FFF75DFB09E0039B07210220185E39
:1059A00008230022009308ABFEF7A2FA637C217C57
:1059B0001B020B431A1CA37C207D1B041343E27CB7
:1059C00012061A439446627DA37D120202431B0411
:1059D00013431A1CE37D1B061343089A624506D144
:1059E000099A07929A4202D16B783022B1E1381CB1
:1059F000069908AAFFF76CFB0028F5D1627C207C91
:105A0000A37C120202431B0413431A1CE37C1B06F3
:105A100013431BBA6A78FF2B10D1637D217D1B02D3
:105A20000B43FE2B0AD1211CDE3B1343A8196B70DC
:105A30001631022204F0ABFE023609E01023211CCD
:105A40001343A8196B701031082204F0A0FE083629
:105A5000B6B2237EFF2B00D0ABE06F78F73B3B4321
:105A60006B70E37EA27E1B0213435CD1627F207FBA
:105A7000A37F120202431B0413431A1CE37F1B067D
:105A8000134350D1631CDA7FA31CDB7F1B0213433B
:105A900049D1617EE21C02291CD1D17F09040B434C
:105AA000211DC97F09060B4314D1631DD97FA31D96
:105AB000DB7F1B020B430DD1E31DDB7F002B09D1E4
:105AC000211C0B333B436B700831CA7F731CAA55F2
:105AD0009EB219E1231DDB7FD17F1B020B4312D144
