:10000000984D00202D04000095040000A504000078
:1000100000000000000000000000000000000000E0
:10002000000000000000000000000000FD030000D0
:100030000000000000000000DD03000039010000A6
:1000400039010000390100003901000039010000C8
:10005000C90D00003901000039010000390100001C
:1000600039010000390C000039010000390100009D
:100070003901000039010000430C00003901000083
:100080003901000039010000D99A0000459B0000A9
:100090003901000039010000390100003901000078
:1000A0003901000039010000390100003901000068
:1000B00008B500F097FA08BD70B50C1C061C00F0DE
:1000C00009F9094B094A1D682919914202D8084AC1
:1000D000914204D20C23012533606D4200E0196087
:1000E00000F000F9281C70BD0000002000800020F6
:1000F000984D002008B5101C191C00F085FA08BDA9
:1001000008B5101C191C00F093FA08BD13230360F6
:100110000120404270471323036001204042704792
:100120001323036001204042704700230222036032
:10013000181C8A425841704708B500F03FFA08BDC4
:1001400008B5002802D100F0D5F801E001204042B6
:1001500008BD000070B500240E4B0F4E1C600F4B05
:100160003568186800F08AF80D4B8000C358201CD1
:100170000C3B9D420DD0A54204D0AA88062A01D18D
:100180000132AA80062201209A80D988054A33606C
:10019000118070BDA8000020340100207C010020E7
:1001A000380100203001002070B5041C0D1C83882C
:1001B000052910D9052B24D8211C0089124B800059
:1001C00018180C3100F062F8012321890F4A8B4086
:1001D00011680B4314E0052B13D9211C00890A4E2A
:1001E00080000C31301800F067F821898B009B5992
:1001F000002B06D101338B40044A116899430B1C34
:100200001360A58070BDC046380100207C0100202D
:1002100008B5094B1B681A899B88052B01D98242B6
:1002200009D900F062F8002803D00122034B1A60BC
:1002300001E000F0C9F808BD34010020A80000204A
:1002400038B5002400F046F8084B094A1B88094DD0
:100250001BB29B009C50084A28681368211C013B74
:100260001360FFF7A1FF2C6000F0AAF83001002016
:10027000AC00002034010020780100200023C207D8
:1002800002D440080133FAE7181C70470368002BBA
:100290000ED00B6003685B684B6003685B68196095
:1002A0000368596002685368934204D1596002E0C0
:1002B00001600960496070470B688B4207D04A684B
:1002C00013600B685A600268914202D100E000237B
:1002D00003607047EFF3108072B6704762B6EFF3B9
:1002E0001080704780F310887047EFF30580C0B22C
:1002F0007047000007B5011C09480AF02DFC094BA6
:100300000193019B5A1E0192002BFAD1BFF34F8F2C
:10031000054A064BDA60BFF34F8FC046FDE7C04683
:100320004EB90000A08601000400FA0500ED00E0CF
:10033000D318032293431F4A10B51C1F2260620783
:1003400003D0083B1C1C1C4B23608022231F52043B
:100350001A601A4A043B1860043B1A600022043BEE
:100360001A60043B03321A60043B013A1A60043BF2
:10037000013A1A60043B19600632043B1A60043BE0
:10038000013A1A60043B013A1A60043B013A1A60D0
:10039000043B07321A60043B013A1A60043B013AFD
:1003A0001A60043B013A1A60201C032344385B4264
:1003B000036010BD777777778888888841020000CE
:1003C000FFF78CFF01DFFEE78021034A49055368F0
:1003D0000B4353607047C04600ED00E0EFF3098027
:1003E000EC4685464046494652465B46FFB4704659
:1003F00001B46846E5460B4909680860FFF7AAFEA4
:10040000EE46084800680068854601BC8446FFBC8B
:100410008046894692469B46684680F30988F546A1
:1004200060470000340100207047704708B5FFF7AF
:10043000FBFF6A46104B934202D2104902C3FAE70F
:1004400000220F4B0F49D3188B4204D20E49895812
:1004500004321960F5E70D4B0D4A934202D2002297
:1004600004C3F9E7FFF7E1FF00F0F0F80AF090FAB3
:1004700000F012F908BDC046984B0020FEE7FEE7E9
:1004800000000020A800002080D10000A80000206B
:10049000984B002008B50420014900F083F9C046BC
:1004A0006AB900000E490F4A0F4B6846904203D8C4
:1004B000984201D9002102E0091C8D460121042047
:1004C0007246024202D1EFF3088001E0EFF30980A7
:1004D000F0B444464D4656465F46F0B46B4605E0E0
:1004E000984D00200080002000080020F0B58BB05F
:1004F000041C08920993002903D027480AF0C2FB84
:1005000046E0051C0368C769029343688669039344
:10051000836824350493C36805930369069343698C
:100520000793BB0500D4043D1C480AF0ABFB059BB8
:1005300002990093039A049B19480AF00DFB331C9F
:10054000079A0699009717480AF006FB16480AF022
:1005500099FB089915480AF0FFFA15480AF092FB32
:10056000311C14480AF0F8FA099B1E1C201C8268F2
:10057000C36801698C4641698E46AD46311CF0C99D
:10058000A046A946B246BB46F0C94168006801BE14
:100590000520094900F006F976B90000A5B9000068
:1005A000C0B90000FDB900003BBA000040BA00002D
:1005B00052BA000083BA0000ABBA000008B50620AA
:1005C000014900F0EFF8C046BEBA000008B5034884
:1005D00000F08EFC024800F0C5F808BD04000020C1
:1005E000C001002007B5064800F092F80023E12181
:1005F0000093181C4902034A00F0FAFA07BDC046EE
:10060000C0010020CD05000038B5051C0C1C0648B3
:10061000291C221C00F056FC002803D1034800F0DE
:1006200077F8F4E738BDC04604000020C001002080
:1006300070B50D1C041C4618B44205D0217800206A
:1006400000F052FA0134F7E7281C70BD08B500F03D
:10065000A1F980220421044B12039A609A6153335A
:100660001A788A431A7008BD0044004108B500F0AA
:1006700079FD03480AF070FA00F030FD002008BD53
:10068000CCBA000008B5034B01201B6800F0F6F956
:10069000F9E7C046C80800201FB50024FFF71AFE7E
:1006A00080210D4B019400930C4B49001B680F22D5
:1006B00002930B480C2300F0D7F8C021094B01949A
:1006C0000093094BC9001B680722029307480C23BB
:1006D00000F0CAF8FFF774FE850600001400002041
:1006E000C80100206D06000018000020C80200208C
:1006F00010B5041C2168002907D1201C012200F03C
:1007000031F90028F6D0012000E0002010BD0000E3
:10071000F0B585B0041CFFF7EBFF00281ED1FFF7F2
:10072000D9FD051C201CFFF7E3FF061E03D0281C83
:10073000FFF7D8FD12E00A4F02213868FFF734FDB9
:100740003B68201D1A8901A902920393019600F0CB
:100750005AF8281CFFF7C6FDFFF736FE05B0F0BDBE
:100760003401002038B5051CFFF7B4FD2B68041CCC
:10077000002B05D0281D00F03FF8002804D1286088
:10078000201CFFF7AFFD0BE085680721281CFFF751
:100790000BFD2D89201CFFF7A5FD281CFFF738FD58
:1007A00038BD00000F4B10B51A680C1C002A15D17B
:1007B00001321A60032803D171460B480AF0CCF9C4
:1007C0000A480AF05FFA201C0AF05CFA00F01CFBF1
:1007D00007480AF057FA07480AF054FAFFF77AFD7B
:1007E00000F0D2F8CC0800203DBB000041BB000067
:1007F0003ABA000057BB00000368002B01D01A680A
:100800000260181C70470368002B09D05A68944690
:100810004A68944502D90B60016003E0181CF2E7B6
:1008200001600B607047000008B5FFF753FD084BEF
:100830001B689A88052A05D91B89064A9B00995886
:1008400009689950FFF74EFDFFF7BEFD08BDC04691
:100850003401002038010020031C1A689A4201D19B
:100860000433FAE7181A7047F0B587B0051C0291F7
:10087000059203930F2A68D803230340191E029B95
:1008800004D00422531A029AC518D31A0322383B03
:1008900093430493EC18039B1B0705D52B1CA34221
:1008A00003D21B600433FAE72D60FFF713FD012329
:1008B000071C9AB20192274A99005658002E29D156
:1008C0006B469B888C500C982A1CE3800D99049BE6
:1008D000FFF72EFD029BE56263630E9B01212363FC
:1008E0006B469D8A01231C4A5B4263621368206049
:1008F00001331360039B2581A680E6602661666153
:10090000A661E6612662A6620B420BD0201CFFF7AF
:100910004BFC15E00133212BCBD1381CFFF7E2FC57
:100920000E4813E0201C0721FFF73EFC039B5B07EA
:1009300006D4381CFFF7D6FC281CFFF769FC02E040
:10094000381CFFF7CFFC019800E0054800B207B063
:10095000F0BDC046AC0000207801002075FF00000B
:10096000EAFF000070B5041C0E1C151CFFF7B2FC5A
:100970002368B34203D0FFF7B5FC002003E02560F5
:10098000FFF7B0FC012070BD08B500BE042000F0E8
:1009900075F8FBE710B502242D4A1378A3431370B2
:1009A00000F0E0FD0E2210212A4B2B489A619A6933
:1009B0000A439A614268224342609A698A439A6173
:1009C000264B274A196A0A4080211A621A6A8A430A
:1009D0001A621A6A40398A431A621A6A22431A62F0
:1009E000DA681207FCD501211E4A117050781D49A2
:1009F00040B20028FADB1C4888601C4848601C484C
:100A00004880517849B20029FBDB2F2199640F39C6
:100A1000D964184B1E391970174B1B789B07FBD0F4
:100A200080235B00936084235B02536053785BB246
:100A3000002BFBDB0321E023DB000B439BB2538045
:100A40005378DB09FCD101312329F4D110BDC04614
:100A50000010004000040040004000410008004039
:100A6000FFFCFFFF000C0040010800000106010030
:100A70000141000044080040500800400020704739
:100A800038B5164AC3B21B019C58237E5B0709D5B3
:100A90000C235843124A218D14188358C9B2A068F8
:100AA000984714E00225237E2B420AD00C2358439A
:100AB0000B4B1818436880689847002807D12575A4
:100AC00005E0237E5BB2002B01DA80232376054B01
:100AD0001B68002B01D0FFF7A7FE38BD64BB0000E8
:100AE000D0080020A8000020044B0001C3580120BA
:100AF0001A7E0242FBD089B21985704764BB0000A0
:100B000004220B4B0001C35810B5DB045B0F9C1E85
:100B1000A24008481233016A0A4302628022D201CD
:100B20001343054A538053785BB2002BFBDB10BDA7
:100B300064BB000000040040000C0040F7B5012831
:100B40004DD8284D0301071C27485C59019309F033
:100B50007DF9061C381CFFF7D3FF0021019B0A1CFE
:100B6000ED186F68381C00F08EF82B7B381C191CB0
:100B7000019300F06BF8AD6801210022281C00F001
:100B800082F8281C019900F061F801232360E369D1
:100B9000DB07FCD4154B301C23600A2109F0DCF97B
:100BA000072319404B03A189301CC904C90C194300
:100BB000A1810A2109F04AF9C004C30CA089400BA5
:100BC00040031843C0239B02A08163600423E069B3
:100BD0001840FBD1022223681343236001E0012067
:100BE0004042FEBD64BB000080C3C9010420104028
:100BF00070B5041C161C1D1CFFF7A0FF002814D1A3
:100C00000C236343094A24019E50D318049A5D6063
:100C10009A600422064BE3589A75DB045B0F073396
:100C2000033A9A40131C034A136070BDD008002099
:100C300064BB000000E100E008B50020FFF720FFE2
:100C400008BD08B50120FFF71BFF08BD70B50122E4
:100C50001F23051C9D430340104080008140EC1879
:100C6000403413412678EB1816430E328240081C9C
:100C7000267030331C7894431C701A781043C0B22D
:100C80001870002070BD1F2330B5041C18409C4311
:100C90001E3B8340012A0DD0002A11D0022A12D116
:100CA00004252218403263611570012910D10120FA
:100CB000404215E0042522184032A361157002E07D
:100CC000251840352A70012902D1A360636106E02E
:100CD0000222201863604030037813430370002021
:100CE00030BD0000F8B5C405A40F012C49DC1F2558
:100CF000640105406419254D665D74B2651C42D0DF
:100D0000071C2348151C0A1CE1000B50069B4118C8
:100D10004B60381C0021FFF7B6FF0021381CFFF79D
:100D200095FF40211B4A93690B4393611A4B1B4A61
:100D30005A805A78D209FCD107210F20314089000E
:100D40008D408840E310164A9B009B189A69291C25
:100D500082439A611022986901439961114B1A608C
:100D60000123A3401C1C0E4B1C615A6922435A618B
:100D70000222DC601A705A7852B2002AFBDB00248F
:100D800001E001246442201CF8BDC04684BB000081
:100D9000E808002000040040000C0040054000006E
:100DA0000018004000E100E01F23021C9A430340AA
:100DB00001209840906170471F23021C9A43034012
:100DC000012098405061704710B500240123A340D2
:100DD0000A4A1169194206D01361094BE2009918B9
:100DE0004868D35898470134102CEFD1054B1B6845
:100DF000002B01D0FFF718FD10BDC04600180040C1
:100E0000E8080020A8000020F0B500268DB0224997
:100E100002220BA809F0F1FD20482149214A09F0DE
:100E20009BFE214F07963C68002C24D0A388656B5D
:100E30009A0008931D4BE06AD3580993079B5B19EE
:100E40000793FFF709FD089A2D1A0623E15E76192C
:100E50000123052A00DC00230BAAD3180093238961
:100E600013480193636B03950293E36A0493226B27
:100E7000099B09F071FE0F4B04379F42D3D10E4BF3
:100E8000079A009301920296191C0C4A0C4809F02B
:100E900063FE0DB0F0BDC046C4BB0000C6BB000081
:100EA000FFBB000004BC0000B00000201C000020BC
:100EB0000ABC0000300100205BBC00005DBC0000EB
:100EC0003DBC000030B5141C002C0FD08568C368F1
:100ED0009D420BD08568013C6B1C83604368013BDD
:100EE0002B400568EB5C0B700131EDE7101B30BD4A
:100EF000C26830B543688468121B9A4208D0C26841
:100F00000468013B551C1340C560E154002001E01A
:100F10000120404230BD0000F0B5071C95B0081C10
:100F20000E1C09F055FF03240390002107A810228E
:100F300004940C9409F06AFD0FA8391C0CAD04F060
:100F4000D7FF002804D1134809F09CFE01201EE0C1
:100F5000114B04AA9380201C01211122AB8005F0C3
:100F6000C7F9041E01DA0D48EEE72023009501932E
:100F7000201C311C039A002305F0ECFA002802DA49
:100F8000074809F07FFE201C05F0F0F8002015B09E
:100F9000F0BDC046CFBC0000190E0000A2BC00008E
:100FA000BCBC000008B5044809F06CFE03480449C5
:100FB000FFF7B2FF08BDC046FABC000013BD000039
:100FC0001BBD0000F0B508219FB0354800F0B8FA0D
:100FD00001211122032005F08BF90323061C0021B7
:100FE00007A81022049309F011FD2E4B04ACA38036
:100FF0002D48002E07DB301C211C202205F0ECF9C7
:10100000002805DA294809F03DFE00201FB0F0BD98
:101010002748284909F0A0FD2023274C03930CAB57
:10102000009303AB0193301C211C1022002305F018
:101030001DFA051E214801DB03D1214809F022FEDB
:10104000EAE714A80FA9282204F0DAFF002803D148
:1010500009F0DEFA1C230360201C1A4909F0A6FEE1
:10106000194F00280CD114A9184809F075FD14A9CE
:10107000174809F071FD14A8391CFFF74DFFCBE7A5
:10108000201C391C09F092FE002802D1114814A935
:10109000C0E714A92A1C104809F05EFDBCE7C04651
:1010A000680D0020190E0000A2BC000020BD000049
:1010B00035BD00000E190000A80D00205EBD000027
:1010C0006FBD00001BBD0000B4BD000082BD00006C
:1010D0009EBD0000B9BD0000D5BD000010B515488B
:1010E000A4B009F0CFFD144C201C09F0CBFD13492E
:1010F000134809F031FD1349134809F02DFD201C58
:1011000009F0C0FD114B8021009300230193104B87
:10111000C900072202930F480823FFF7A5FB0E48DA
:1011200009F0B0FD0D4809F0ADFD0D4804A980227D
:1011300005F046FBFFBD000023BE00005CBE0000C2
:1011400034BE00008ABE000068BE0000C50F00006B
:1011500091BE0000680900209ABE0000B2BE0000E7
:10116000E4BE000008B506F055FE02F04BFD02F0AB
:10117000C3FF00F057FB04F039FE00F003F801F064
:1011800031F908BD1FB50C4B0C4C00930C4B201CC7
:1011900001930C4B0021029302220B4B06F0E0FF5F
:1011A000002807DB802100940848C9000322084B6F
:1011B00002F070FC1FBDC04680440041B811002001
:1011C000144400418F4400419F440041B80D002069
:1011D000FCBE000010B5026AC469436A141B9C423D
:1011E00001DD002009E0541C04621340F9D4826A36
:1011F000DB00D31805C905C3012010BDF0B51E1CC6
:10120000284B8900CC58284B87B01B880190171CAD
:101210000380002C05D10125301CFFF763F86D42D7
:101220003CE0A388032B2BD0201C0199FFF7D2FFB1
:10123000051E0BD0301CFFF755F81C4B01251B6811
:101240009B88052B2AD1FFF7BFF827E0002F03D199
:10125000301CFFF747F821E0144F03A93B681A89B7
:101260000390201C183004920593FFF7CCFA3868DD
:10127000019B4361818805394A424A41111D05E0BD
:101280006369019A03CA03C3201C0721FEF78CFF80
:10129000301CFFF727F80125FFF796F8281C07B048
:1012A000F0BDC046AC000020300100203401002019
:1012B000F7B5041C0E1CFFF70DF8374B374A1B8897
:1012C000071C1BB29B009D58AA6A002A1AD0EB6922
:1012D000296A994216D0591CE961696A0B40019349
:1012E000002E07D1591C05D10124381CFEF7FAFF46
:1012F00064424FE0002B0ADBDB00D318221C03CB37
:1013000003C205E0002EEFD001235B4201936C6124
:10131000281C1830FFF770FA002811D1019B002B10
:1013200009DA281C0321FEF73FFF381CFEF7DAFF1D
:10133000FFF74AF802E0381CFEF7D4FF012429E049
:10134000019B8668002B0EDB2C6AEA696B6AA96A2E
:10135000A21A9A4203DC621C2A621C4001E00124AA
:101360006442E4000C1973690F2506CB06C4B388E8
:10137000052B06D00023301C73610721FEF714FFF4
:101380003589381CFEF7AEFF01240E2D02D8281C2B
:10139000FEF73EFF201CFEBD30010020AC00002007
:1013A00038B5041CFEF796FF074B051C1B88211C53
:1013B0002380064B1868FFF70DFF041C281CFEF75E
:1013C00091FF201C38BDC0463001002034010020B0
:1013D0000E4A8900031C885810B5002812D0191C29
:1013E00021230B808388032B09D1436914C914C3BB
:1013F0000721FEF7D9FE0120054B186004E0FFF736
:10140000E9FE01E00120404210BDC046AC000020D2
:10141000A800002038B5051C0C1CFEF766FF00284C
:1014200004D0281C211CFFF7D3FF10E0084B1B88B9
:101430001BB2A34203D1281CFFF7B2FF07E0FEF75F
:1014400049FF211C031C0122281CFFF7D7FE38BDD1
:101450003001002070B5051C0C1CFEF746FF061E6F
:1014600004D0281C211CFFF7B3FF10E0084B1B8899
:101470001BB2A34203D1281CFFF792FF07E0FEF73F
:1014800029FF211C031C321C281CFFF7B7FE70BD6E
:1014900030010020F7B5104D061C2B880F1C1BB225
:1014A000141C934203D103200C49FFF77BF9FEF78C
:1014B00011FF2B880A4A1BB29B009D580190052101
:1014C000281CFEF771FE6F61301C211C0122019B5C
:1014D000FFF794FEFEBDC046300100202BBB00008C
:1014E000AC00002070B5041C0D1CFEF7F3FE0022BA
:1014F000A35E0F4A9B009C58061C002C15D0A388A5
:10150000052B02D0FEF7EEFE0FE06369201C06CD2E
:1015100006C30721FEF748FE2489301CFEF7E2FED1
:10152000201CFEF775FE012001E00120404270BD45
:10153000AC00002008B50121FFF7BAFE08BD00008D
:10154000002909D04A1E114006D1054B1B6898623C
:10155000D96119625A6201E001214942081C7047B1
:1015600034010020134A144B116A30B50B4080211E
:10157000C9030B4380211362D369C9051B021B0AEF
:101580000B430021D3618B080C4A9B009B1803225C
:10159000FF20C0240A40D2009040A4001D59013110
:1015A000854340209040021C2A431A511C29EAD14D
:1015B00030BDC04600ED00E0FFFF00FF00E100E0AD
:1015C00010B5031C041E8C4204D1446808E08A4212
:1015D00004D0131C5A68002AF9D101E04A685A6005
:1015E0000023081C4B6002F023FC201C10BD38B502
:1015F000151C02F09FF9041E0DD00823E05E291C83
:1016000002F018F9002802DC281C02F011FC201C52
:1016100002F0B8F9EFE738BD38B58B68051C588083
:101620000C1C00F0BDFD002803D103301449FFF766
:10163000B9F800226368002B03D0D9685B685218A0
:10164000F9E75D33FF33C35A9A4203D9201C02F0F5
:10165000EFFB13E0AD235B00C35A0120034207D028
:101660000849094A231C02F0ADF8002806D1EDE72D
:10167000281C211C02F0D2F80028E7DD38BDC04646
:101680002BBB00000000FFFF02020000F8B5051CA4
:101690000F1C161C00238C68002A03D0D1685268E6
:1016A0005B18F9E75BBA9BB223711B0A6371A379DC
:1016B000FF2B0AD1337C023BDBB2022B03D8584A02
:1016C000D35CFF2B00D13B23A371E379002B09D11D
:1016D0004033002D05D0281C00F062FDAF235B00D5
:1016E000C35CE371627A207A12020243111CA27A6F
:1016F000E37A12040A431B061343627B9C46207B59
:10170000A37B120202431B0413431A1CE37B1B0638
:1017100013436246134368D1627C207C1202024369
:10172000111CA27CE37C12040A431B061343627D56
:101730009C46207DA37D120202431B0413431A1C06
:10174000E37D1B061343624613434ED1627E207E27
:1017500012020243111CA27EE37E12040A431B06FE
:101760001343627F9C46207FA37F120202431B0427
:1017700013431A1CE37F1B0613436246134340D1F5
:10178000631CD87FA31CDA7FE31CDB7F12020243B9
:101790001B0413431A1C231DDB7FA11D1B061343CF
:1017A000C97F621DD27F09021143E21DD27F1BBA9D
:1017B00012040A43111C221C0832D27F12060A436B
:1017C00012BA012A1DD1002B1BD123726372A3729E
:1017D000E37223736373A373E37323746374A37457
:1017E000E37423756375A375E275301C391C02F030
:1017F000D4F8031C0020834210DA9A1C0ED0181C67
:101800000CE0211C281C183100F048FD011EECD012
:10181000201C1022083009F0F0F8E6E7F8BDC046B9
:101820000ABF00001FB50B4C0022A35E002B0CD199
:101830008021094A0193094B009202930848C9008C
:1018400004220823FFF710F820800023E05E04B094
:1018500010BDC046EC110020411A000005BF000079
:10186000EE11002070B502230C1C151E292D07D087
:1018700001333A2A04D0131C113B5A4253419B00B6
:101880002374292D05D03A2D15D1211C07F0C2FB58
:1018900011E0002323746168002907D01023CB5680
:1018A000022B03D1201CFFF78BFEF4E70223201C40
:1018B000237400F023F810200F49205602F04CF852
:1018C000291C061C022002F047F83018002803D11A
:1018D000201C02F0ADFA0EE0411E201C02F094FA2A
:1018E000102005492056221CFFF781FE0220291CEA
:1018F000221CFFF77CFE70BD0000FFFFF8B5061C40
:10190000051E06D103204D49FEF74CFF6D68002DE2
:1019100005D01023EB560133F8D1AB685D887068B1
:1019200000280DD01023C356022B09D1C368282BE1
:1019300006D10F2283681B789343602B73D111E08B
:101940000F22B3681B789343602B6CD1301C02F0DC
:101950009FFA041E67D02821022202F08DF9261C6E
:10196000002860D08468617923790902194349BA53
:10197000F36889B2994202D2301C02F0F3F9627E18
:10198000207EA77E120202433F04111C3A1CE37E14
:101990000A431B061343627F1F1C207FA37F120292
:1019A00002431B0413431A1CE37F1B0613433B43F0
:1019B00025D1631CD97FA31CDB7F1B020B431A1CA0
:1019C000E31CDB7F1B041343221DD27F12061A4344
:1019D000631DD87FA31D171CDA7FE31DDB7F120276
:1019E00002431B0413431A1C231C0833DB7F1B0612
:1019F00013431BBA3ABA012B01D1002A17D0211C7C
:101A00001831002D06D1281C00F030FC051C68425E
:101A1000684105E028B200F009FC031C5842584117
:101A2000C0B2002803D0301C02F002FA04E028B251
:101A3000A279311CFFF716FFF8BDC0462BBB000092
:101A400010223023F0B5A1B000AFBA18D018082189
:101A5000FFF776FD10222423BA18D118C54B0220B7
:101A60004B60C54B1B880B8101F03CFF10211423F8
:101A7000C24A7918CB185A8010220C23BA18D418ED
:101A8000201CFFF757FD6088BD4BC0182128F3D8F4
:101A900008F0C8F9220026004A014A01F2FFF2FFCD
:101AA000F2FFF2FFF2FFF2FFF2FFF2FFF2FFF2FFAE
:101AB000F2FF55015B016001F2FFF2FFF2FFF2FF5E
:101AC0006401F2FFF2FFF2FFF2FFF2FFF2FFF2FF1A
:101AD000F2FF68016C017A016068FFF70FFFCBE746
:101AE0006368FB601B7C5BB201330CD1FB68F86858
:101AF0009B68BB605D8802F0CBF9041EF8680AD0D1
:101B00006368FB6001E00025FC68F86802F0C0F93A
:101B1000061E03D1201C02F08BF9ADE7FB68A3423F
:101B200001D0606000E0041CB3687268197EFA603E
:101B3000FF292FD1002D1BD110221C23BA18D01839
:101B400001F0C4FE0028E5D000200123011C08227A
:101B50005B42BD8D02F072F80028DBD00022836862
:101B60001A705A705A805A719A711A714460041C22
:101B70002DB2281C311CFA68FFF788FD0028C9DB4C
:101B80004021A268281C13790B431371211CFFF715
:101B900043FD71E75A7E120211439A7E12041143EB
:101BA000DA7E12060A43597F94461A7F09021143CE
:101BB0009A7F12040A43111CDA7F12060A43614617
:101BC0000A4327D15A1CD07F9A1CD27F12020243AB
:101BD000111CDA1CD27F12040A43191DC97F0906A1
:101BE00011435A1DD27F081C94469A1DD17F62462C
:101BF00009020A43111CDA1DD27F120411431A1C78
:101C00000832D27F12060A4312BA01BA012A01D160
:101C100000290CD01833BB60002D38D110220823C6
:101C2000BA18D018B96800F021FB051E35D028B2CB
:101C3000311CFA68FFF72AFD002800DA6AE7311C38
:101C40000022CB684968D2180029FAD1081C022367
:101C500001F0F4FFF860002800D15BE7FB689D68A5
:101C6000281CB168F26808F0C8FEF3687668ED18C1
:101C7000002EF5D1201C02F0DBF8424BF968002061
:101C8000185E01F0D7FD002800DDF5E642E728B236
:101C9000B96800F0CBFA0028C9D16B4610217B60EF
:101CA00008237918FB751433C818053B2AB2F918B4
:101CB000BB6803F0D3FD051E6FD0311CFA68FFF737
:101CC000E5FC002869DBFB7DFB601023E356013354
:101CD00004D1201C211CFFF773FC041C00200123ED
:101CE000FA68011C08325B4201F0A8FF061E54D0BE
:101CF00000228368397B1A7059705A805A719A7120
:101D00001A71FB6893424ED08368F9685A788A4208
:101D100049D118781022083018181C23BA18D11885
:101D2000FA6808F06AFE3EE0862310225B42BB623E
:101D3000BA189A33201CD118FFF7D4FB9CE608216F
:101D40006268537E8B43537696E60020616800F00C
:101D500059FA91E6606800F055FF8DE6606800F082
:101D6000DBFF89E6606803F0DFFC85E6606803F06E
:101D70001BFD81E60000FFFF30010020050200008E
:101D8000FFFDFFFFEC1100206368587C0F23184013
:101D900002F026FA002303746EE6201C02F048F8D5
:101DA0007B689D4668E67460281C311CFFF734FC94
:101DB000F6E7C046F0B54378021C04781B022343C3
:101DC000181C937814791B040343D0789779000684
:101DD000184353793F041B0223438446181C3B1CC1
:101DE000D77903433F061F434B780C788E781B024C
:101DF00023433604181C331CCE7803433606487937
:101E00001E430D798B79000228431B040343181CE1
:101E1000CB791B060343B44536D19F4234D1537A64
:101E2000157A967A1B022B4336041C1C331C234361
:101E3000547B107B977B240204433F04251C3C1CED
:101E4000D67A2C4336061E43D37B4A7A1B0623439D
:101E50001F1C0B7A12021A43141C8A7AC87A1204C5
:101E60002243000610434A7B0D7B8B7B12022A43E0
:101E70001B0413431A1CCB7B70401B0613437B408F
:101E800018434342584100E00020F0BD70B543784C
:101E9000047886781B0223433604191C331CC2784D
:101EA0000B4312061A43161C4179057983790902FE
:101EB000C27929431B040B431206191C131C321C44
:101EC0000B431A4300239A421AD1427A047A857A44
:101ED000120222432D04111C2A1CC37A0A431B063A
:101EE0001343427B1D1C047B837B120222431B0491
:101EF00013431A1CC37B1B0613432B435842434115
:101F0000181C70BDF7B5061C5136FF36071C301C77
:101F100001910025FEF7FCFB38246C433C19201C82
:101F20000199FFF747FF002806D000232360636074
:101F3000A360E360237402E00135062DECD1301C70
:101F4000FEF710FCF7BD0000F0B5071C0D1C061CC9
:101F5000002485B05137009002920393FF37301C64
:101F6000291CFFF727FF00285BD1301CFFF78EFFED
:101F7000002802D0002C00D1341C3836BE42EED1ED
:101F80000194002C4ED0201C291C102208F035FD95
:101F90006B461B7A63746B461B7B23742378FF2B81
:101FA00018D0AD23009A5B00D35ADB0712D501F09D
:101FB00061F8071E0ED0301CFEF7D4FBAC23009A4C
:101FC0005B00D05E211C3A1C3B1C01F03DF9301C2B
:101FD000FEF79EFB2B78FF2B02D1237C01221DE014
:101FE0006A78287912021343AA7812041343EA7814
:101FF00012061A43161C6A79AB79120202431B04BB
:1020000013431A1CEB791B06134332BA002B09D178
:10201000064B9A4206D18022237C524213432374FA
:1020200000E00196019805B0F0BDC046000080FEBA
:1020300030B5021C002906D00378FF2B03D140786D
:10204000F03B184039E0537810781B020343191C09
:10205000937814791B040B43D178090619430D1C9E
:1020600051799379090221431B040B43191CD3793D
:102070001B060B4329BA002B03D1104B02209942B7
:102080001BD01178FF2904D10F2350781840022863
:1020900013D0137852780A4C100203433F205BBAE6
:1020A0009BB283433A38A34207D00E20FF2904D1C4
:1020B00001301040052800D00E2030BD000080FE09
:1020C000C0FE0000F7B50025071C0C1C2E1C019259
:1020D0000093009B002B09D001231A1CAA400099F1
:1020E000097811421BD0227C1A4218D1201CFFF71C
:1020F000CDFE002813D1201C019903F0AEFE009BF9
:10210000002B06D1019B1B78FF2B02D0637C8342FE
:1021100005D8B04203D9061C002F00D03C60013521
:102120003834062DD5D1301CFEBD0000AC23F0B5EF
:102130001A4C5B00E55A85B02BB2071C83422BD0AA
:10214000002D29D1291C10226846261C08F05EFCAF
:102150006A46FF2351361370FF36FD3B5370301C27
:10216000013BD373FEF7D4FAAC23A0225B00E75205
:10217000D2000433E25240220233E254043BE552DF
:10218000694692182B1C201CFFF7DEFE301CFEF760
:10219000E9FA201C00F0CEFD05B0F0BDF0150020DE
:1021A000AC23044A5B00D15E0023814200D1131CA2
:1021B000181C7047F0150020F7B50C1C171C019374
:1021C000FFF7EEFF051E1BD0201E19D0FFF75EFEA5
:1021D000031C0020834213D1181C802F10DC2E1CFE
:1021E0005136FF36301CFEF793FA211C3A1C019B36
:1021F000281CFFF7A9FE041C301CFEF7B3FA201CB4
:10220000FEBD000010B50C1C002806D1AC2306480A
:102210005B00C35E002B05D001E0FFF7C1FF211C6E
:10222000FFF770FE10BDC046F0150020F8B50F1C7A
:10223000FFF7B6FF051E16D0061C5136FF36301CC0
:10224000FEF766FA281C391CFFF7B4FD041E03D004
:10225000301CFEF787FA06E03835AE42F2D1301C6A
:10226000FEF780FA251C281CF8BD000070B5AC24D0
:10227000094D6400061C285F002E05D1FFF7D6FF2C
:10228000002805D1002004E0FFF7D0FF3060F7E719
:10229000285B00B270BDC046F0150020F0B58BB0D1
:1022A0000291FFF77DFF031C5133FF330090181C90
:1022B0000393FEF72DFA06A80021012208F0A6FBE1
:1022C000009F01233D1C00245B4201932B78FF2BD0
:1022D0000CD0281CFFF7DAFD002807D10123A3400A
:1022E00006AA12780194134306AA137001343835F4
:1022F000062CEBD1019B002601336CD0221C311C33
:1023000008A808F083FB02980121FFF791FE341C16
:10231000351C06AB1B78049005930123AB40059A4E
:102320001A422FD00299381CFFF744FD3E1C011EB3
:102330004AD1381CFFF77CFE049B984208D108AABA
:10234000AB5C0433DBB2AB54A3420ED904240CE0E3
:10235000049B984209D208AAAB5C0233DBB2AB54AF
:102360001A1CA34200D2221CD4B2BB69002B09D094
:1023700008AAAB5C0133DBB2AB54221C9C4200D2F6
:102380001A1CD4B201353837062DC6D1012206A851
:10239000002108F03BFB06AB1A78002308A9595C22
:1023A000A14203D1012199400A43D2B20133062B45
:1023B000F4D106AB1A70002307A807930099029A7C
:1023C00006ABFFF77FFE079E002E04D1019B383637
:1023D0005E43009B9E190398FEF7C4F9301C0BB0B6
:1023E000F0BD0000F0B58DB005A801F06FFA002730
:1023F000039005AC039B9F4200D1A5E00023E05E63
:10240000FFF7CEFE051E00D19BE0031C0B265133C7
:10241000FF33181C0293FEF77BF902ABF61800237A
:1024200033700023E05E01230E2100930022331C51
:1024300001F00CFA863029D000217156012925D1EE
:10244000082206AB1A8008AE093A32809232FF3277
:102450007A433E485B32FF32821810880143118074
:102460000022A05E022205210092002201F004FA5F
:102470000023E05E0223092100930022331C01F0B7
:10248000E5F90023E05E318803F08AFB0023E05E7B
:10249000082306AE009307210022331C01F0D6F971
:1024A000002803DA0298FEF75DF94AE0337808A9BC
:1024B0000B727378264A4B72B378281C8B72F378B0
:1024C000CB7233790B7373794B73B3798B73F37965
:1024D0000E26CB7300230892099300234022FFF7B6
:1024E00033FD0023E05E02ABF618022309210093BE
:1024F0000022331C01F0AAF9002806DB3388154AB4
:10250000934202D9AE225200AB520023E05E042374
:10251000002200931821331CAD2601F097F97600B4
:102520008022AB5B002801DD134300E09343AB53F3
:102530000298FEF717F9AB5BDB0702D5281C03F006
:10254000CDF80137023455E70DB0F0BDF01500208D
:10255000FE800000FF040000F0B585B0071C039169
:10256000161C1C1C863324D006F032FF051E08D131
:102570000322A3B20092381C0399321C06F086FE97
:1025800017E0071C027EA3B210379A420AD0311C12
:102590002C76381C221C08F030FA281C032100F08D
:1025A000B9FE06E0301C391C221C08F017FA00287E
:1025B000EDD105B0F0BD0000F7B5041C0F1C04F010
:1025C00073F8231CFC335F660A2107F0C5FC481D25
:1025D00078430A2107F03AFCB2266D467600021CC9
:1025E0000021684605F0C2FAA31906CD06C3A51955
:1025F0006F680649381C07F029FCA3590349C01825
:10260000A051381C07F0A8FC6960F7BD40420F00DC
:10261000F0B5D4798DB0FF2C00D0B4E05C78002CFC
:1026200000D0B0E0129C172C00D8ACE01C7AFF2C34
:1026300000D1A8E0557A147A2D0225432F1C957AF3
:10264000D47A2D043D4324062C43557B261C147B51
:102650002D022543947B24042C43251CD47B240683
:102660002C43344346D1557C147C2D0225432F1C2A
:10267000957CD47C2D043D4324062C43557D261C9B
:10268000147D2D022543947D24042C43251CD47DE8
:1026900024062C4334432DD1547E157E24022C4332
:1026A000957E271C2D042C1CD57E3C432D06577F80
:1026B0002543147F3F022743947F2DBA24042743E8
:1026C000D47F24063C4315D1304CA54212D1541C72
:1026D000E57F941CE77F3F023C1C2C43D51CED7F1B
:1026E0002D0425432F1C141DE57F2D063D432DBAD7
:1026F000012D44D00591191C08311C1C0392051CA6
:10270000FFF794FD049000283DD0129B183B0293E4
:1027100000231E1C029A002A17DD371C1837E71900
:102720003A78012A09D106AB2278059800930399DB
:102730003B1C00F099FE031E25DB7A780299D2003B
:10274000B6188A1AB6B20292E4E7039C281C083431
:10275000211C06AAFFF700FF211C102208A808F080
:102760004CF9039B281C1B7E0499FF3B5A425341A2
:102770000022DBB2009208AA00F0A0FC03E0541D86
:10278000E47FFF2CB6D10DB0F0BDC046000002FFC3
:10279000F0B51F1C08338DB00E1C191C0893059052
:1027A0000992129C06F014FE099BDB79FF2B00D0E6
:1027B000BBE07D78002D00D0B7E0172C00D8B4E046
:1027C0003B7AFF2B00D1B0E0002800D1ADE0183CEF
:1027D00007940695079B002B2CDD069C18343C19AA
:1027E0002378022B0CD0212B15D100233A780598A1
:1027F0000193029300940999089B03F02BF90AE0D6
:102800000AAB3A78301C00930999231C00F08BFE28
:10281000051E00DA89E06378069ADB00D21892B2CE
:102820000692079AD31A0793D4E71023F35601337D
:1028300003D07668002EF8D100E0B66805980899B4
:1028400006F0C6FD041E70D00723427E1340022B03
:1028500016D1002E05D03378002B02D07378002BD0
:102860003AD16B46201C9B8A2576638310300AA9D7
:102870002A1C08F0C2F83B79201C5B061FD519E022
:10288000002E05D03378002B02D07378002B3DD179
:102890000026002D03D1267E701E8641F6B23B79BC
:1028A0009B061CD4002E1AD0002D25D13B795B0647
:1028B00002D5201C072103E0002E03D0201C032199
:1028C00000F028FD3979637E08227F2901D913435E
:1028D00000E09343637628E0002DC2D125E0002D6F
:1028E000E4D06B46201C9B8A257663830AA92A1CA8
:1028F000103008F082F8D9E70723627E1340072BD7
:1029000013D1201C032100F005FD0EE02E1EC6D0C1
:10291000237E00269D42C2D0201C0AA910302A1C0A
:1029200008F05CF846424641B9E70DB0F0BD000042
:10293000F0B593B00B9104921F1C0690FFF730FC8A
:10294000049B04995A7A1D7A9B7A12022A431B042B
:1029500013431A1C049B497BDB7A09021B061343B1
:10296000049A061C127B1BBA1143049A927B120430
:102970000A43111C049AD27B12060A4300D039E1A3
:102980009D4A934200D035E1FF2D00D132E1049BF6
:10299000DB79FF2B00D02DE17B78002B00D029E1E3
:1029A000189B0F2B00D825E1049B06980833191CAF
:1029B0000A9306F00DFD08220390031E09D1009230
:1029C00006980A991A1C06F061FC039000280FD1A2
:1029D00010E1039B5B7E134206D0F979B8790902B6
:1029E000014301D1934301E008221343039A537634
:1029F000FB79BA791B02134300220592934219D046
:102A0000039D5BBA1C359BB2281C059305F0F0F8BA
:102A100010A80599002205F0A9F88422774B9200AE
:102A20001B880092039A1BB20192281C1099119ADC
:102A300005F0BEF83B79002B02D0AF225200B35410
:102A4000AD225200B35A9B04990CB1527B799B0979
:102A50009B030B43B3527B7A387AB97A1B02034348
:102A600009041A1C0B1CF97A13430906194308D0F0
:102A7000331CFC335B6E09BA8B4202D0301CFFF76B
:102A80009BFD7B7B387BBA7B1B0203431204191C22
:102A9000131CFA7B0B4312061A4319D0B6240CAD53
:102AA00012BA6400281C002105F060F8331906CD25
:102AB00006C335196B685249181C079307F0C6F90D
:102AC00033594F49C0183051079807F045FA6960EB
:102AD000301C5130FF30FDF745FE189B103B08932A
:102AE000002307930993089B002B5CDD079C10349F
:102AF0003C192378032B1CD002D8012B05D048E0C9
:102B0000052B0ED0222B2DD043E00EAB3A780B983C
:102B100000930499231C00F0A7FC0990002838DAE0
:102B200068E039780698221C00F05BFD002830D15F
:102B300060E039780698221C00F07AFD002859D010
:102B400062792079A379120202431B0413431A1CF1
:102B5000E3791B0613431BBA002B1AD0059A9A423D
:102B600017D915E03878211C02F0FAFF002841D06F
:102B7000E579A3792D021D436DBAADB2002D08D0C1
:102B800005983C2107F062F9854202D23C236B4351
:102B900005936378079ADB00D21892B20792089ADD
:102BA000D31A08939FE7099B06980A990EAAFFF784
:102BB000D3FCAD2301245B00F35A23421AD0301C0E
:102BC0007530FF3005F014F80323059A211C534398
:102BD000042B00D9990860230024FF33F454039890
:102BE00002F0EEFE039B039A1A20185E211C131CB0
:102BF00000F02AFB13B0F0BD000080FE3001002081
:102C000040420F000723F0B5427E8BB01A40022AE3
:102C100001D0052A75D1071C8C373D78041C012D85
:102C20006AD906AE022A11D1802300215B040893E1
:102C30003548FF2306900791211C26203373637BC0
:102C400068440E31737307F0D8FE05E0031C321C94
:102C500003CB03C203CB03C2013D3D70658B002D46
:102C600023D12A4B03A80495059300F02FFE071CDF
:102C7000BD4209D06A0003ABD05E0021221C331C88
:102C800000F0E2FA0135F3E7251C3835281C04F082
:102C9000AFFF1F4B281C00229B5E1E4A019400922E
:102CA0000499059A04F084FF2BE028B2FFF778FA24
:102CB000051C1A23E05E331C2E1C271C5136221CD7
:102CC0000021FF3600F0C0FA3837301CFDF720FD38
:102CD000381C04F08DFF0E4B381C00229B5E0D4A01
:102CE00001940092A63AA958AD186A6804F060FFF2
:102CF000301CFDF737FD04E01A23C05E211C06F0EE
:102D0000C5FB0BB0F0BDC046FF02000040420F0003
:102D1000EC1100201202000008B50723427E134088
:102D2000042B03D00321072B01D002E0052100F082
:102D3000F1FA08BD031CF0B5041CB6275133FF336C
:102D400085B0181C124D009302AEFDF7E1FC201C6B
:102D50001049FFF731FC7F002A1C301C002104F0D1
:102D600005FFE31906CE06C3E6197368291C181C73
:102D7000019307F06BF8E359291CC018E051019842
:102D800007F0EAF800987160FDF7ECFC05B0F0BDC3
:102D900040420F0080C3C901F8B502780023FF2A22
:102DA0005AD01A1C041C1833081C872106F096F907
:102DB0000022031E93424FD083681A715A719A7190
:102DC000DA7162782678A178120232430904151C60
:102DD0000A1CE1782A430906657927791143A2790B
:102DE0002D023D4312042A43151CE2791972120682
:102DF0002A430D0A5D720D0C090ED972110A1A735D
:102E00005973110C120E99739D72DA73627A257AD6
:102E1000A77A12022A433F04111C3A1CE77A0A439C
:102E20003F06617B267B1743A27B090231431204D4
:102E30000A43111CE27B1F7412060A43390A5974B3
:102E4000390C99743F0E110ADF741A755975110CFB
:102E5000120E9975DA75031C181CF8BDF8B50C78BC
:102E60000023FF2C5CD00C1C051C8821101C1A1C94
:102E7000183306F033F9031E52D01F229543002267
:102E800083681D71DA719A715A7162782678A17817
:102E9000120232430904151C0A1CE1782A43090670
:102EA000657927791143A2792D023D4312042A4303
:102EB000151CE279197212062A430D0A5D720D0C77
:102EC000090ED972110A1A735973110C120E9973E3
:102ED0009D72DA73627A257AA77A12022A433F0436
:102EE000111C3A1CE77A0A433F06617B267B174395
:102EF000A27B0902314312040A43111CE27B1F74B6
:102F000012060A43390A5974390C99743F0E110A92
:102F1000DF741A755975110C120E9975DA75031C48
:102F2000181CF8BD08B585210022082306F0D6F844
:102F3000002805D0002283681A715A719A71DA71DB
:102F400008BDC9B2073110B5F823041C101C0A1CB7
:102F500000211A400B1C00F071FE002804D082688A
:102F60001470C368DB08537010BDF8B50F1C161C35
:102F7000911C1A1CFFF7E5FF041E0CD0836800218A
:102F80009D1CC368281C9A1E07F040FD281C391C94
:102F9000321C07F032FD201CF8BD38B5051C0C1C96
:102FA000131C291C221C0120FFF7DFFF38BD38B598
:102FB000051C0C1C131C291C221C0220FFF7D5FF2A
:102FC00038BD7FB50E2402236C440E1C00930521EE
:102FD0000022231C051C00F039FC002802DB23889A
:102FE000062B0ED80823281C009302210022331C34
:102FF00000F02CFC002801DB20800DE00023238062
:103000000AE00823281C009303210022331C00F04F
:103010001DFC0628E6DDEFE7208804B070BD73B51F
:10302000141C1022061C0092081C191C231C06F0FC
:1030300083F8051E1DD0FF230020AA68011CD37150
:10304000013B0822FF3B00F0F9FD0022041E9442E0
:103050000AD083681A705A705A719A711A715A801C
:1030600083685E80456003E06860281C00F0E0FE35
:10307000201C76BD002038B506F03EFA041E0BD0A9
:103080000723627E1340013B012B03D900220A4B28
:103090001A600EE0201CEFE7074D286806F02CFAB6
:1030A000002804D1201C06F027FA002801D0041CB7
:1030B0002860201C38BDC04680170020F0B5AD2721
:1030C00087B00393041C0D1C161CFFF769F87F00E2
:1030D000C35B9B0701D4002706E0201CFFF760F8C4
:1030E000C35B5B07F7D58027727830781202024302
:1030F000111CB278F37812040A431B061343727949
:103100009C463079B379120202431B0413431A1C04
:10311000F3791B0613436246134300D089E0727AA9
:10312000307A12020243111CB27AF37A12040A4373
:103130001B061343727B9C46307BB37B1202024317
:103140001B0413431A1CF37B1B06134362461343F1
:103150006FD10122B370F37033717371B371F37176
:1031600033727372B372F37233737373B373012375
:103170005242327003327270F373039B002B0DD0F6
:10318000201C04A9FFF71DFF002807D0C1B20C9A2C
:1031900004A8FFF70CFF00280FD00C900C9B002B0D
:1031A00004D02B7CDB0701D420231F43381C291CAF
:1031B0000C9AFFF753FE071E01D10C9836E0321C23
:1031C000201C391C0023FFF72AFF061C381C002E88
:1031D0002CD02B7C194FDB0720D503F065FA18495A
:1031E00006F0BAFE201C0391291C06F0F1F800231A
:1031F0005430041C12490398049306F0ADFE201CC1
:10320000059104F0F5FC0022BB5E0E4A0196009287
:10321000201C0499059A04F0CBFC0DE00023F85E15
:10322000311C00F0FBFA002806DC301C00F000FE28
:1032300002E040231F43A0E707B0F0BDEC110020DF
:1032400040420F0002020000F0B589B0051C0F1CBF
:1032500004920593FEF7A4FF0390002803D10320F6
:103260002A49FDF79FFA002F08D1281C0499FFF77F
:1032700015F80026071C341CB0420ED0281C06A9E5
:10328000FFF79FFE0024061EA64206D0C1B2221CF4
:1032900006A8FFF782FE041E33D0AD23039A5B001D
:1032A000D35ADB0715D5082E0AD00823281C009313
:1032B0000321002206AB00F0C9FA80B2082820D111
:1032C00000200F2106AA231C02F0A6FB002818D01C
:1032D000041C0498211CFFF75FFD061E11D0281C5A
:1032E000311C059A3B1CFFF79AFE041C301C002C75
:1032F00008D0074B211C0020185E00F08FFA002830
:1033000002DC201C00F094FD09B0F0BD2BBB0000D6
:10331000EC110020F0B505230026072285B002AD90
:1033200002936E60437E041C93430B43437605294E
:103330001ED0914202D0042945D108E01A23C05E74
:10334000FEF72EFF2B1C6530FF3006C806C3261C77
:103350003836301C04F04CFC1C4B301C00229B5EA9
:103360001B4A0194009202996A6804F021FC2AE049
:103370001A23C05EFEF714FF051C231C311C032218
:103380002E1C271C8C331A705136221C1A23E05E27
:10339000FF36231CFFF758FF3837301CFDF7B8F90C
:1033A000381C04F025FC094B381C00229B5E094A9E
:1033B00001940092A63AA958AD186A6804F0F8FB87
:1033C000301CFDF7CFF905B0F0BDC046EC11002070
:1033D0001702000012020000F0B589B004AC071C0F
:1033E0000D1C201C0021102207F010FBFF2323706E
:1033F000FD3B6370E373002D00D1251C381C291C94
:10340000FEF74CFF019000280ED0381C02A9FFF7F0
:10341000D8FD0024A04208D0C1B2221C02A8FFF7A8
:10342000BCFD041E01D117E0019C201CFFF77AFDB2
:10343000061E11D0381C311C2A1C019BFFF7EFFD22
:10344000041C301C002C08D0064B211C0020185EE8
:1034500000F0E4F9002802DC201C00F0E9FC09B0CF
:10346000F0BDC046EC110020F7B55D789C1C0194BE
:10347000002D4FD04F7A0C7A3F023C438F7A3F04A5
:103480002743CC7A24063C43A4464F7B0C7B3F0267
:1034900027438C7B24042743CC7B24063C4367468C
:1034A0003C431DD14C7C0F7C240227438C7C24049C
:1034B0003C43CF7C3F0627430C7DA44666464C7DAB
:1034C000240234438E7DC97D3604344309062143EA
:1034D000394305D11EE010214156013103D0406827
:1034E0000028F8D118E081687B32D2B20C78022A29
:1034F00016D8002C07D1ED08AC1E1A195278002AF4
:1035000001D1013CF9E708980199221C07F075FAEE
:10351000201C07E0162004E07B32D2B2022AEAD94E
:1035200086204042FEBDF8B5141C5A78002A33D0DC
:103530004E7A0D7A36022E43371C8E7ACD7A3604B7
:103540003E432D0635434E7BAC460D7B36022E4363
:103550008D7B2D0435432E1CCD7B2D0635436646D1
:1035600035431CD14E7C0D7C36022E43371C8E7C9D
:10357000CD7C36043E432D063543AC464E7D0D7D55
:1035800036022E438D7D2D0435432E1CCD7D6146A4
:103590002D0635430D4302D11620404220E0991CF0
:1035A000882C1CD100280AD01023C356013304D123
:1035B00083681C78002C0CD101E04068F2E7D20847
:1035C000941EE4B20A19013A1378002B01D1013C90
:1035D000F7E70698221C07F010FA201C00E00020F4
:1035E000F8BDF8B5171C0D1CFEF7DAFD7B78061C3C
:1035F0000024012B1AD11C1C862D17D1051C513516
:10360000FF35281CFDF784F87A793879BB791202E6
:1036100002431B0413431A1CFB79281C1B0613438B
:10362000AE221BBA5200B352FDF79CF8201CF8BD25
:10363000F0B55378061C87B00020042B00D0B8E00A
:10364000862930D1537C107C1B020343191C937CC8
:10365000157D1B040B43D17C09061943081C517DC1
:10366000937D090229431B040B43191CD37D1B06C0
:103670000B4301BA002B02D14F4B994213D0137C5C
:10368000FF2B04D1517CF03B0B40022B0BD0301CA4
:10369000141CFEF785FDAD235B00C35ADB0704D580
:1036A000E3787F2B01D9012083E0271C1037301CE1
:1036B000391CFEF7BBFD051E03D0427CA3789A425D
:1036C00026D062792079A379120202431B041343A6
:1036D0001A1CE3791B0613431AD00823301C0093ED
:1036E0000721002204AB00F0B1F800280EDBA2781D
:1036F00002A8391C02F0DAFB3F21E378A2788B4361
:10370000301C02A9FEF758FD051E01D1002050E033
:1037100062792079A379120202431B0413431A1C15
:10372000E3791B06134306D1002DBCD0301C291CA5
:10373000FEF768FDB7E71BBA6B61627A207AA37A5D
:10374000120202431B0413431A1C2E1CE37A1C367C
:103750001B0613431BBAAB61301C04F049FA6B69BA
:1037600001331BD063792079A1791B02034309043B
:103770001A1C0B1CE17913430906194309BA02A864
:10378000002204F0F3F90D4B0D4A1B88301C009207
:103790001BB201950299039A04F00AFA40222B7C8D
:1037A0003F2193431A1C2B74E3788B4313432B74F0
:1037B00079E707B0F0BDC046000080FE3001002070
:1037C00011020000F0B585B0071C0E1C01921D1CF3
:1037D00000F0C2F8041E1ED0311C381C00F0AAF8FC
:1037E000611E061C281C00F00FFB002E13D06A4639
:1037F000318902AB928809B2181C5A800395FDF7F3
:1038000029FE002802DC281C00F012FB301C00F00E
:10381000B9F8061CE9E7201C05B0F0BD07B5031C8C
:103820006846034A0191191C4280FDF713FE0EBD44
:103830000202000007B5031C6846034A0191191CE7
:103840004280FDF707FE0EBD0102000030B589B0D1
:1038500006930C9B05AC051C2381812301A82170D4
:1038600062809B0003A92A1C43804460FDF712FE7E
:10387000049809B030BD000030B5051C89B006932E
:103880000C9B05AC2381064B01A82170628003A923
:103890002A1C43804460FDF7FDFD049809B030BD4B
:1038A00003020000084B10B51C8822B2824201D1ED
:1038B000002007E0002C03D11880FEF737FCF7E763
:1038C0000C20404210BDC04684170020044B1A88CB
:1038D00000239A4201D002800133181C7047C04671
:1038E00084170020C3B2042B06D8054B8000C258B1
:1038F0000A60C150002001E0162040427047C046D7
:1039000088170020C3B2042B10D8094A80008358BE
:103910008B4205D11B68835008E08A4204D0131CF7
:103920001A68002AF9D101E00A681A607047C04697
:1039300088170020C2B2031C0020042A09D8054AB7
:103940009B009858002804D043688B4201D000683F
:10395000F8E7704788170020C2B230B50023042A68
:103960000CD8074A80008058002807D042680068B9
:10397000521A55425541AC466344F5E7181C30BD18
:1039800088170020031E07D005CB002804D0436809
:10399000934201D00068F8E7704708B500290BD0C2
:1039A0001023C356032B04D0042B07D102F0DAF9FD
:1039B00006E005F0A4FB03E0162000E002204042F0
:1039C00008BD000030B5041C95B0082104A8FDF71F
:1039D000B7FD204B188880B2208100B2FFF762FF4C
:1039E000201C23681C495B6898476846FDF7A2FDC8
:1039F0006B461A4A5B88934216D009D8033AFF3ABD
:103A00009342F2D12368201C5B6901999847ECE747
:103A1000134A93420DD001329342E6D1019A2068B5
:103A200011781389C56809E02368201C1B68019977
:103A3000DAE7019A2068117813890569201C526819
:103A4000A84702A9074B486068464B80FDF74AFD2E
:103A5000CBE7C04630010020693A000002020000B6
:103A6000030200000502000010B502280CD10C1C56
:103A70001020064A0856231C0549FFF7A3FE00281C
:103A800002D1201C00F0D4F910BDC0460102000094
:103A90000000FFFF30B585B0089C002C0DD02568D4
:103AA000002D0AD0074D0293009501940823FCF7DE
:103AB000DBFE002802DC044800E0044800B205B048
:103AC00030BDC046C5390000EAFF0000EDFF000030
:103AD00030B5134D08222B68072803D9053A033067
:103AE0009043021C0024002B18D059688A4202D946
:103AF0001C1C1B68F7E7891A072906D81A68002CCE
:103B000001D12A600AE0226008E09818002C01D157
:103B1000286000E020601A6841600260181C30BD17
:103B20009C17002038B51F4C1F4B2268251C1F4CCA
:103B3000C31AA34234D80023002A04D0824202D2FE
:103B4000131C1268F8E702600824072903D903222E
:103B5000033191430C1C4460002B01D1286011E01B
:103B60005A6818609A18821A072A0BD8002803D1BD
:103B700003300F49FCF716FE0268C01A2118181C02
:103B80001A6059600368002B0AD0426882189A1A9A
:103B9000072A05D81A6802601A1A5B68D3184360AE
:103BA00038BDC0469C170020A0170020FF1700005A
:103BB0002BBB0000F7B5009014200F1C161C0193BE
:103BC000FFF786FF041E1CD0301CFFF781FF051E87
:103BD00005D1201C1421FFF7A5FF281C11E0009B34
:103BE000A06063606B461B79E66023740123201C90
:103BF0002360002F05D0281C391C321C06F0FDFE66
:103C0000201CFEBD10B50A4C201CFCF781FD094BA1
:103C1000094A18211360002259711A705A709A705B
:103C2000DA701A719A71DA71201CFCF79BFD10BDD5
:103C3000A02F0020A01700209C170020F7B50C4CE7
:103C4000551E061C0020A54211D8141C0D1C094F3E
:103C50000193381CFCF75CFD221C291C019B301CC5
:103C6000FFF7A8FF041C381CFCF77CFD201CFEBDE0
:103C7000FF170000A02F0020F7B5041C0E1C0192B6
:103C80000827072902D90323CF1C9F43344D281C42
:103C9000FCF73EFD002E07D0002C05D0E3689E42C5
:103CA00002D8A268002A04D12D48FCF75BFD002051
:103CB00054E09E4207D16B461B79281C2374FCF705
:103CC00051FD201C4AE01420FFF702FF051EEBD037
:103CD000BE4203D3E3689B1B072B2AD8301CFFF797
:103CE000F7FE071E02D1281C14210CE0E368981B84
:103CF000FFF7EEFE0090002808D1281C1421FFF7E2
:103D000011FF381C311CFFF70DFFCDE7A168321CF5
:103D1000381C06F072FEA36800989919E3689A1B94
:103D200006F06BFEA068E168FFF7FCFEAF60009B49
:103D300003E0A3688360A3689B19A360E368084855
:103D40009B1BE3606368EE606B606B461B792B74B2
:103D500001232B606560FCF705FD281CFEBDC046F5
:103D6000A02F0020F8B5041C0D1C0827072903D933
:103D70000323C81C9843071C1F4E301CFCF7C8FCCB
:103D8000002C07D0A068002804D01C4B1C4AC31A82
:103D9000934203D903201B49FCF704FD002D04D1F5
:103DA0001548FCF7DFFC0C2025E0E1688D4201D1CD
:103DB000301C1DE08D4202D8C91B072913D8281CCE
:103DC000FFF786FE061EEBD0E3682A1E9A4200D952
:103DD0001A1CA168301C06F010FEA068E168FFF70D
:103DE000A1FEA66002E0C019FFF79CFE0248E56054
:103DF000FCF7B8FC0020F8BDA02F0020A017002081
:103E0000FF1700002BBB000070B5084D041C281CD8
:103E10000E1CFCF77DFC281C002C04D023689B1989
:103E200023606468F8E7FCF79DFC70BDA02F0020BC
:103E300070B5134D041C281CFCF76AFC002C1BD029
:103E4000104B114AE31A934203D903200F49FCF7A0
:103E5000A9FC23686668012B0AD10023A068E168E9
:103E60002360FFF75FFE201C1421FFF75BFE01E0DB
:103E7000013B2360341CE1E7281CFCF773FC70BD98
:103E8000A02F0020A0170020FF1700002BBB000070
:103E900070B5144D041C281CFCF73AFC2E1C002C99
:103EA00002D0E268002A04D1301CFCF75BFC002041
:103EB00016E02368012B0FD910236068E356A16830
:103EC000FFF778FE051E02D02368013B2360301CFB
:103ED000FCF748FC281C03E0281CFCF743FC201CD2
:103EE00070BDC046A02F002010B5031C041E8C42DC
:103EF00004D1446808E08A4204D0131C5A68002A9E
:103F0000F9D101E04A685A600023081C4B60FFF7B2
:103F10008FFF201C10BD0000F0B59BB008210AA83F
:103F2000FDF70EFB6E4B07A94B606E4B01201B8803
:103F30000B81FFF7D7FC6C4B02AAD38103AC201C8A
:103F4000FDF7F8FA6088694BC0180328F6D805F029
:103F50005FFF02146E6E6668301CFFF799FF041C49
:103F6000051C301C002C00D1B7E01027EF57012FA3
:103F700065D06D68002DF8D1AEE06568002D1FD0CA
:103F8000EB68072B1CD96B68002B19D01B7C5BB22C
:103F9000022B15D1281CFFF77BFF041E10D083686D
:103FA000002601930220185E01F00AFE071C6168DA
:103FB000002903D0CB684968F618F9E7002F01D132
:103FC000281C8AE03B79002B05D0201C01F00AF860
:103FD00000280DD180E00122081C131CFFF72EFEE3
:103FE000002879D0412263684360606083681A705A
:103FF00000226368002B03D0D9685B685218F9E788
:104000007B889A4208D8019B211C0220185EFFF78A
:1040100005FC002892DC5FE0354B9E425CD8019B9A
:10402000211C0220185E321C00F0F4F986E786237A
:10403000201C5B4205A90693FDF754FA7EE7EB6866
:10404000002B49D0AB681B78412B0FD1281CFFF700
:104050001FFF051E40D0391C3A1CFFF70DFE011E44
:104060003AD0201CFFF740FF041C27E02722191C30
:104070009143C02903D1201C00F0C0FA5EE71F2243
:104080009343602B28D100200932011C5E3BFFF7CF
:10409000D5FD061E20D00022211C131C00F0E0FCE0
:1040A000011E16D0201C3A1CFFF7E6FD011E10D0A1
:1040B000201CFFF719FF63687360666002200849DF
:1040C00028740C4A231CFFF77DFB002800D035E73D
:1040D00002E0301CFFF7ACFE201CFFF7A9FE2DE725
:1040E0000000FFFF3001002005020000FFFDFFFF80
:1040F000FF070000010200001FB50B4C208803B22F
:10410000002B0DDC094B8021009300230193084B09
:1041100008480293C90003220823FCF7A5FB20806E
:1041200000B204B010BDC046A8330020193F000003
:104130000DBF0000A82F002037B5142444430E4BB8
:104140001C1910346388002B0ED0051C684603F040
:1041500011FD00983C2105F079FE084BAD00EB58AD
:10416000984206D3002363801022637893436370E0
:1041700001E01B1A638037BDAA330020EC34002015
:10418000F0B500252E1C144F85B00290381CFCF7AA
:10419000BFFA124C019510340397E8B2FFF7CCFF39
:1041A0002378002B0DD0271C103F381C029901F0FA
:1041B00054FE2378834204D8019B984201D93E1CC7
:1041C000019001351434102DE7D10398FCF7CAFA99
:1041D000301C05B0F0BDC0462C350020AA330020AD
:1041E00070B500230F2816D8051C0C4E301CFCF7A8
:1041F0008FFA281CFFF7A0FF14206843084B1D18F6
:104200002C7C301C002C03D0FCF7ACFA2B1C02E0F9
:10421000FCF7A8FA231C181C70BDC0462C350020E2
:10422000AA330020F0B585B001930AAB051C0C1C25
:10423000161C1F7800200F2D00D986E0101E00D11B
:1042400083E04348FCF764FA142369466B43414A10
:104250008988D31859820199481E814149420F40EB
:10426000802E02D98021197400E01E742B1C002FAF
:1042700001D010232B4314266E439619778873744C
:1042800033883F04F0881F43B388000418436378E1
:1042900021781B020B431A1CA37861791B0413437A
:1042A000E27809021206134322791143A27912041B
:1042B0001143E27912060A439F4233D1904231D131
:1042C00077893289637A217A3F04F08917431B0288
:1042D000B2890B43000410431A1CA37A617B1B04B0
:1042E0001343E27A090212061343227B1143A27B95
:1042F00012041143E27B12060A439F4212D19042FC
:1043000010D102A803F036FC02983C2105F09EFD76
:10431000019BAD001818104BE8500D48FCF722FA2D
:10432000301C12E014236B430A4A301CD3180022BD
:10433000211C1A805A809A80DA801A815A819A81C7
:10434000DA811A7C01F0B2FDDBE705B0F0BDC046B2
:104350002C350020AA330020EC340020031CF0B5DB
:10436000077885B0083300933B1C0833C3180391CA
:10437000029201934678051C01230020BA190832E5
:10438000011C5B42FFF75AFC0022041E94423FD0FE
:10439000A3681F705E705A805A719A711A71009BDF
:1043A000934209D0974207D0A0680278BA4203D15D
:1043B0000830191C06F021FB019B002B0CD0002EAD
:1043C0000AD0A3685A78B24206D118780199083009
:1043D0001818321C06F011FBA3686A885A802A79E3
:1043E0001A716A795A71AA799A71039A029B9A4250
:1043F00000D91A1C00200123011CFFF71FFC051E19
:1044000004D1201CFFF714FD281C01E0201C65606E
:1044100005B0F0BDF0B589B00091151C01F0D0FBDE
:10442000009B02905C6800230193002C06D0E26898
:10443000019B9446634401936468F6E7029B002B5A
:1044400003D10098FFF7F4FCD3E0019BF822EB1AAC
:1044500006936B46198B029B5B88043BCB18134079
:104460005B1A9BB205931A1D009B01999868FFF790
:1044700075FF071EE5D043686DBA9B68261C039341
:10448000039AABB204931B0A5370FF23049A1340A0
:10449000402252421343039A1370574B1B885BBA56
:1044A0009BB293701B0AD370009B5D68002D13D0E4
:1044B000059AEB68941B9C4200D91C1C039B301D81
:1044C0001818221CA96806F098FA3419059BA6B2A0
:1044D0009E4201D26D68E9E7029B391C0020185EFC
:1044E000FFF79CF9002802DC381CFFF7A1FC002E26
:1044F000A7D0FCF799F9019B9E4273D2F824029B46
:104500005F88019B053F591D009B2740891B7A1D31
:104510009868FFF723FF0390002892D0436804991E
:104520009A68531D0793049B1B0A5370FF230B408B
:10453000202149420B43002113702F4B1B885BBA8B
:104540009BB293701B0AD370069BF318DB081371A0
:10455000009B5D68002D1BD0B14217D0EC68A3B260
:10456000C91889B2B1420FD99B19591A89B2641A74
:10457000BC4200D93C1CAB68221C5918079806F0B5
:104580003CFAA4B26D6804E06D68E3E7002400E043
:104590002C1CBC4214D2002D12D0EB683A1B0592A1
:1045A0009A4200D90593079BA9681819059A06F045
:1045B00024FA059BE418A4B2BC4202D06D68EAE775
:1045C000271C029B03990020185EFFF727F900289B
:1045D00002DC0398FFF72CFC002F00D131E7BF1954
:1045E000BEB286E70098FFF723FC034A1388013325
:1045F000138009B0F0BDC0463435002010B5041C4E
:1046000007214368A268986813788B43C02B06D0B3
:10461000E02B0AD11379E268DB00053A02E0E36897
:104620001A1F0023211C00F011F8201CFFF700FCCA
:1046300010BD0368002B06D0002219689A80DA802A
:104640001A600160F5E7436070470000F0B500268E
:104650008FB001900CA80891009202938F6803F02C
:1046600089FABC4C6068251C002820D0A2680C9BED
:104670009B1A032B05D9FFF7DBFB201CFFF7D9FFA3
:1046800004E0002E03D0B3689A4200D3351CB24B2D
:1046900024349C4201D02E1CE4E7002D07D068682A
:1046A000002804D0FFF7C4FB281CFFF7C2FF019BC2
:1046B000019A08330693019B04261B780024039378
:1046C0000833D318079353783A7804937B780CA86F
:1046D0001B0213435BBA5B055B0D0593FB78BA784D
:1046E0001B0213436A465BBAD384D38C0A9303F04C
:1046F00041FA984D043504239B1B0B932B68002B28
:1047000000D123E1DB68059A934223D16B8B0A9A8F
:1047100093421FD12B7E039A93421BD16B7E049A46
:10472000934217D1281C06990830039A06F056F9CF
:1047300000280FD1281C07991030049A06F04EF972
:10474000002807D124240B9B6343824CE4180C9B64
:10475000A36032E0002C03D12B68002B00D12C1F6A
:10476000013E2435002EC6D1002C26D0301C311C31
:10477000059A0123FFF762FA6060002800D1F9E092
:1047800083680021002018605960201C0C9B06994A
:10479000A360039A0C3006F030F9201C07991430FE
:1047A000049A06F02AF96B461B7B268423776B4616
:1047B0001B7C63776B46DB8CE383002C00D1D9E054
:1047C000029B2568002B1ED13B79412B04D1009B15
:1047D0007E1D013B009317E01F223E1D9343029A6A
:1047E000602B12D163680899181CDA68042300F062
:1047F00037F9002800D18EE0009A36182832131AB3
:104800000093282201E07E1D002263680299039331
:10481000009B5B180399C9688B4200D9A4E06B46E2
:104820001989002D17D0009F4B1EDB19AF889BB252
:104830008F4203D2E888884200D395E0B94202D281
:104840009F4200D890E08F4203D1E988994200D17D
:104850008AE02D68E3E7009B4F1EFF18BFB23F4878
:10486000EB0084466344D888002815D1002B16D06D
:1048700099802168DF80196023600099238CCB1810
:1048800003992384029B8868D318C018009B311CAD
:104890009A1A06F0B2F802E00135282DDFD16368DC
:1048A000228CDB689A4265D100200123277F667F36
:1048B000011CBA1908325B42FFF7C0F9051E2AD065
:1048C000002283681F705E705A805A719A711A7143
:1048D000974208D080680278BA4204D1211C08307F
:1048E0000C3106F08AF8002E17D0AB685A78B24225
:1048F00013D1211C1878143108301818321C06F016
:104900007CF80AE05D6002201549164A6368FEF7EC
:1049100059FF00282BD1606827E0019AAB685288C4
:104920005A80019A12791A71019A92799A71019AB0
:1049300052795A7100236B606368002B04D05A6867
:10494000002ADFD0131CFAE76560DCE7002C00D0FA
:1049500006E704E738350020C8350020C8350020B8
:104960000000FFFF010200000398FFF761FA201C1E
:10497000FFF75FFE0FB0F0BD002310B5437003706A
:10498000042A16D0082A02D0022A25D117E00222D2
:104990000B78534003704B7843708B788370CB78DF
:1049A000C3700B7903714B7943718B798371CB7928
:1049B00010E002230A785A4002704A784270FF24BD
:1049C0000022C470013C827004714271CA5CCB1831
:1049D00082715B78C37100E0181C10BD0F23027850
:1049E00010B59A430C092243027042780901134022
:1049F0000B43437010BD000073B5051C0E1C141C46
:104A000068461649082205F0F8FF281E24D06B7C62
:104A10000020DB0620D42A7C0130802A1CD0402ACA
:104A200001D8002018E00F23D208501CD11F3018E5
:104A300061189A1A05F0D2FF0028F2D12A7CD30817
:104A4000E418083CF35C20785840072313406A467A
:104A5000D35C18404342584176BDC04611BF0000A8
:104A6000F0B585B002924A68019192688968009217
:104A7000002803D10320D149FBF794FEC268272AFE
:104A8000F8D900267F22351C84686020CF187B78F7
:104A900003219A4275412378703A1A4002432270EA
:104AA0001822844638784D1B0240082A24D014D896
:104AB000B2424DD1795D201CFFF790FF0F2279198A
:104AC0004B7813406278134363708978A278EB1CAB
:104AD0000A43A270FA5C043529E0102A2BD0182A68
:104AE00036D1201C311CFFF779FF0F226378A670A6
:104AF00093436370E6702BE066460B401E43331C05
:104B00007A1910788009800003438B430F210F200E
:104B10002370637819406170137803400B4363700E
:104B20005178A278AB1C0A43A270FA5C0335E37893
:104B30001343E3700CE06B1C795D201C0393FFF7BB
:104B40004DFF0F226378039D93436370A670E67058
:104B50003B785B0702D47B5D0135A37103233A7870
:104B60001340022B07D0032B07D0012B06D07B5D0F
:104B70000135E37103E0402300E0FF23E3714026A9
:104B80007B781E400ED000205AB2824201DAB878FB
:104B9000000930220026134204D0FFF721FB061E35
:104BA00000D11BE270237A781340302B68D00ED8E6
:104BB000102B37D0202B48D0002B00D09AE0201C9F
:104BC00079190830102205F018FF103592E0502BAB
:104BD0006BD014D8402B00D08CE00023237263727A
:104BE000A372E37223736373A373E3732374637415
:104BF000A374E37423756375A375E3757AE0602B82
:104C000061D0702B76D1009B201C191C1A780831BA
:104C10001030FFF7B1FE201C327C0830311C01F04F
:104C200045F967E002220023201C524222727E3A9C
:104C30006272A372E37223736373A373E3737919CC
:104C40008832103005F0D9FE3BE08021022200239B
:104C5000201C4942524261727F312272E1742275F6
:104C6000A372E37223736373A373E3732374637494
:104C7000A374637579190432163005F0BEFE38E06E
:104C8000009B201C191C1A7810300831FFF774FEA5
:104C900002220023524222727E3A6272A372E372AF
:104CA00023736373A373E37324E0201C7919082230
:104CB000103005F0A2FE201C327C0830311C01F0BF
:104CC000F5F8083516E001220023201C5242E27458
:104CD000921822757919043223746374A37463756E
:104CE000163005F08AFE201C327C0830311C01F0A1
:104CF000DDF802357A7853070DD5002053B2834290
:104D000002DA0F23B8781840930704D0FFF768FA47
:104D1000061E00D162E10F23787818400C2800D9D4
:104D20005CE105F089F80D00150028004D005B01DD
:104D3000630071008F000D009F00CC00F200110194
:104D4000201C79191830102205F057FE103535E176
:104D500002220023201C524222767E3A6276A376FB
:104D6000E37623776377A377E37779198832203066
:104D700005F043FE46E0802202210023012052423A
:104D800062764942621C2176A376E37623776377C5
:104D9000A377E377D377A21CD377E21CD377404283
:104DA000221DD077201C621DD177A21DD3777919DF
:104DB0000222263005F021FE42E0C0462BBB000057
:104DC000201C009B203019785A7808315918FFF7B9
:104DD000D3FD02220023524222767E3A6276A376E7
:104DE000E37623776377A377E377E7E0201C7919ED
:104DF0000822203005F001FE201C327C1830311CC6
:104E000001F054F80835D9E000230121201C621C70
:104E1000D377A21CD377E21CD3774942221DD177E6
:104E2000621D4918D177A21DD37779190222263045
:104E300005F0E3FD201C327C1830311C01F036F8FF
:104E40000235BBE0201C009B203019785A780831CD
:104E50005918FFF791FD201C327C1830311C01F0ED
:104E600025F8ABE00023621C6376A376E376237714
:104E70006377A377E377D377A21CD377E21CD3774A
:104E8000E21D9446261D601DA11DF3770132C377F4
:104E9000CB779377D377FF3323767B5D009263766E
:104EA0007B195A78F27762469E78C677D878C877A9
:104EB0001B79691DD3777B5C0635009A23E00023BC
:104EC000621C6376A376E37623776377A377E37731
:104ED000D377A21CD377E21CD377221DD377621D30
:104EE000D377A61DE11D0332F377CB77D377FF335A
:104EF00023767B5D781963764378F3778078EB1CB3
:104F0000C877FB5C0435D37758E00023621CA37696
:104F1000E37623776377A377E377D377A21CD377FE
:104F2000E21CD377221DD377621DD377A21DD377DE
:104F3000E21DD3770132D377FF332376FD3B6376CF
:104F40007B5D0135D37739E0337C621C009300230D
:104F500023766376A376E37623776377A377E37785
:104F6000D377A21CD377E21CD377221DD377621D9F
:104F7000D377A21DD377E21DD3770132D377337C69
:104F8000402B01D940233374FF23201C23767B5D03
:104F9000583063767B195B78311CA376337CE376DB
:104FA000327C00F083FF201C291D79182430042254
:104FB00005F023FD6B461B7806353374029B002BEE
:104FC00003D1019BDB685B1B01E0029B283B5BBAC2
:104FD0009BB223711B0A6371281C00E0002005B0FE
:104FE000F0BDC046F0B583688DB00490039343686C
:104FF00000209C68DA68011C0123FEF71FFE059063
:10500000002800D147E3602385682B7000236B7074
:10501000627A207A231C12020243111C0833A27AFE
:105020000693E37A12040A431B061343627B1E1C99
:10503000207BA37B120202431B0413431A1CE37B55
:105040001B061343334300D0FBE0637C217C1B022F
:10505000E77C0B431A1C3F063E1CA37C207D1B04EF
:105060001343627D1E43A37D1202E77D02431B04AE
:1050700013433F061A1C3B1C13431E43371E00D02C
:10508000DFE0237EFF2B00D1E0E0201C1830FFF78B
:1050900077F80290002F04D07B7C1A0701D0DB0642
:1050A00009D4029A0223002A0DD0527C0223110750
:1050B00009D0D20607D580226B78524213436B7019
:1050C0000023AB70033362782078A17816020904BC
:1050D00006430E43E17812090906314309BA090370
:1050E00015D10001024352B22978002A03D11832A7
:1050F0001143297053E01022114329702278591C62
:105100001001627812090243EA548BB247E0D1B22F
:105110000322024012010A4317D108212A780A43C8
:105120002A7066782078A278360206431204164365
:10513000E27800071206324312BA1203800F591C9C
:10514000120F800189B2024314E002010A43EA54BB
:105150006078227800021043A278991C120402435E
:10516000101CE27801331206024312BA120389B20C
:105170009BB2120FEA5462782678A3781202324367
:105180001B0413431A1CE3781B06134300221BBAAB
:105190001B0A6B548B1C013189B29BB26A54A279F1
:1051A0005E1CEA54E279B6B2402A07D0FF2A08D042
:1051B000012A0BD12B781A432A700AE02B7802229D
:1051C00001E003222B7813432B7002E00233AA552F
:1051D0009EB2637A217A1B020B431A1CA37A207BAE
:1051E0001B041343E27A12061A439446627BA37BA4
:1051F000120202431B0413431A1CE37B1B061343D6
:1052000062461A432AD1627C207C12020243111C9E
:10521000A27CE37C12040A431B061343627D9C4676
:10522000207DA37D120202431B0413431A1CE37D5D
:105230001B0613436246134300D028E26B784022DA
:105240001BE20698FEF79CFF071C1AE70023029357
:105250009F4200D020E70297023334E7002F0ED0A0
:105260007B7CDB061AD540226B7813436B707B7C0A
:105270001A0713D0AA781B011343AB700EE06246E5
:1052800011BA002B00D1F3E1237AFF2B00D0F7E114
:10529000627AF03B1340022B00D0F1E100220023A0
:1052A00008920993039B1A78FD23911E194201D09D
:1052B000082A05D1039908A80831FFF75DFB09E02A
:1052C000039B07210220185E08230022009308ABED
:1052D000FEF7BCFA637C217C1B020B431A1CA37CE7
:1052E000207D1B041343E27C12061A439446627D20
:1052F000A37D120202431B0413431A1CE37D1B0609
:105300001343089A624506D1099A07929A4202D13C
:105310006B783022B1E1381C069908AAFFF76CFBC4
:105320000028F5D1627C207CA37C120202431B047E
:1053300013431A1CE37C1B0613431BBA6A78FF2B2A
:1053400010D1637D217D1B020B43FE2B0AD1211C52
:10535000DE3B1343A8196B701631022205F04DFB9A
:10536000023609E01023211C1343A8196B70103179
:10537000082205F042FB0836B6B2237EFF2B00D090
:10538000ABE06F78F73B3B436B70E37EA27E1B0282
:1053900013435CD1627F207FA37F120202431B0470
:1053A00013431A1CE37F1B06134350D1631CDA7F9F
:1053B000A31CDB7F1B02134349D1617EE21C02293F
:1053C0001CD1D17F09040B43211DC97F09060B4362
:1053D00014D1631DD97FA31DDB7F1B020B430DD1AD
:1053E000E31DDB7F002B09D1211C0B333B436B708A
:1053F0000831CA7F731CAA559EB219E1231DDB7FB9
:10540000D17F1B020B4312D1631DDB7F002B0ED11A
:10541000211C0A333B436B70637E701C80B2AB551A
:1054200028182531032205F0E8FA0436FFE0D37F7F
:10543000002B00D0F4E0211C09333B436B70637EEA
:10544000701C80B2AB5528182331052241E0211C85
:1054500002221C3108A805F0D0FA0A20211C06AB54
:10546000C0181E31022205F0C8FA211C0222203188
:1054700009A805F0C2FA0E20211C06ABC018223183
:10548000022205F0BAFA08A8FEF77AFE002800D139
:10549000C6E0437CDB0600D4C2E0027CE37E9A4295
:1054A00000D0BDE004226B7813436B700F23427C65
:1054B000134002D0AA781343AB70637E211CAB5516
:1054C000A27E731C9BB2EA540422B01C80B228183E
:1054D000243105F092FA0636A9E0029B002B02D097
:1054E0005B7CDB061DD4637E217E1B020B431A1CF2
:1054F000A37E207F1B041343E27E12061A43171C6F
:10550000627FA37F120202431B0413431A1CE37F32
:105510001B0613433ABA002B00D081E05F4B9A423E
:105520007ED1039B5B78002B7AD0029B002B0BD0A3
:1055300004226B7813436B70029B5A7C0F23134039
:1055400002D0AA781343AB70039B08A819785A7845
:1055500008315918FFF710FA671CA31CF97F039351
:10556000DB7F1B020B431A1CE31CDB7F1B04134372
:10557000221DD27F12061A43631DD87FA31D9446B5
:10558000DA7FE31DDB7F120202431B0413431A1C64
:10559000231C0833DB7F1B061343089A624508D19E
:1055A000099A06929A4204D103226B7813436B70D6
:1055B0003EE0211C0298183108AAFFF71DFA0028C6
:1055C000F2D1039BF87FDA7FE31CDB7F12020243F8
:1055D0001B0413431A1C231DDB7F69781B0613432E
:1055E0001BBAA819FF2B11D1631DDA7FA31DDB7F26
:1055F0001B021343FE2B09D102220B1C211C134357
:105600006B70263105F0F9F9023610E001230B43E7
:10561000211C6B702031082205F0EFF9083606E0F6
:10562000211CA8191831102205F0E7F91036B6B27E
:105630000598311CFEF796FB049B5868834208D0FE
:105640005A68002A05D0824201D0131CF8E742684C
:105650005A6000234360FEF7EBFB049B01205B686C
:105660000293029A059B5A60049B059A5A6012E0C5
:105670000A4A914200D007E610E613436B707CE6BD
:10568000A8190699102205F0B8F9103674E6002F13
:1056900000D0E5E5F8E50DB0F0BDC046000080FEA5
:1056A0007FB5041C0E1C7534FF34051C201C02F051
:1056B0009FFA311C02A8002202F058FA064B201C67
:1056C00000229B5E88229200009201950299039A23
:1056D00002F06EFA7FBDC046EC110020AD2370B51C
:1056E0005B00C35A041CDB0703D403200D49FBF7FE
:1056F00059F8061C5136FF36301CFBF709F86023B9
:105700000025FF33E554201C0A21FFF7C9FF301C98
:10571000FBF728F8AC235B00291CE05EFDF75CFE7C
:1057200070BDC0462BBB0000F8B5AD2301225B0065
:10573000C35A051C134203D103201A49FBF732F860
:10574000071C60265137FF37381CFF36FAF7E0FF99
:10575000AC5D022C03D80134AC550A2314E000F0F0
:10576000A3FF0123033CA340191C1C1C04F0F4FB01
:105770003B2C02D8AB5D0133AB550A23092903D971
:105780000B1E3C2B00D93C23281C191CFFF788FF5B
:10579000381CFAF7E7FFAC235B00E85E0021FDF759
:1057A0001BFEF8BD2BBB000038B5041C1A23C05EDD
:1057B000FCF7F6FCAD235B00C35ADB0703D40320E0
:1057C0002549FAF7EFFF637E1B0733D5627820780F
:1057D000A578120202432D04111C2A1CE3780A4307
:1057E0001B06134362791D1C2079A3791202024320
:1057F0001B0413431A1CE3791B0613432B4325D1C7
:10580000627A207AA57A120202432D04111C2A1C06
:10581000E37A0A431B061343627B1D1C207BA37B98
:10582000120202431B0413431A1CE37B1B0613439F
:105830002B430BD1002003F05FFE00280BD11A236D
:10584000E05EFCF7ADFCFFF749FF04E01A23E05EE1
:10585000211CFDF7C1FD38BD2BBB0000F0B585B0A4
:105860001C1C009119785B78151C1B020B431A1C39
:10587000A378071C1B041343E278207912061A430D
:10588000161C6279A379120202431B0413431A1CEB
:10589000E3791B06134332BA002B02D1474B9A42DD
:1058A00007D02378FF2B30D16278F03B1340022BD6
:1058B0002BD1211C281C03F08BFD637821781B025F
:1058C0000B431A1CA378061C1B041343E2782079AF
:1058D00012061A4394466279A379120202431B040A
:1058E00013431A1CE3791B061343624612BA002BBA
:1058F00002D1324B9A4215D02378FF2B09D162781E
:10590000F03B1340022B04D10CE0FDF7B3FB041C69
:10591000CFE7351E4ED00723727E1340013B012B8B
:105920001ED81BE0002E04D03023727E1340202BA3
:10593000F1D103AE301CFDF7C9FF0822009B019096
:105940001A70A118381C05F058F802223B78534011
:105950003B70002D2ED1019B9D421CD1002529E0DA
:10596000302300251340202B24D0327E002A04D07F
:10597000311C381C103105F040F8337E009A13704A
:105980000723727E1340032B03D1301C0421FDF743
:10599000C1FC758B0EE06C00305FFCF701FC002849
:1059A00006D0AD235B00C35ADB0701D5355B01E0B0
:1059B0000135D0E728B205B0F0BDC046000080FE3A
:1059C0007FB50E1C002803D103201149FAF7EAFE27
:1059D0000029F9D01A23C05EFCF7E2FB041C7534E1
:1059E000FF34051C201C02F003F9311C02A8002220
:1059F00002F0BCF8074B201C00229B5E882292001C
:105A0000009201950299039A02F0D2F87FBDC04638
:105A10002BBB0000EC110020F8B5071C0C1C161C59
:105A2000212010211A1CFDF78CFA051E0FD000232F
:105A3000806864BAA4B28471240A877043710371C8
:105A4000C370C471311C0830082204F0D6FF281C32
:105A5000F8BD0000F0B58BB0109C6578022D77D1B1
:105A60001F1C08230592049100930321002206AB1A
:105A7000051CFDF7EBFE00286ADB281CFCF790FBF9
:105A8000391C061C281C03F0A3FC059B0390882BE3
:105A90005ED1D233F35ADB075AD5637A217AA77ADB
:105AA0001B020B433F041A1C3B1CE77A13433F06BF
:105AB000627B207B1F43A37B120202431B04134320
:105AC0001A1CE37B1B061343069A0592BA423FD188
:105AD000079A9A423CD1039B002B39D0A778012F1B
